{
	"contracts/MyToken_flattened.sol": {
		"CustomToken": {
			"abi": [
				{
					"inputs": [],
					"stateMutability": "nonpayable",
					"type": "constructor"
				},
				{
					"inputs": [
						{
							"internalType": "address",
							"name": "spender",
							"type": "address"
						},
						{
							"internalType": "uint256",
							"name": "allowance",
							"type": "uint256"
						},
						{
							"internalType": "uint256",
							"name": "needed",
							"type": "uint256"
						}
					],
					"name": "ERC20InsufficientAllowance",
					"type": "error"
				},
				{
					"inputs": [
						{
							"internalType": "address",
							"name": "sender",
							"type": "address"
						},
						{
							"internalType": "uint256",
							"name": "balance",
							"type": "uint256"
						},
						{
							"internalType": "uint256",
							"name": "needed",
							"type": "uint256"
						}
					],
					"name": "ERC20InsufficientBalance",
					"type": "error"
				},
				{
					"inputs": [
						{
							"internalType": "address",
							"name": "approver",
							"type": "address"
						}
					],
					"name": "ERC20InvalidApprover",
					"type": "error"
				},
				{
					"inputs": [
						{
							"internalType": "address",
							"name": "receiver",
							"type": "address"
						}
					],
					"name": "ERC20InvalidReceiver",
					"type": "error"
				},
				{
					"inputs": [
						{
							"internalType": "address",
							"name": "sender",
							"type": "address"
						}
					],
					"name": "ERC20InvalidSender",
					"type": "error"
				},
				{
					"inputs": [
						{
							"internalType": "address",
							"name": "spender",
							"type": "address"
						}
					],
					"name": "ERC20InvalidSpender",
					"type": "error"
				},
				{
					"inputs": [
						{
							"internalType": "address",
							"name": "owner",
							"type": "address"
						}
					],
					"name": "OwnableInvalidOwner",
					"type": "error"
				},
				{
					"inputs": [
						{
							"internalType": "address",
							"name": "account",
							"type": "address"
						}
					],
					"name": "OwnableUnauthorizedAccount",
					"type": "error"
				},
				{
					"anonymous": false,
					"inputs": [
						{
							"indexed": true,
							"internalType": "address",
							"name": "owner",
							"type": "address"
						},
						{
							"indexed": true,
							"internalType": "address",
							"name": "spender",
							"type": "address"
						},
						{
							"indexed": false,
							"internalType": "uint256",
							"name": "value",
							"type": "uint256"
						}
					],
					"name": "Approval",
					"type": "event"
				},
				{
					"anonymous": false,
					"inputs": [
						{
							"indexed": true,
							"internalType": "address",
							"name": "previousOwner",
							"type": "address"
						},
						{
							"indexed": true,
							"internalType": "address",
							"name": "newOwner",
							"type": "address"
						}
					],
					"name": "OwnershipTransferred",
					"type": "event"
				},
				{
					"anonymous": false,
					"inputs": [
						{
							"indexed": false,
							"internalType": "address",
							"name": "account",
							"type": "address"
						}
					],
					"name": "Paused",
					"type": "event"
				},
				{
					"anonymous": false,
					"inputs": [
						{
							"indexed": true,
							"internalType": "address",
							"name": "from",
							"type": "address"
						},
						{
							"indexed": true,
							"internalType": "address",
							"name": "to",
							"type": "address"
						},
						{
							"indexed": false,
							"internalType": "uint256",
							"name": "value",
							"type": "uint256"
						}
					],
					"name": "Transfer",
					"type": "event"
				},
				{
					"anonymous": false,
					"inputs": [
						{
							"indexed": false,
							"internalType": "address",
							"name": "account",
							"type": "address"
						}
					],
					"name": "Unpaused",
					"type": "event"
				},
				{
					"inputs": [
						{
							"internalType": "address",
							"name": "owner",
							"type": "address"
						},
						{
							"internalType": "address",
							"name": "spender",
							"type": "address"
						}
					],
					"name": "allowance",
					"outputs": [
						{
							"internalType": "uint256",
							"name": "",
							"type": "uint256"
						}
					],
					"stateMutability": "view",
					"type": "function"
				},
				{
					"inputs": [
						{
							"internalType": "address",
							"name": "spender",
							"type": "address"
						},
						{
							"internalType": "uint256",
							"name": "value",
							"type": "uint256"
						}
					],
					"name": "approve",
					"outputs": [
						{
							"internalType": "bool",
							"name": "",
							"type": "bool"
						}
					],
					"stateMutability": "nonpayable",
					"type": "function"
				},
				{
					"inputs": [
						{
							"internalType": "address",
							"name": "account",
							"type": "address"
						}
					],
					"name": "balanceOf",
					"outputs": [
						{
							"internalType": "uint256",
							"name": "",
							"type": "uint256"
						}
					],
					"stateMutability": "view",
					"type": "function"
				},
				{
					"inputs": [
						{
							"internalType": "uint256",
							"name": "amount",
							"type": "uint256"
						}
					],
					"name": "burn",
					"outputs": [],
					"stateMutability": "nonpayable",
					"type": "function"
				},
				{
					"inputs": [
						{
							"internalType": "address",
							"name": "account",
							"type": "address"
						},
						{
							"internalType": "uint256",
							"name": "amount",
							"type": "uint256"
						}
					],
					"name": "burnFrom",
					"outputs": [],
					"stateMutability": "nonpayable",
					"type": "function"
				},
				{
					"inputs": [],
					"name": "decimals",
					"outputs": [
						{
							"internalType": "uint8",
							"name": "",
							"type": "uint8"
						}
					],
					"stateMutability": "view",
					"type": "function"
				},
				{
					"inputs": [
						{
							"internalType": "address",
							"name": "to",
							"type": "address"
						},
						{
							"internalType": "uint256",
							"name": "amount",
							"type": "uint256"
						}
					],
					"name": "mint",
					"outputs": [],
					"stateMutability": "nonpayable",
					"type": "function"
				},
				{
					"inputs": [],
					"name": "name",
					"outputs": [
						{
							"internalType": "string",
							"name": "",
							"type": "string"
						}
					],
					"stateMutability": "view",
					"type": "function"
				},
				{
					"inputs": [],
					"name": "owner",
					"outputs": [
						{
							"internalType": "address",
							"name": "",
							"type": "address"
						}
					],
					"stateMutability": "view",
					"type": "function"
				},
				{
					"inputs": [],
					"name": "pause",
					"outputs": [],
					"stateMutability": "nonpayable",
					"type": "function"
				},
				{
					"inputs": [],
					"name": "paused",
					"outputs": [
						{
							"internalType": "bool",
							"name": "",
							"type": "bool"
						}
					],
					"stateMutability": "view",
					"type": "function"
				},
				{
					"inputs": [],
					"name": "renounceOwnership",
					"outputs": [],
					"stateMutability": "nonpayable",
					"type": "function"
				},
				{
					"inputs": [],
					"name": "symbol",
					"outputs": [
						{
							"internalType": "string",
							"name": "",
							"type": "string"
						}
					],
					"stateMutability": "view",
					"type": "function"
				},
				{
					"inputs": [],
					"name": "totalSupply",
					"outputs": [
						{
							"internalType": "uint256",
							"name": "",
							"type": "uint256"
						}
					],
					"stateMutability": "view",
					"type": "function"
				},
				{
					"inputs": [
						{
							"internalType": "address",
							"name": "to",
							"type": "address"
						},
						{
							"internalType": "uint256",
							"name": "value",
							"type": "uint256"
						}
					],
					"name": "transfer",
					"outputs": [
						{
							"internalType": "bool",
							"name": "",
							"type": "bool"
						}
					],
					"stateMutability": "nonpayable",
					"type": "function"
				},
				{
					"inputs": [
						{
							"internalType": "address",
							"name": "from",
							"type": "address"
						},
						{
							"internalType": "address",
							"name": "to",
							"type": "address"
						},
						{
							"internalType": "uint256",
							"name": "value",
							"type": "uint256"
						}
					],
					"name": "transferFrom",
					"outputs": [
						{
							"internalType": "bool",
							"name": "",
							"type": "bool"
						}
					],
					"stateMutability": "nonpayable",
					"type": "function"
				},
				{
					"inputs": [
						{
							"internalType": "address",
							"name": "newOwner",
							"type": "address"
						}
					],
					"name": "transferOwnership",
					"outputs": [],
					"stateMutability": "nonpayable",
					"type": "function"
				},
				{
					"inputs": [],
					"name": "unpause",
					"outputs": [],
					"stateMutability": "nonpayable",
					"type": "function"
				}
			],
			"devdoc": {
				"errors": {
					"ERC20InsufficientAllowance(address,uint256,uint256)": [
						{
							"details": "Indicates a failure with the `spender`’s `allowance`. Used in transfers.",
							"params": {
								"allowance": "Amount of tokens a `spender` is allowed to operate with.",
								"needed": "Minimum amount required to perform a transfer.",
								"spender": "Address that may be allowed to operate on tokens without being their owner."
							}
						}
					],
					"ERC20InsufficientBalance(address,uint256,uint256)": [
						{
							"details": "Indicates an error related to the current `balance` of a `sender`. Used in transfers.",
							"params": {
								"balance": "Current balance for the interacting account.",
								"needed": "Minimum amount required to perform a transfer.",
								"sender": "Address whose tokens are being transferred."
							}
						}
					],
					"ERC20InvalidApprover(address)": [
						{
							"details": "Indicates a failure with the `approver` of a token to be approved. Used in approvals.",
							"params": {
								"approver": "Address initiating an approval operation."
							}
						}
					],
					"ERC20InvalidReceiver(address)": [
						{
							"details": "Indicates a failure with the token `receiver`. Used in transfers.",
							"params": {
								"receiver": "Address to which tokens are being transferred."
							}
						}
					],
					"ERC20InvalidSender(address)": [
						{
							"details": "Indicates a failure with the token `sender`. Used in transfers.",
							"params": {
								"sender": "Address whose tokens are being transferred."
							}
						}
					],
					"ERC20InvalidSpender(address)": [
						{
							"details": "Indicates a failure with the `spender` to be approved. Used in approvals.",
							"params": {
								"spender": "Address that may be allowed to operate on tokens without being their owner."
							}
						}
					],
					"OwnableInvalidOwner(address)": [
						{
							"details": "The owner is not a valid owner account. (eg. `address(0)`)"
						}
					],
					"OwnableUnauthorizedAccount(address)": [
						{
							"details": "The caller account is not authorized to perform an operation."
						}
					]
				},
				"events": {
					"Approval(address,address,uint256)": {
						"details": "Emitted when the allowance of a `spender` for an `owner` is set by a call to {approve}. `value` is the new allowance."
					},
					"Paused(address)": {
						"details": "Emitted when the pause is triggered by `account`."
					},
					"Transfer(address,address,uint256)": {
						"details": "Emitted when `value` tokens are moved from one account (`from`) to another (`to`). Note that `value` may be zero."
					},
					"Unpaused(address)": {
						"details": "Emitted when the pause is lifted by `account`."
					}
				},
				"kind": "dev",
				"methods": {
					"allowance(address,address)": {
						"details": "See {IERC20-allowance}."
					},
					"approve(address,uint256)": {
						"details": "See {IERC20-approve}. NOTE: If `value` is the maximum `uint256`, the allowance is not updated on `transferFrom`. This is semantically equivalent to an infinite approval. Requirements: - `spender` cannot be the zero address."
					},
					"balanceOf(address)": {
						"details": "See {IERC20-balanceOf}."
					},
					"decimals()": {
						"details": "Returns the number of decimals used to get its user representation. For example, if `decimals` equals `2`, a balance of `505` tokens should be displayed to a user as `5.05` (`505 / 10 ** 2`). Tokens usually opt for a value of 18, imitating the relationship between Ether and Wei. This is the default value returned by this function, unless it's overridden. NOTE: This information is only used for _display_ purposes: it in no way affects any of the arithmetic of the contract, including {IERC20-balanceOf} and {IERC20-transfer}."
					},
					"name()": {
						"details": "Returns the name of the token."
					},
					"owner()": {
						"details": "Returns the address of the current owner."
					},
					"paused()": {
						"details": "Returns true if the contract is paused, and false otherwise."
					},
					"renounceOwnership()": {
						"details": "Leaves the contract without owner. It will not be possible to call `onlyOwner` functions. Can only be called by the current owner. NOTE: Renouncing ownership will leave the contract without an owner, thereby disabling any functionality that is only available to the owner."
					},
					"symbol()": {
						"details": "Returns the symbol of the token, usually a shorter version of the name."
					},
					"totalSupply()": {
						"details": "See {IERC20-totalSupply}."
					},
					"transfer(address,uint256)": {
						"details": "See {IERC20-transfer}. Requirements: - `to` cannot be the zero address. - the caller must have a balance of at least `value`."
					},
					"transferFrom(address,address,uint256)": {
						"details": "See {IERC20-transferFrom}. Skips emitting an {Approval} event indicating an allowance update. This is not required by the ERC. See {xref-ERC20-_approve-address-address-uint256-bool-}[_approve]. NOTE: Does not update the allowance if the current allowance is the maximum `uint256`. Requirements: - `from` and `to` cannot be the zero address. - `from` must have a balance of at least `value`. - the caller must have allowance for ``from``'s tokens of at least `value`."
					},
					"transferOwnership(address)": {
						"details": "Transfers ownership of the contract to a new account (`newOwner`). Can only be called by the current owner."
					}
				},
				"version": 1
			},
			"evm": {
				"assembly": "    /* \"contracts/MyToken_flattened.sol\":27588:28975  contract CustomToken is ERC20, Ownable, Pausable {... */\n  mstore(0x40, 0x80)\n    /* \"contracts/MyToken_flattened.sol\":27674:27820  constructor() ERC20(\"Degen\", \"DGN\") Ownable(msg.sender) {... */\n  callvalue\n  dup1\n  iszero\n  tag_1\n  jumpi\n  revert(0x00, 0x00)\ntag_1:\n  pop\n    /* \"contracts/MyToken_flattened.sol\":27718:27728  msg.sender */\n  caller\n    /* \"contracts/MyToken_flattened.sol\":12527:12640  constructor(string memory name_, string memory symbol_) {... */\n  mload(0x40)\n  dup1\n  0x40\n  add\n  0x40\n  mstore\n  dup1\n  0x05\n  dup2\n  mstore\n  0x20\n  add\n  0x446567656e000000000000000000000000000000000000000000000000000000\n  dup2\n  mstore\n  pop\n  mload(0x40)\n  dup1\n  0x40\n  add\n  0x40\n  mstore\n  dup1\n  0x03\n  dup2\n  mstore\n  0x20\n  add\n  0x44474e0000000000000000000000000000000000000000000000000000000000\n  dup2\n  mstore\n  pop\n    /* \"contracts/MyToken_flattened.sol\":12601:12606  name_ */\n  dup2\n    /* \"contracts/MyToken_flattened.sol\":12593:12598  _name */\n  0x03\n    /* \"contracts/MyToken_flattened.sol\":12593:12606  _name = name_ */\n  swap1\n  dup2\n  tag_7\n  swap2\n  swap1\n  tag_8\n  jump\t// in\ntag_7:\n  pop\n    /* \"contracts/MyToken_flattened.sol\":12626:12633  symbol_ */\n  dup1\n    /* \"contracts/MyToken_flattened.sol\":12616:12623  _symbol */\n  0x04\n    /* \"contracts/MyToken_flattened.sol\":12616:12633  _symbol = symbol_ */\n  swap1\n  dup2\n  tag_9\n  swap2\n  swap1\n  tag_8\n  jump\t// in\ntag_9:\n  pop\n    /* \"contracts/MyToken_flattened.sol\":12527:12640  constructor(string memory name_, string memory symbol_) {... */\n  pop\n  pop\n    /* \"contracts/MyToken_flattened.sol\":23095:23096  0 */\n  0x00\n    /* \"contracts/MyToken_flattened.sol\":23071:23097  initialOwner == address(0) */\n  0xffffffffffffffffffffffffffffffffffffffff\n  and\n    /* \"contracts/MyToken_flattened.sol\":23071:23083  initialOwner */\n  dup2\n    /* \"contracts/MyToken_flattened.sol\":23071:23097  initialOwner == address(0) */\n  0xffffffffffffffffffffffffffffffffffffffff\n  and\n  sub\n    /* \"contracts/MyToken_flattened.sol\":23067:23162  if (initialOwner == address(0)) {... */\n  tag_11\n  jumpi\n    /* \"contracts/MyToken_flattened.sol\":23148:23149  0 */\n  0x00\n    /* \"contracts/MyToken_flattened.sol\":23120:23151  OwnableInvalidOwner(address(0)) */\n  mload(0x40)\n  0x1e4fbdf700000000000000000000000000000000000000000000000000000000\n  dup2\n  mstore\n  0x04\n  add\n  tag_12\n  swap2\n  swap1\n  tag_13\n  jump\t// in\ntag_12:\n  mload(0x40)\n  dup1\n  swap2\n  sub\n  swap1\n  revert\n    /* \"contracts/MyToken_flattened.sol\":23067:23162  if (initialOwner == address(0)) {... */\ntag_11:\n    /* \"contracts/MyToken_flattened.sol\":23171:23203  _transferOwnership(initialOwner) */\n  tag_14\n    /* \"contracts/MyToken_flattened.sol\":23190:23202  initialOwner */\n  dup2\n    /* \"contracts/MyToken_flattened.sol\":23171:23189  _transferOwnership */\n  shl(0x20, tag_15)\n    /* \"contracts/MyToken_flattened.sol\":23171:23203  _transferOwnership(initialOwner) */\n  0x20\n  shr\n  jump\t// in\ntag_14:\n    /* \"contracts/MyToken_flattened.sol\":23023:23210  constructor(address initialOwner) {... */\n  pop\n    /* \"contracts/MyToken_flattened.sol\":25901:25906  false */\n  0x00\n    /* \"contracts/MyToken_flattened.sol\":25891:25898  _paused */\n  0x05\n  0x14\n    /* \"contracts/MyToken_flattened.sol\":25891:25906  _paused = false */\n  0x0100\n  exp\n  dup2\n  sload\n  dup2\n  0xff\n  mul\n  not\n  and\n  swap1\n  dup4\n  iszero\n  iszero\n  mul\n  or\n  swap1\n  sstore\n  pop\n    /* \"contracts/MyToken_flattened.sol\":27752:27754  18 */\n  0x12\n    /* \"contracts/MyToken_flattened.sol\":27740:27749  _decimals */\n  0x05\n  0x15\n    /* \"contracts/MyToken_flattened.sol\":27740:27754  _decimals = 18 */\n  0x0100\n  exp\n  dup2\n  sload\n  dup2\n  0xff\n  mul\n  not\n  and\n  swap1\n  dup4\n  0xff\n  and\n  mul\n  or\n  swap1\n  sstore\n  pop\n    /* \"contracts/MyToken_flattened.sol\":27764:27813  _mint(msg.sender, 100 * 10 ** uint256(_decimals)) */\n  tag_18\n    /* \"contracts/MyToken_flattened.sol\":27770:27780  msg.sender */\n  caller\n    /* \"contracts/MyToken_flattened.sol\":27802:27811  _decimals */\n  0x05\n  0x15\n  swap1\n  sload\n  swap1\n  0x0100\n  exp\n  swap1\n  div\n  0xff\n  and\n    /* \"contracts/MyToken_flattened.sol\":27794:27812  uint256(_decimals) */\n  0xff\n  and\n    /* \"contracts/MyToken_flattened.sol\":27788:27790  10 */\n  0x0a\n    /* \"contracts/MyToken_flattened.sol\":27788:27812  10 ** uint256(_decimals) */\n  tag_19\n  swap2\n  swap1\n  tag_20\n  jump\t// in\ntag_19:\n    /* \"contracts/MyToken_flattened.sol\":27782:27785  100 */\n  0x64\n    /* \"contracts/MyToken_flattened.sol\":27782:27812  100 * 10 ** uint256(_decimals) */\n  tag_21\n  swap2\n  swap1\n  tag_22\n  jump\t// in\ntag_21:\n    /* \"contracts/MyToken_flattened.sol\":27764:27769  _mint */\n  shl(0x20, tag_23)\n    /* \"contracts/MyToken_flattened.sol\":27764:27813  _mint(msg.sender, 100 * 10 ** uint256(_decimals)) */\n  0x20\n  shr\n  jump\t// in\ntag_18:\n    /* \"contracts/MyToken_flattened.sol\":27588:28975  contract CustomToken is ERC20, Ownable, Pausable {... */\n  jump(tag_24)\n    /* \"contracts/MyToken_flattened.sol\":24710:24897  function _transferOwnership(address newOwner) internal virtual {... */\ntag_15:\n    /* \"contracts/MyToken_flattened.sol\":24783:24799  address oldOwner */\n  0x00\n    /* \"contracts/MyToken_flattened.sol\":24802:24808  _owner */\n  0x05\n  0x00\n  swap1\n  sload\n  swap1\n  0x0100\n  exp\n  swap1\n  div\n  0xffffffffffffffffffffffffffffffffffffffff\n  and\n    /* \"contracts/MyToken_flattened.sol\":24783:24808  address oldOwner = _owner */\n  swap1\n  pop\n    /* \"contracts/MyToken_flattened.sol\":24827:24835  newOwner */\n  dup2\n    /* \"contracts/MyToken_flattened.sol\":24818:24824  _owner */\n  0x05\n  0x00\n    /* \"contracts/MyToken_flattened.sol\":24818:24835  _owner = newOwner */\n  0x0100\n  exp\n  dup2\n  sload\n  dup2\n  0xffffffffffffffffffffffffffffffffffffffff\n  mul\n  not\n  and\n  swap1\n  dup4\n  0xffffffffffffffffffffffffffffffffffffffff\n  and\n  mul\n  or\n  swap1\n  sstore\n  pop\n    /* \"contracts/MyToken_flattened.sol\":24881:24889  newOwner */\n  dup2\n    /* \"contracts/MyToken_flattened.sol\":24850:24890  OwnershipTransferred(oldOwner, newOwner) */\n  0xffffffffffffffffffffffffffffffffffffffff\n  and\n    /* \"contracts/MyToken_flattened.sol\":24871:24879  oldOwner */\n  dup2\n    /* \"contracts/MyToken_flattened.sol\":24850:24890  OwnershipTransferred(oldOwner, newOwner) */\n  0xffffffffffffffffffffffffffffffffffffffff\n  and\n  0x8be0079c531659141344cd1fd0a4f28419497f9722a3daafe3b4186f6b6457e0\n  mload(0x40)\n  mload(0x40)\n  dup1\n  swap2\n  sub\n  swap1\n  log3\n    /* \"contracts/MyToken_flattened.sol\":24773:24897  {... */\n  pop\n    /* \"contracts/MyToken_flattened.sol\":24710:24897  function _transferOwnership(address newOwner) internal virtual {... */\n  pop\n  jump\t// out\n    /* \"contracts/MyToken_flattened.sol\":18384:18592  function _mint(address account, uint256 value) internal {... */\ntag_23:\n    /* \"contracts/MyToken_flattened.sol\":18473:18474  0 */\n  0x00\n    /* \"contracts/MyToken_flattened.sol\":18454:18475  account == address(0) */\n  0xffffffffffffffffffffffffffffffffffffffff\n  and\n    /* \"contracts/MyToken_flattened.sol\":18454:18461  account */\n  dup3\n    /* \"contracts/MyToken_flattened.sol\":18454:18475  account == address(0) */\n  0xffffffffffffffffffffffffffffffffffffffff\n  and\n  sub\n    /* \"contracts/MyToken_flattened.sol\":18450:18541  if (account == address(0)) {... */\n  tag_27\n  jumpi\n    /* \"contracts/MyToken_flattened.sol\":18527:18528  0 */\n  0x00\n    /* \"contracts/MyToken_flattened.sol\":18498:18530  ERC20InvalidReceiver(address(0)) */\n  mload(0x40)\n  0xec442f0500000000000000000000000000000000000000000000000000000000\n  dup2\n  mstore\n  0x04\n  add\n  tag_28\n  swap2\n  swap1\n  tag_13\n  jump\t// in\ntag_28:\n  mload(0x40)\n  dup1\n  swap2\n  sub\n  swap1\n  revert\n    /* \"contracts/MyToken_flattened.sol\":18450:18541  if (account == address(0)) {... */\ntag_27:\n    /* \"contracts/MyToken_flattened.sol\":18550:18585  _update(address(0), account, value) */\n  tag_29\n    /* \"contracts/MyToken_flattened.sol\":18566:18567  0 */\n  0x00\n    /* \"contracts/MyToken_flattened.sol\":18570:18577  account */\n  dup4\n    /* \"contracts/MyToken_flattened.sol\":18579:18584  value */\n  dup4\n    /* \"contracts/MyToken_flattened.sol\":18550:18557  _update */\n  shl(0x20, tag_30)\n    /* \"contracts/MyToken_flattened.sol\":18550:18585  _update(address(0), account, value) */\n  0x20\n  shr\n  jump\t// in\ntag_29:\n    /* \"contracts/MyToken_flattened.sol\":18384:18592  function _mint(address account, uint256 value) internal {... */\n  pop\n  pop\n  jump\t// out\n    /* \"contracts/MyToken_flattened.sol\":16934:18041  function _update(address from, address to, uint256 value) internal virtual {... */\ntag_30:\n    /* \"contracts/MyToken_flattened.sol\":17039:17040  0 */\n  0x00\n    /* \"contracts/MyToken_flattened.sol\":17023:17041  from == address(0) */\n  0xffffffffffffffffffffffffffffffffffffffff\n  and\n    /* \"contracts/MyToken_flattened.sol\":17023:17027  from */\n  dup4\n    /* \"contracts/MyToken_flattened.sol\":17023:17041  from == address(0) */\n  0xffffffffffffffffffffffffffffffffffffffff\n  and\n  sub\n    /* \"contracts/MyToken_flattened.sol\":17019:17559  if (from == address(0)) {... */\n  tag_32\n  jumpi\n    /* \"contracts/MyToken_flattened.sol\":17175:17180  value */\n  dup1\n    /* \"contracts/MyToken_flattened.sol\":17159:17171  _totalSupply */\n  0x02\n  0x00\n    /* \"contracts/MyToken_flattened.sol\":17159:17180  _totalSupply += value */\n  dup3\n  dup3\n  sload\n  tag_33\n  swap2\n  swap1\n  tag_34\n  jump\t// in\ntag_33:\n  swap3\n  pop\n  pop\n  dup2\n  swap1\n  sstore\n  pop\n    /* \"contracts/MyToken_flattened.sol\":17019:17559  if (from == address(0)) {... */\n  jump(tag_35)\ntag_32:\n    /* \"contracts/MyToken_flattened.sol\":17211:17230  uint256 fromBalance */\n  0x00\n    /* \"contracts/MyToken_flattened.sol\":17233:17242  _balances */\n  0x00\n    /* \"contracts/MyToken_flattened.sol\":17233:17248  _balances[from] */\n  0x00\n    /* \"contracts/MyToken_flattened.sol\":17243:17247  from */\n  dup6\n    /* \"contracts/MyToken_flattened.sol\":17233:17248  _balances[from] */\n  0xffffffffffffffffffffffffffffffffffffffff\n  and\n  0xffffffffffffffffffffffffffffffffffffffff\n  and\n  dup2\n  mstore\n  0x20\n  add\n  swap1\n  dup2\n  mstore\n  0x20\n  add\n  0x00\n  keccak256\n  sload\n    /* \"contracts/MyToken_flattened.sol\":17211:17248  uint256 fromBalance = _balances[from] */\n  swap1\n  pop\n    /* \"contracts/MyToken_flattened.sol\":17280:17285  value */\n  dup2\n    /* \"contracts/MyToken_flattened.sol\":17266:17277  fromBalance */\n  dup2\n    /* \"contracts/MyToken_flattened.sol\":17266:17285  fromBalance < value */\n  lt\n    /* \"contracts/MyToken_flattened.sol\":17262:17377  if (fromBalance < value) {... */\n  iszero\n  tag_36\n  jumpi\n    /* \"contracts/MyToken_flattened.sol\":17337:17341  from */\n  dup4\n    /* \"contracts/MyToken_flattened.sol\":17343:17354  fromBalance */\n  dup2\n    /* \"contracts/MyToken_flattened.sol\":17356:17361  value */\n  dup4\n    /* \"contracts/MyToken_flattened.sol\":17312:17362  ERC20InsufficientBalance(from, fromBalance, value) */\n  mload(0x40)\n  0xe450d38c00000000000000000000000000000000000000000000000000000000\n  dup2\n  mstore\n  0x04\n  add\n  tag_37\n  swap4\n  swap3\n  swap2\n  swap1\n  tag_38\n  jump\t// in\ntag_37:\n  mload(0x40)\n  dup1\n  swap2\n  sub\n  swap1\n  revert\n    /* \"contracts/MyToken_flattened.sol\":17262:17377  if (fromBalance < value) {... */\ntag_36:\n    /* \"contracts/MyToken_flattened.sol\":17529:17534  value */\n  dup2\n    /* \"contracts/MyToken_flattened.sol\":17515:17526  fromBalance */\n  dup2\n    /* \"contracts/MyToken_flattened.sol\":17515:17534  fromBalance - value */\n  sub\n    /* \"contracts/MyToken_flattened.sol\":17497:17506  _balances */\n  0x00\n    /* \"contracts/MyToken_flattened.sol\":17497:17512  _balances[from] */\n  0x00\n    /* \"contracts/MyToken_flattened.sol\":17507:17511  from */\n  dup7\n    /* \"contracts/MyToken_flattened.sol\":17497:17512  _balances[from] */\n  0xffffffffffffffffffffffffffffffffffffffff\n  and\n  0xffffffffffffffffffffffffffffffffffffffff\n  and\n  dup2\n  mstore\n  0x20\n  add\n  swap1\n  dup2\n  mstore\n  0x20\n  add\n  0x00\n  keccak256\n    /* \"contracts/MyToken_flattened.sol\":17497:17534  _balances[from] = fromBalance - value */\n  dup2\n  swap1\n  sstore\n  pop\n    /* \"contracts/MyToken_flattened.sol\":17197:17559  {... */\n  pop\n    /* \"contracts/MyToken_flattened.sol\":17019:17559  if (from == address(0)) {... */\ntag_35:\n    /* \"contracts/MyToken_flattened.sol\":17587:17588  0 */\n  0x00\n    /* \"contracts/MyToken_flattened.sol\":17573:17589  to == address(0) */\n  0xffffffffffffffffffffffffffffffffffffffff\n  and\n    /* \"contracts/MyToken_flattened.sol\":17573:17575  to */\n  dup3\n    /* \"contracts/MyToken_flattened.sol\":17573:17589  to == address(0) */\n  0xffffffffffffffffffffffffffffffffffffffff\n  and\n  sub\n    /* \"contracts/MyToken_flattened.sol\":17569:17994  if (to == address(0)) {... */\n  tag_39\n  jumpi\n    /* \"contracts/MyToken_flattened.sol\":17752:17757  value */\n  dup1\n    /* \"contracts/MyToken_flattened.sol\":17736:17748  _totalSupply */\n  0x02\n  0x00\n    /* \"contracts/MyToken_flattened.sol\":17736:17757  _totalSupply -= value */\n  dup3\n  dup3\n  sload\n  sub\n  swap3\n  pop\n  pop\n  dup2\n  swap1\n  sstore\n  pop\n    /* \"contracts/MyToken_flattened.sol\":17569:17994  if (to == address(0)) {... */\n  jump(tag_40)\ntag_39:\n    /* \"contracts/MyToken_flattened.sol\":17964:17969  value */\n  dup1\n    /* \"contracts/MyToken_flattened.sol\":17947:17956  _balances */\n  0x00\n    /* \"contracts/MyToken_flattened.sol\":17947:17960  _balances[to] */\n  0x00\n    /* \"contracts/MyToken_flattened.sol\":17957:17959  to */\n  dup5\n    /* \"contracts/MyToken_flattened.sol\":17947:17960  _balances[to] */\n  0xffffffffffffffffffffffffffffffffffffffff\n  and\n  0xffffffffffffffffffffffffffffffffffffffff\n  and\n  dup2\n  mstore\n  0x20\n  add\n  swap1\n  dup2\n  mstore\n  0x20\n  add\n  0x00\n  keccak256\n  0x00\n    /* \"contracts/MyToken_flattened.sol\":17947:17969  _balances[to] += value */\n  dup3\n  dup3\n  sload\n  add\n  swap3\n  pop\n  pop\n  dup2\n  swap1\n  sstore\n  pop\n    /* \"contracts/MyToken_flattened.sol\":17569:17994  if (to == address(0)) {... */\ntag_40:\n    /* \"contracts/MyToken_flattened.sol\":18024:18026  to */\n  dup2\n    /* \"contracts/MyToken_flattened.sol\":18009:18034  Transfer(from, to, value) */\n  0xffffffffffffffffffffffffffffffffffffffff\n  and\n    /* \"contracts/MyToken_flattened.sol\":18018:18022  from */\n  dup4\n    /* \"contracts/MyToken_flattened.sol\":18009:18034  Transfer(from, to, value) */\n  0xffffffffffffffffffffffffffffffffffffffff\n  and\n  0xddf252ad1be2c89b69c2b068fc378daa952ba7f163c4a11628f55a4df523b3ef\n    /* \"contracts/MyToken_flattened.sol\":18028:18033  value */\n  dup4\n    /* \"contracts/MyToken_flattened.sol\":18009:18034  Transfer(from, to, value) */\n  mload(0x40)\n  tag_41\n  swap2\n  swap1\n  tag_42\n  jump\t// in\ntag_41:\n  mload(0x40)\n  dup1\n  swap2\n  sub\n  swap1\n  log3\n    /* \"contracts/MyToken_flattened.sol\":16934:18041  function _update(address from, address to, uint256 value) internal virtual {... */\n  pop\n  pop\n  pop\n  jump\t// out\n    /* \"#utility.yul\":7:106   */\ntag_43:\n    /* \"#utility.yul\":59:65   */\n  0x00\n    /* \"#utility.yul\":93:98   */\n  dup2\n    /* \"#utility.yul\":87:99   */\n  mload\n    /* \"#utility.yul\":77:99   */\n  swap1\n  pop\n    /* \"#utility.yul\":7:106   */\n  swap2\n  swap1\n  pop\n  jump\t// out\n    /* \"#utility.yul\":112:292   */\ntag_44:\n    /* \"#utility.yul\":160:237   */\n  0x4e487b7100000000000000000000000000000000000000000000000000000000\n    /* \"#utility.yul\":157:158   */\n  0x00\n    /* \"#utility.yul\":150:238   */\n  mstore\n    /* \"#utility.yul\":257:261   */\n  0x41\n    /* \"#utility.yul\":254:255   */\n  0x04\n    /* \"#utility.yul\":247:262   */\n  mstore\n    /* \"#utility.yul\":281:285   */\n  0x24\n    /* \"#utility.yul\":278:279   */\n  0x00\n    /* \"#utility.yul\":271:286   */\n  revert\n    /* \"#utility.yul\":298:478   */\ntag_45:\n    /* \"#utility.yul\":346:423   */\n  0x4e487b7100000000000000000000000000000000000000000000000000000000\n    /* \"#utility.yul\":343:344   */\n  0x00\n    /* \"#utility.yul\":336:424   */\n  mstore\n    /* \"#utility.yul\":443:447   */\n  0x22\n    /* \"#utility.yul\":440:441   */\n  0x04\n    /* \"#utility.yul\":433:448   */\n  mstore\n    /* \"#utility.yul\":467:471   */\n  0x24\n    /* \"#utility.yul\":464:465   */\n  0x00\n    /* \"#utility.yul\":457:472   */\n  revert\n    /* \"#utility.yul\":484:804   */\ntag_46:\n    /* \"#utility.yul\":528:534   */\n  0x00\n    /* \"#utility.yul\":565:566   */\n  0x02\n    /* \"#utility.yul\":559:563   */\n  dup3\n    /* \"#utility.yul\":555:567   */\n  div\n    /* \"#utility.yul\":545:567   */\n  swap1\n  pop\n    /* \"#utility.yul\":612:613   */\n  0x01\n    /* \"#utility.yul\":606:610   */\n  dup3\n    /* \"#utility.yul\":602:614   */\n  and\n    /* \"#utility.yul\":633:651   */\n  dup1\n    /* \"#utility.yul\":623:704   */\n  tag_76\n  jumpi\n    /* \"#utility.yul\":689:693   */\n  0x7f\n    /* \"#utility.yul\":681:687   */\n  dup3\n    /* \"#utility.yul\":677:694   */\n  and\n    /* \"#utility.yul\":667:694   */\n  swap2\n  pop\n    /* \"#utility.yul\":623:704   */\ntag_76:\n    /* \"#utility.yul\":751:753   */\n  0x20\n    /* \"#utility.yul\":743:749   */\n  dup3\n    /* \"#utility.yul\":740:754   */\n  lt\n    /* \"#utility.yul\":720:738   */\n  dup2\n    /* \"#utility.yul\":717:755   */\n  sub\n    /* \"#utility.yul\":714:798   */\n  tag_77\n  jumpi\n    /* \"#utility.yul\":770:788   */\n  tag_78\n  tag_45\n  jump\t// in\ntag_78:\n    /* \"#utility.yul\":714:798   */\ntag_77:\n    /* \"#utility.yul\":535:804   */\n  pop\n    /* \"#utility.yul\":484:804   */\n  swap2\n  swap1\n  pop\n  jump\t// out\n    /* \"#utility.yul\":810:951   */\ntag_47:\n    /* \"#utility.yul\":859:863   */\n  0x00\n    /* \"#utility.yul\":882:885   */\n  dup2\n    /* \"#utility.yul\":874:885   */\n  swap1\n  pop\n    /* \"#utility.yul\":905:908   */\n  dup2\n    /* \"#utility.yul\":902:903   */\n  0x00\n    /* \"#utility.yul\":895:909   */\n  mstore\n    /* \"#utility.yul\":939:943   */\n  0x20\n    /* \"#utility.yul\":936:937   */\n  0x00\n    /* \"#utility.yul\":926:944   */\n  keccak256\n    /* \"#utility.yul\":918:944   */\n  swap1\n  pop\n    /* \"#utility.yul\":810:951   */\n  swap2\n  swap1\n  pop\n  jump\t// out\n    /* \"#utility.yul\":957:1050   */\ntag_48:\n    /* \"#utility.yul\":994:1000   */\n  0x00\n    /* \"#utility.yul\":1041:1043   */\n  0x20\n    /* \"#utility.yul\":1036:1038   */\n  0x1f\n    /* \"#utility.yul\":1029:1034   */\n  dup4\n    /* \"#utility.yul\":1025:1039   */\n  add\n    /* \"#utility.yul\":1021:1044   */\n  div\n    /* \"#utility.yul\":1011:1044   */\n  swap1\n  pop\n    /* \"#utility.yul\":957:1050   */\n  swap2\n  swap1\n  pop\n  jump\t// out\n    /* \"#utility.yul\":1056:1163   */\ntag_49:\n    /* \"#utility.yul\":1100:1108   */\n  0x00\n    /* \"#utility.yul\":1150:1155   */\n  dup3\n    /* \"#utility.yul\":1144:1148   */\n  dup3\n    /* \"#utility.yul\":1140:1156   */\n  shl\n    /* \"#utility.yul\":1119:1156   */\n  swap1\n  pop\n    /* \"#utility.yul\":1056:1163   */\n  swap3\n  swap2\n  pop\n  pop\n  jump\t// out\n    /* \"#utility.yul\":1169:1562   */\ntag_50:\n    /* \"#utility.yul\":1238:1244   */\n  0x00\n    /* \"#utility.yul\":1288:1289   */\n  0x08\n    /* \"#utility.yul\":1276:1286   */\n  dup4\n    /* \"#utility.yul\":1272:1290   */\n  mul\n    /* \"#utility.yul\":1311:1408   */\n  tag_83\n    /* \"#utility.yul\":1341:1407   */\n  0xffffffffffffffffffffffffffffffffffffffffffffffffffffffffffffffff\n    /* \"#utility.yul\":1330:1339   */\n  dup3\n    /* \"#utility.yul\":1311:1408   */\n  tag_49\n  jump\t// in\ntag_83:\n    /* \"#utility.yul\":1429:1468   */\n  tag_84\n    /* \"#utility.yul\":1459:1467   */\n  dup7\n    /* \"#utility.yul\":1448:1457   */\n  dup4\n    /* \"#utility.yul\":1429:1468   */\n  tag_49\n  jump\t// in\ntag_84:\n    /* \"#utility.yul\":1417:1468   */\n  swap6\n  pop\n    /* \"#utility.yul\":1501:1505   */\n  dup1\n    /* \"#utility.yul\":1497:1506   */\n  not\n    /* \"#utility.yul\":1490:1495   */\n  dup5\n    /* \"#utility.yul\":1486:1507   */\n  and\n    /* \"#utility.yul\":1477:1507   */\n  swap4\n  pop\n    /* \"#utility.yul\":1550:1554   */\n  dup1\n    /* \"#utility.yul\":1540:1548   */\n  dup7\n    /* \"#utility.yul\":1536:1555   */\n  and\n    /* \"#utility.yul\":1529:1534   */\n  dup5\n    /* \"#utility.yul\":1526:1556   */\n  or\n    /* \"#utility.yul\":1516:1556   */\n  swap3\n  pop\n    /* \"#utility.yul\":1245:1562   */\n  pop\n  pop\n    /* \"#utility.yul\":1169:1562   */\n  swap4\n  swap3\n  pop\n  pop\n  pop\n  jump\t// out\n    /* \"#utility.yul\":1568:1645   */\ntag_51:\n    /* \"#utility.yul\":1605:1612   */\n  0x00\n    /* \"#utility.yul\":1634:1639   */\n  dup2\n    /* \"#utility.yul\":1623:1639   */\n  swap1\n  pop\n    /* \"#utility.yul\":1568:1645   */\n  swap2\n  swap1\n  pop\n  jump\t// out\n    /* \"#utility.yul\":1651:1711   */\ntag_52:\n    /* \"#utility.yul\":1679:1682   */\n  0x00\n    /* \"#utility.yul\":1700:1705   */\n  dup2\n    /* \"#utility.yul\":1693:1705   */\n  swap1\n  pop\n    /* \"#utility.yul\":1651:1711   */\n  swap2\n  swap1\n  pop\n  jump\t// out\n    /* \"#utility.yul\":1717:1859   */\ntag_53:\n    /* \"#utility.yul\":1767:1776   */\n  0x00\n    /* \"#utility.yul\":1800:1853   */\n  tag_88\n    /* \"#utility.yul\":1818:1852   */\n  tag_89\n    /* \"#utility.yul\":1827:1851   */\n  tag_90\n    /* \"#utility.yul\":1845:1850   */\n  dup5\n    /* \"#utility.yul\":1827:1851   */\n  tag_51\n  jump\t// in\ntag_90:\n    /* \"#utility.yul\":1818:1852   */\n  tag_52\n  jump\t// in\ntag_89:\n    /* \"#utility.yul\":1800:1853   */\n  tag_51\n  jump\t// in\ntag_88:\n    /* \"#utility.yul\":1787:1853   */\n  swap1\n  pop\n    /* \"#utility.yul\":1717:1859   */\n  swap2\n  swap1\n  pop\n  jump\t// out\n    /* \"#utility.yul\":1865:1940   */\ntag_54:\n    /* \"#utility.yul\":1908:1911   */\n  0x00\n    /* \"#utility.yul\":1929:1934   */\n  dup2\n    /* \"#utility.yul\":1922:1934   */\n  swap1\n  pop\n    /* \"#utility.yul\":1865:1940   */\n  swap2\n  swap1\n  pop\n  jump\t// out\n    /* \"#utility.yul\":1946:2215   */\ntag_55:\n    /* \"#utility.yul\":2056:2095   */\n  tag_93\n    /* \"#utility.yul\":2087:2094   */\n  dup4\n    /* \"#utility.yul\":2056:2095   */\n  tag_53\n  jump\t// in\ntag_93:\n    /* \"#utility.yul\":2117:2208   */\n  tag_94\n    /* \"#utility.yul\":2166:2207   */\n  tag_95\n    /* \"#utility.yul\":2190:2206   */\n  dup3\n    /* \"#utility.yul\":2166:2207   */\n  tag_54\n  jump\t// in\ntag_95:\n    /* \"#utility.yul\":2158:2164   */\n  dup5\n    /* \"#utility.yul\":2151:2155   */\n  dup5\n    /* \"#utility.yul\":2145:2156   */\n  sload\n    /* \"#utility.yul\":2117:2208   */\n  tag_50\n  jump\t// in\ntag_94:\n    /* \"#utility.yul\":2111:2115   */\n  dup3\n    /* \"#utility.yul\":2104:2209   */\n  sstore\n    /* \"#utility.yul\":2022:2215   */\n  pop\n    /* \"#utility.yul\":1946:2215   */\n  pop\n  pop\n  pop\n  jump\t// out\n    /* \"#utility.yul\":2221:2294   */\ntag_56:\n    /* \"#utility.yul\":2266:2269   */\n  0x00\n    /* \"#utility.yul\":2287:2288   */\n  0x00\n    /* \"#utility.yul\":2280:2288   */\n  swap1\n  pop\n    /* \"#utility.yul\":2221:2294   */\n  swap1\n  jump\t// out\n    /* \"#utility.yul\":2300:2489   */\ntag_57:\n    /* \"#utility.yul\":2377:2409   */\n  tag_98\n  tag_56\n  jump\t// in\ntag_98:\n    /* \"#utility.yul\":2418:2483   */\n  tag_99\n    /* \"#utility.yul\":2476:2482   */\n  dup2\n    /* \"#utility.yul\":2468:2474   */\n  dup5\n    /* \"#utility.yul\":2462:2466   */\n  dup5\n    /* \"#utility.yul\":2418:2483   */\n  tag_55\n  jump\t// in\ntag_99:\n    /* \"#utility.yul\":2353:2489   */\n  pop\n    /* \"#utility.yul\":2300:2489   */\n  pop\n  pop\n  jump\t// out\n    /* \"#utility.yul\":2495:2681   */\ntag_58:\n    /* \"#utility.yul\":2555:2675   */\ntag_101:\n    /* \"#utility.yul\":2572:2575   */\n  dup2\n    /* \"#utility.yul\":2565:2570   */\n  dup2\n    /* \"#utility.yul\":2562:2576   */\n  lt\n    /* \"#utility.yul\":2555:2675   */\n  iszero\n  tag_103\n  jumpi\n    /* \"#utility.yul\":2626:2665   */\n  tag_104\n    /* \"#utility.yul\":2663:2664   */\n  0x00\n    /* \"#utility.yul\":2656:2661   */\n  dup3\n    /* \"#utility.yul\":2626:2665   */\n  tag_57\n  jump\t// in\ntag_104:\n    /* \"#utility.yul\":2599:2600   */\n  0x01\n    /* \"#utility.yul\":2592:2597   */\n  dup2\n    /* \"#utility.yul\":2588:2601   */\n  add\n    /* \"#utility.yul\":2579:2601   */\n  swap1\n  pop\n    /* \"#utility.yul\":2555:2675   */\n  jump(tag_101)\ntag_103:\n    /* \"#utility.yul\":2495:2681   */\n  pop\n  pop\n  jump\t// out\n    /* \"#utility.yul\":2687:3230   */\ntag_59:\n    /* \"#utility.yul\":2788:2790   */\n  0x1f\n    /* \"#utility.yul\":2783:2786   */\n  dup3\n    /* \"#utility.yul\":2780:2791   */\n  gt\n    /* \"#utility.yul\":2777:3223   */\n  iszero\n  tag_106\n  jumpi\n    /* \"#utility.yul\":2822:2860   */\n  tag_107\n    /* \"#utility.yul\":2854:2859   */\n  dup2\n    /* \"#utility.yul\":2822:2860   */\n  tag_47\n  jump\t// in\ntag_107:\n    /* \"#utility.yul\":2906:2935   */\n  tag_108\n    /* \"#utility.yul\":2924:2934   */\n  dup5\n    /* \"#utility.yul\":2906:2935   */\n  tag_48\n  jump\t// in\ntag_108:\n    /* \"#utility.yul\":2896:2904   */\n  dup2\n    /* \"#utility.yul\":2892:2936   */\n  add\n    /* \"#utility.yul\":3089:3091   */\n  0x20\n    /* \"#utility.yul\":3077:3087   */\n  dup6\n    /* \"#utility.yul\":3074:3092   */\n  lt\n    /* \"#utility.yul\":3071:3120   */\n  iszero\n  tag_109\n  jumpi\n    /* \"#utility.yul\":3110:3118   */\n  dup2\n    /* \"#utility.yul\":3095:3118   */\n  swap1\n  pop\n    /* \"#utility.yul\":3071:3120   */\ntag_109:\n    /* \"#utility.yul\":3133:3213   */\n  tag_110\n    /* \"#utility.yul\":3189:3211   */\n  tag_111\n    /* \"#utility.yul\":3207:3210   */\n  dup6\n    /* \"#utility.yul\":3189:3211   */\n  tag_48\n  jump\t// in\ntag_111:\n    /* \"#utility.yul\":3179:3187   */\n  dup4\n    /* \"#utility.yul\":3175:3212   */\n  add\n    /* \"#utility.yul\":3162:3173   */\n  dup3\n    /* \"#utility.yul\":3133:3213   */\n  tag_58\n  jump\t// in\ntag_110:\n    /* \"#utility.yul\":2792:3223   */\n  pop\n  pop\n    /* \"#utility.yul\":2777:3223   */\ntag_106:\n    /* \"#utility.yul\":2687:3230   */\n  pop\n  pop\n  pop\n  jump\t// out\n    /* \"#utility.yul\":3236:3353   */\ntag_60:\n    /* \"#utility.yul\":3290:3298   */\n  0x00\n    /* \"#utility.yul\":3340:3345   */\n  dup3\n    /* \"#utility.yul\":3334:3338   */\n  dup3\n    /* \"#utility.yul\":3330:3346   */\n  shr\n    /* \"#utility.yul\":3309:3346   */\n  swap1\n  pop\n    /* \"#utility.yul\":3236:3353   */\n  swap3\n  swap2\n  pop\n  pop\n  jump\t// out\n    /* \"#utility.yul\":3359:3528   */\ntag_61:\n    /* \"#utility.yul\":3403:3409   */\n  0x00\n    /* \"#utility.yul\":3436:3487   */\n  tag_114\n    /* \"#utility.yul\":3484:3485   */\n  0x00\n    /* \"#utility.yul\":3480:3486   */\n  not\n    /* \"#utility.yul\":3472:3477   */\n  dup5\n    /* \"#utility.yul\":3469:3470   */\n  0x08\n    /* \"#utility.yul\":3465:3478   */\n  mul\n    /* \"#utility.yul\":3436:3487   */\n  tag_60\n  jump\t// in\ntag_114:\n    /* \"#utility.yul\":3432:3488   */\n  not\n    /* \"#utility.yul\":3517:3521   */\n  dup1\n    /* \"#utility.yul\":3511:3515   */\n  dup4\n    /* \"#utility.yul\":3507:3522   */\n  and\n    /* \"#utility.yul\":3497:3522   */\n  swap2\n  pop\n    /* \"#utility.yul\":3410:3528   */\n  pop\n    /* \"#utility.yul\":3359:3528   */\n  swap3\n  swap2\n  pop\n  pop\n  jump\t// out\n    /* \"#utility.yul\":3533:3828   */\ntag_62:\n    /* \"#utility.yul\":3609:3613   */\n  0x00\n    /* \"#utility.yul\":3755:3784   */\n  tag_116\n    /* \"#utility.yul\":3780:3783   */\n  dup4\n    /* \"#utility.yul\":3774:3778   */\n  dup4\n    /* \"#utility.yul\":3755:3784   */\n  tag_61\n  jump\t// in\ntag_116:\n    /* \"#utility.yul\":3747:3784   */\n  swap2\n  pop\n    /* \"#utility.yul\":3817:3820   */\n  dup3\n    /* \"#utility.yul\":3814:3815   */\n  0x02\n    /* \"#utility.yul\":3810:3821   */\n  mul\n    /* \"#utility.yul\":3804:3808   */\n  dup3\n    /* \"#utility.yul\":3801:3822   */\n  or\n    /* \"#utility.yul\":3793:3822   */\n  swap1\n  pop\n    /* \"#utility.yul\":3533:3828   */\n  swap3\n  swap2\n  pop\n  pop\n  jump\t// out\n    /* \"#utility.yul\":3833:5228   */\ntag_8:\n    /* \"#utility.yul\":3950:3987   */\n  tag_118\n    /* \"#utility.yul\":3983:3986   */\n  dup3\n    /* \"#utility.yul\":3950:3987   */\n  tag_43\n  jump\t// in\ntag_118:\n    /* \"#utility.yul\":4052:4070   */\n  0xffffffffffffffff\n    /* \"#utility.yul\":4044:4050   */\n  dup2\n    /* \"#utility.yul\":4041:4071   */\n  gt\n    /* \"#utility.yul\":4038:4094   */\n  iszero\n  tag_119\n  jumpi\n    /* \"#utility.yul\":4074:4092   */\n  tag_120\n  tag_44\n  jump\t// in\ntag_120:\n    /* \"#utility.yul\":4038:4094   */\ntag_119:\n    /* \"#utility.yul\":4118:4156   */\n  tag_121\n    /* \"#utility.yul\":4150:4154   */\n  dup3\n    /* \"#utility.yul\":4144:4155   */\n  sload\n    /* \"#utility.yul\":4118:4156   */\n  tag_46\n  jump\t// in\ntag_121:\n    /* \"#utility.yul\":4203:4270   */\n  tag_122\n    /* \"#utility.yul\":4263:4269   */\n  dup3\n    /* \"#utility.yul\":4255:4261   */\n  dup3\n    /* \"#utility.yul\":4249:4253   */\n  dup6\n    /* \"#utility.yul\":4203:4270   */\n  tag_59\n  jump\t// in\ntag_122:\n    /* \"#utility.yul\":4297:4298   */\n  0x00\n    /* \"#utility.yul\":4321:4325   */\n  0x20\n    /* \"#utility.yul\":4308:4325   */\n  swap1\n  pop\n    /* \"#utility.yul\":4353:4355   */\n  0x1f\n    /* \"#utility.yul\":4345:4351   */\n  dup4\n    /* \"#utility.yul\":4342:4356   */\n  gt\n    /* \"#utility.yul\":4370:4371   */\n  0x01\n    /* \"#utility.yul\":4365:4983   */\n  dup2\n  eq\n  tag_124\n  jumpi\n    /* \"#utility.yul\":5027:5028   */\n  0x00\n    /* \"#utility.yul\":5044:5050   */\n  dup5\n    /* \"#utility.yul\":5041:5118   */\n  iszero\n  tag_125\n  jumpi\n    /* \"#utility.yul\":5093:5102   */\n  dup3\n    /* \"#utility.yul\":5088:5091   */\n  dup8\n    /* \"#utility.yul\":5084:5103   */\n  add\n    /* \"#utility.yul\":5078:5104   */\n  mload\n    /* \"#utility.yul\":5069:5104   */\n  swap1\n  pop\n    /* \"#utility.yul\":5041:5118   */\ntag_125:\n    /* \"#utility.yul\":5144:5211   */\n  tag_126\n    /* \"#utility.yul\":5204:5210   */\n  dup6\n    /* \"#utility.yul\":5197:5202   */\n  dup3\n    /* \"#utility.yul\":5144:5211   */\n  tag_62\n  jump\t// in\ntag_126:\n    /* \"#utility.yul\":5138:5142   */\n  dup7\n    /* \"#utility.yul\":5131:5212   */\n  sstore\n    /* \"#utility.yul\":5000:5222   */\n  pop\n    /* \"#utility.yul\":4335:5222   */\n  jump(tag_123)\n    /* \"#utility.yul\":4365:4983   */\ntag_124:\n    /* \"#utility.yul\":4417:4421   */\n  0x1f\n    /* \"#utility.yul\":4413:4422   */\n  not\n    /* \"#utility.yul\":4405:4411   */\n  dup5\n    /* \"#utility.yul\":4401:4423   */\n  and\n    /* \"#utility.yul\":4451:4488   */\n  tag_127\n    /* \"#utility.yul\":4483:4487   */\n  dup7\n    /* \"#utility.yul\":4451:4488   */\n  tag_47\n  jump\t// in\ntag_127:\n    /* \"#utility.yul\":4510:4511   */\n  0x00\n    /* \"#utility.yul\":4524:4732   */\ntag_128:\n    /* \"#utility.yul\":4538:4545   */\n  dup3\n    /* \"#utility.yul\":4535:4536   */\n  dup2\n    /* \"#utility.yul\":4532:4546   */\n  lt\n    /* \"#utility.yul\":4524:4732   */\n  iszero\n  tag_130\n  jumpi\n    /* \"#utility.yul\":4617:4626   */\n  dup5\n    /* \"#utility.yul\":4612:4615   */\n  dup10\n    /* \"#utility.yul\":4608:4627   */\n  add\n    /* \"#utility.yul\":4602:4628   */\n  mload\n    /* \"#utility.yul\":4594:4600   */\n  dup3\n    /* \"#utility.yul\":4587:4629   */\n  sstore\n    /* \"#utility.yul\":4668:4669   */\n  0x01\n    /* \"#utility.yul\":4660:4666   */\n  dup3\n    /* \"#utility.yul\":4656:4670   */\n  add\n    /* \"#utility.yul\":4646:4670   */\n  swap2\n  pop\n    /* \"#utility.yul\":4715:4717   */\n  0x20\n    /* \"#utility.yul\":4704:4713   */\n  dup6\n    /* \"#utility.yul\":4700:4718   */\n  add\n    /* \"#utility.yul\":4687:4718   */\n  swap5\n  pop\n    /* \"#utility.yul\":4561:4565   */\n  0x20\n    /* \"#utility.yul\":4558:4559   */\n  dup2\n    /* \"#utility.yul\":4554:4566   */\n  add\n    /* \"#utility.yul\":4549:4566   */\n  swap1\n  pop\n    /* \"#utility.yul\":4524:4732   */\n  jump(tag_128)\ntag_130:\n    /* \"#utility.yul\":4760:4766   */\n  dup7\n    /* \"#utility.yul\":4751:4758   */\n  dup4\n    /* \"#utility.yul\":4748:4767   */\n  lt\n    /* \"#utility.yul\":4745:4924   */\n  iszero\n  tag_131\n  jumpi\n    /* \"#utility.yul\":4818:4827   */\n  dup5\n    /* \"#utility.yul\":4813:4816   */\n  dup10\n    /* \"#utility.yul\":4809:4828   */\n  add\n    /* \"#utility.yul\":4803:4829   */\n  mload\n    /* \"#utility.yul\":4861:4909   */\n  tag_132\n    /* \"#utility.yul\":4903:4907   */\n  0x1f\n    /* \"#utility.yul\":4895:4901   */\n  dup10\n    /* \"#utility.yul\":4891:4908   */\n  and\n    /* \"#utility.yul\":4880:4889   */\n  dup3\n    /* \"#utility.yul\":4861:4909   */\n  tag_61\n  jump\t// in\ntag_132:\n    /* \"#utility.yul\":4853:4859   */\n  dup4\n    /* \"#utility.yul\":4846:4910   */\n  sstore\n    /* \"#utility.yul\":4768:4924   */\n  pop\n    /* \"#utility.yul\":4745:4924   */\ntag_131:\n    /* \"#utility.yul\":4970:4971   */\n  0x01\n    /* \"#utility.yul\":4966:4967   */\n  0x02\n    /* \"#utility.yul\":4958:4964   */\n  dup9\n    /* \"#utility.yul\":4954:4968   */\n  mul\n    /* \"#utility.yul\":4950:4972   */\n  add\n    /* \"#utility.yul\":4944:4948   */\n  dup9\n    /* \"#utility.yul\":4937:4973   */\n  sstore\n    /* \"#utility.yul\":4372:4983   */\n  pop\n  pop\n  pop\n    /* \"#utility.yul\":4335:5222   */\ntag_123:\n  pop\n    /* \"#utility.yul\":3925:5228   */\n  pop\n  pop\n  pop\n    /* \"#utility.yul\":3833:5228   */\n  pop\n  pop\n  jump\t// out\n    /* \"#utility.yul\":5234:5360   */\ntag_63:\n    /* \"#utility.yul\":5271:5278   */\n  0x00\n    /* \"#utility.yul\":5311:5353   */\n  0xffffffffffffffffffffffffffffffffffffffff\n    /* \"#utility.yul\":5304:5309   */\n  dup3\n    /* \"#utility.yul\":5300:5354   */\n  and\n    /* \"#utility.yul\":5289:5354   */\n  swap1\n  pop\n    /* \"#utility.yul\":5234:5360   */\n  swap2\n  swap1\n  pop\n  jump\t// out\n    /* \"#utility.yul\":5366:5462   */\ntag_64:\n    /* \"#utility.yul\":5403:5410   */\n  0x00\n    /* \"#utility.yul\":5432:5456   */\n  tag_135\n    /* \"#utility.yul\":5450:5455   */\n  dup3\n    /* \"#utility.yul\":5432:5456   */\n  tag_63\n  jump\t// in\ntag_135:\n    /* \"#utility.yul\":5421:5456   */\n  swap1\n  pop\n    /* \"#utility.yul\":5366:5462   */\n  swap2\n  swap1\n  pop\n  jump\t// out\n    /* \"#utility.yul\":5468:5586   */\ntag_65:\n    /* \"#utility.yul\":5555:5579   */\n  tag_137\n    /* \"#utility.yul\":5573:5578   */\n  dup2\n    /* \"#utility.yul\":5555:5579   */\n  tag_64\n  jump\t// in\ntag_137:\n    /* \"#utility.yul\":5550:5553   */\n  dup3\n    /* \"#utility.yul\":5543:5580   */\n  mstore\n    /* \"#utility.yul\":5468:5586   */\n  pop\n  pop\n  jump\t// out\n    /* \"#utility.yul\":5592:5814   */\ntag_13:\n    /* \"#utility.yul\":5685:5689   */\n  0x00\n    /* \"#utility.yul\":5723:5725   */\n  0x20\n    /* \"#utility.yul\":5712:5721   */\n  dup3\n    /* \"#utility.yul\":5708:5726   */\n  add\n    /* \"#utility.yul\":5700:5726   */\n  swap1\n  pop\n    /* \"#utility.yul\":5736:5807   */\n  tag_139\n    /* \"#utility.yul\":5804:5805   */\n  0x00\n    /* \"#utility.yul\":5793:5802   */\n  dup4\n    /* \"#utility.yul\":5789:5806   */\n  add\n    /* \"#utility.yul\":5780:5786   */\n  dup5\n    /* \"#utility.yul\":5736:5807   */\n  tag_65\n  jump\t// in\ntag_139:\n    /* \"#utility.yul\":5592:5814   */\n  swap3\n  swap2\n  pop\n  pop\n  jump\t// out\n    /* \"#utility.yul\":5820:6000   */\ntag_66:\n    /* \"#utility.yul\":5868:5945   */\n  0x4e487b7100000000000000000000000000000000000000000000000000000000\n    /* \"#utility.yul\":5865:5866   */\n  0x00\n    /* \"#utility.yul\":5858:5946   */\n  mstore\n    /* \"#utility.yul\":5965:5969   */\n  0x11\n    /* \"#utility.yul\":5962:5963   */\n  0x04\n    /* \"#utility.yul\":5955:5970   */\n  mstore\n    /* \"#utility.yul\":5989:5993   */\n  0x24\n    /* \"#utility.yul\":5986:5987   */\n  0x00\n    /* \"#utility.yul\":5979:5994   */\n  revert\n    /* \"#utility.yul\":6006:6108   */\ntag_67:\n    /* \"#utility.yul\":6048:6056   */\n  0x00\n    /* \"#utility.yul\":6095:6100   */\n  dup2\n    /* \"#utility.yul\":6092:6093   */\n  0x01\n    /* \"#utility.yul\":6088:6101   */\n  shr\n    /* \"#utility.yul\":6067:6101   */\n  swap1\n  pop\n    /* \"#utility.yul\":6006:6108   */\n  swap2\n  swap1\n  pop\n  jump\t// out\n    /* \"#utility.yul\":6114:6962   */\ntag_68:\n    /* \"#utility.yul\":6175:6180   */\n  0x00\n    /* \"#utility.yul\":6182:6186   */\n  0x00\n    /* \"#utility.yul\":6206:6212   */\n  dup3\n    /* \"#utility.yul\":6197:6212   */\n  swap2\n  pop\n    /* \"#utility.yul\":6230:6235   */\n  dup4\n    /* \"#utility.yul\":6221:6235   */\n  swap1\n  pop\n    /* \"#utility.yul\":6244:6956   */\ntag_143:\n    /* \"#utility.yul\":6265:6266   */\n  0x01\n    /* \"#utility.yul\":6255:6263   */\n  dup6\n    /* \"#utility.yul\":6252:6267   */\n  gt\n    /* \"#utility.yul\":6244:6956   */\n  iszero\n  tag_145\n  jumpi\n    /* \"#utility.yul\":6360:6364   */\n  dup1\n    /* \"#utility.yul\":6355:6358   */\n  dup7\n    /* \"#utility.yul\":6351:6365   */\n  div\n    /* \"#utility.yul\":6345:6349   */\n  dup2\n    /* \"#utility.yul\":6342:6366   */\n  gt\n    /* \"#utility.yul\":6339:6389   */\n  iszero\n  tag_146\n  jumpi\n    /* \"#utility.yul\":6369:6387   */\n  tag_147\n  tag_66\n  jump\t// in\ntag_147:\n    /* \"#utility.yul\":6339:6389   */\ntag_146:\n    /* \"#utility.yul\":6419:6420   */\n  0x01\n    /* \"#utility.yul\":6409:6417   */\n  dup6\n    /* \"#utility.yul\":6405:6421   */\n  and\n    /* \"#utility.yul\":6402:6853   */\n  iszero\n  tag_148\n  jumpi\n    /* \"#utility.yul\":6834:6838   */\n  dup1\n    /* \"#utility.yul\":6827:6832   */\n  dup3\n    /* \"#utility.yul\":6823:6839   */\n  mul\n    /* \"#utility.yul\":6814:6839   */\n  swap2\n  pop\n    /* \"#utility.yul\":6402:6853   */\ntag_148:\n    /* \"#utility.yul\":6884:6888   */\n  dup1\n    /* \"#utility.yul\":6878:6882   */\n  dup2\n    /* \"#utility.yul\":6874:6889   */\n  mul\n    /* \"#utility.yul\":6866:6889   */\n  swap1\n  pop\n    /* \"#utility.yul\":6914:6946   */\n  tag_149\n    /* \"#utility.yul\":6937:6945   */\n  dup6\n    /* \"#utility.yul\":6914:6946   */\n  tag_67\n  jump\t// in\ntag_149:\n    /* \"#utility.yul\":6902:6946   */\n  swap5\n  pop\n    /* \"#utility.yul\":6244:6956   */\n  jump(tag_143)\ntag_145:\n    /* \"#utility.yul\":6114:6962   */\n  swap5\n  pop\n  swap5\n  swap3\n  pop\n  pop\n  pop\n  jump\t// out\n    /* \"#utility.yul\":6968:8041   */\ntag_69:\n    /* \"#utility.yul\":7022:7027   */\n  0x00\n    /* \"#utility.yul\":7213:7221   */\n  dup3\n    /* \"#utility.yul\":7203:7243   */\n  tag_151\n  jumpi\n    /* \"#utility.yul\":7234:7235   */\n  0x01\n    /* \"#utility.yul\":7225:7235   */\n  swap1\n  pop\n    /* \"#utility.yul\":7236:7241   */\n  jump(tag_150)\n    /* \"#utility.yul\":7203:7243   */\ntag_151:\n    /* \"#utility.yul\":7262:7266   */\n  dup2\n    /* \"#utility.yul\":7252:7288   */\n  tag_152\n  jumpi\n    /* \"#utility.yul\":7279:7280   */\n  0x00\n    /* \"#utility.yul\":7270:7280   */\n  swap1\n  pop\n    /* \"#utility.yul\":7281:7286   */\n  jump(tag_150)\n    /* \"#utility.yul\":7252:7288   */\ntag_152:\n    /* \"#utility.yul\":7348:7352   */\n  dup2\n    /* \"#utility.yul\":7396:7397   */\n  0x01\n    /* \"#utility.yul\":7391:7418   */\n  dup2\n  eq\n  tag_154\n  jumpi\n    /* \"#utility.yul\":7432:7433   */\n  0x02\n    /* \"#utility.yul\":7427:7618   */\n  dup2\n  eq\n  tag_155\n  jumpi\n    /* \"#utility.yul\":7341:7618   */\n  jump(tag_153)\n    /* \"#utility.yul\":7391:7418   */\ntag_154:\n    /* \"#utility.yul\":7409:7410   */\n  0x01\n    /* \"#utility.yul\":7400:7410   */\n  swap2\n  pop\n    /* \"#utility.yul\":7411:7416   */\n  pop\n  jump(tag_150)\n    /* \"#utility.yul\":7427:7618   */\ntag_155:\n    /* \"#utility.yul\":7472:7475   */\n  0xff\n    /* \"#utility.yul\":7462:7470   */\n  dup5\n    /* \"#utility.yul\":7459:7476   */\n  gt\n    /* \"#utility.yul\":7456:7499   */\n  iszero\n  tag_156\n  jumpi\n    /* \"#utility.yul\":7479:7497   */\n  tag_157\n  tag_66\n  jump\t// in\ntag_157:\n    /* \"#utility.yul\":7456:7499   */\ntag_156:\n    /* \"#utility.yul\":7528:7536   */\n  dup4\n    /* \"#utility.yul\":7525:7526   */\n  0x02\n    /* \"#utility.yul\":7521:7537   */\n  exp\n    /* \"#utility.yul\":7512:7537   */\n  swap2\n  pop\n    /* \"#utility.yul\":7563:7566   */\n  dup5\n    /* \"#utility.yul\":7556:7561   */\n  dup3\n    /* \"#utility.yul\":7553:7567   */\n  gt\n    /* \"#utility.yul\":7550:7590   */\n  iszero\n  tag_158\n  jumpi\n    /* \"#utility.yul\":7570:7588   */\n  tag_159\n  tag_66\n  jump\t// in\ntag_159:\n    /* \"#utility.yul\":7550:7590   */\ntag_158:\n    /* \"#utility.yul\":7603:7608   */\n  pop\n  jump(tag_150)\n    /* \"#utility.yul\":7341:7618   */\ntag_153:\n  pop\n    /* \"#utility.yul\":7727:7729   */\n  0x20\n    /* \"#utility.yul\":7717:7725   */\n  dup4\n    /* \"#utility.yul\":7714:7730   */\n  lt\n    /* \"#utility.yul\":7708:7711   */\n  0x0133\n    /* \"#utility.yul\":7702:7706   */\n  dup4\n    /* \"#utility.yul\":7699:7712   */\n  lt\n    /* \"#utility.yul\":7695:7731   */\n  and\n    /* \"#utility.yul\":7677:7679   */\n  0x4e\n    /* \"#utility.yul\":7667:7675   */\n  dup5\n    /* \"#utility.yul\":7664:7680   */\n  lt\n    /* \"#utility.yul\":7659:7661   */\n  0x0b\n    /* \"#utility.yul\":7653:7657   */\n  dup5\n    /* \"#utility.yul\":7650:7662   */\n  lt\n    /* \"#utility.yul\":7646:7681   */\n  and\n    /* \"#utility.yul\":7630:7741   */\n  or\n    /* \"#utility.yul\":7627:7873   */\n  iszero\n  tag_160\n  jumpi\n    /* \"#utility.yul\":7783:7791   */\n  dup3\n    /* \"#utility.yul\":7777:7781   */\n  dup3\n    /* \"#utility.yul\":7773:7792   */\n  exp\n    /* \"#utility.yul\":7764:7792   */\n  swap1\n  pop\n    /* \"#utility.yul\":7818:7821   */\n  dup4\n    /* \"#utility.yul\":7811:7816   */\n  dup2\n    /* \"#utility.yul\":7808:7822   */\n  gt\n    /* \"#utility.yul\":7805:7845   */\n  iszero\n  tag_161\n  jumpi\n    /* \"#utility.yul\":7825:7843   */\n  tag_162\n  tag_66\n  jump\t// in\ntag_162:\n    /* \"#utility.yul\":7805:7845   */\ntag_161:\n    /* \"#utility.yul\":7858:7863   */\n  jump(tag_150)\n    /* \"#utility.yul\":7627:7873   */\ntag_160:\n    /* \"#utility.yul\":7898:7940   */\n  tag_163\n    /* \"#utility.yul\":7936:7939   */\n  dup5\n    /* \"#utility.yul\":7926:7934   */\n  dup5\n    /* \"#utility.yul\":7920:7924   */\n  dup5\n    /* \"#utility.yul\":7917:7918   */\n  0x01\n    /* \"#utility.yul\":7898:7940   */\n  tag_68\n  jump\t// in\ntag_163:\n    /* \"#utility.yul\":7883:7940   */\n  swap3\n  pop\n  swap1\n  pop\n    /* \"#utility.yul\":7972:7976   */\n  dup2\n    /* \"#utility.yul\":7967:7970   */\n  dup5\n    /* \"#utility.yul\":7963:7977   */\n  div\n    /* \"#utility.yul\":7956:7961   */\n  dup2\n    /* \"#utility.yul\":7953:7978   */\n  gt\n    /* \"#utility.yul\":7950:8001   */\n  iszero\n  tag_164\n  jumpi\n    /* \"#utility.yul\":7981:7999   */\n  tag_165\n  tag_66\n  jump\t// in\ntag_165:\n    /* \"#utility.yul\":7950:8001   */\ntag_164:\n    /* \"#utility.yul\":8030:8034   */\n  dup2\n    /* \"#utility.yul\":8023:8028   */\n  dup2\n    /* \"#utility.yul\":8019:8035   */\n  mul\n    /* \"#utility.yul\":8010:8035   */\n  swap1\n  pop\n    /* \"#utility.yul\":6968:8041   */\ntag_150:\n  swap4\n  swap3\n  pop\n  pop\n  pop\n  jump\t// out\n    /* \"#utility.yul\":8047:8332   */\ntag_20:\n    /* \"#utility.yul\":8107:8112   */\n  0x00\n    /* \"#utility.yul\":8131:8154   */\n  tag_167\n    /* \"#utility.yul\":8149:8153   */\n  dup3\n    /* \"#utility.yul\":8131:8154   */\n  tag_51\n  jump\t// in\ntag_167:\n    /* \"#utility.yul\":8123:8154   */\n  swap2\n  pop\n    /* \"#utility.yul\":8175:8202   */\n  tag_168\n    /* \"#utility.yul\":8193:8201   */\n  dup4\n    /* \"#utility.yul\":8175:8202   */\n  tag_51\n  jump\t// in\ntag_168:\n    /* \"#utility.yul\":8163:8202   */\n  swap3\n  pop\n    /* \"#utility.yul\":8221:8325   */\n  tag_169\n    /* \"#utility.yul\":8258:8324   */\n  0xffffffffffffffffffffffffffffffffffffffffffffffffffffffffffffffff\n    /* \"#utility.yul\":8248:8256   */\n  dup5\n    /* \"#utility.yul\":8242:8246   */\n  dup5\n    /* \"#utility.yul\":8221:8325   */\n  tag_69\n  jump\t// in\ntag_169:\n    /* \"#utility.yul\":8212:8325   */\n  swap1\n  pop\n    /* \"#utility.yul\":8047:8332   */\n  swap3\n  swap2\n  pop\n  pop\n  jump\t// out\n    /* \"#utility.yul\":8338:8748   */\ntag_22:\n    /* \"#utility.yul\":8378:8385   */\n  0x00\n    /* \"#utility.yul\":8401:8421   */\n  tag_171\n    /* \"#utility.yul\":8419:8420   */\n  dup3\n    /* \"#utility.yul\":8401:8421   */\n  tag_51\n  jump\t// in\ntag_171:\n    /* \"#utility.yul\":8396:8421   */\n  swap2\n  pop\n    /* \"#utility.yul\":8435:8455   */\n  tag_172\n    /* \"#utility.yul\":8453:8454   */\n  dup4\n    /* \"#utility.yul\":8435:8455   */\n  tag_51\n  jump\t// in\ntag_172:\n    /* \"#utility.yul\":8430:8455   */\n  swap3\n  pop\n    /* \"#utility.yul\":8490:8491   */\n  dup3\n    /* \"#utility.yul\":8487:8488   */\n  dup3\n    /* \"#utility.yul\":8483:8492   */\n  mul\n    /* \"#utility.yul\":8512:8542   */\n  tag_173\n    /* \"#utility.yul\":8530:8541   */\n  dup2\n    /* \"#utility.yul\":8512:8542   */\n  tag_51\n  jump\t// in\ntag_173:\n    /* \"#utility.yul\":8501:8542   */\n  swap2\n  pop\n    /* \"#utility.yul\":8691:8692   */\n  dup3\n    /* \"#utility.yul\":8682:8689   */\n  dup3\n    /* \"#utility.yul\":8678:8693   */\n  div\n    /* \"#utility.yul\":8675:8676   */\n  dup5\n    /* \"#utility.yul\":8672:8694   */\n  eq\n    /* \"#utility.yul\":8652:8653   */\n  dup4\n    /* \"#utility.yul\":8645:8654   */\n  iszero\n    /* \"#utility.yul\":8625:8708   */\n  or\n    /* \"#utility.yul\":8602:8741   */\n  tag_174\n  jumpi\n    /* \"#utility.yul\":8721:8739   */\n  tag_175\n  tag_66\n  jump\t// in\ntag_175:\n    /* \"#utility.yul\":8602:8741   */\ntag_174:\n    /* \"#utility.yul\":8386:8748   */\n  pop\n    /* \"#utility.yul\":8338:8748   */\n  swap3\n  swap2\n  pop\n  pop\n  jump\t// out\n    /* \"#utility.yul\":8754:8945   */\ntag_34:\n    /* \"#utility.yul\":8794:8797   */\n  0x00\n    /* \"#utility.yul\":8813:8833   */\n  tag_177\n    /* \"#utility.yul\":8831:8832   */\n  dup3\n    /* \"#utility.yul\":8813:8833   */\n  tag_51\n  jump\t// in\ntag_177:\n    /* \"#utility.yul\":8808:8833   */\n  swap2\n  pop\n    /* \"#utility.yul\":8847:8867   */\n  tag_178\n    /* \"#utility.yul\":8865:8866   */\n  dup4\n    /* \"#utility.yul\":8847:8867   */\n  tag_51\n  jump\t// in\ntag_178:\n    /* \"#utility.yul\":8842:8867   */\n  swap3\n  pop\n    /* \"#utility.yul\":8890:8891   */\n  dup3\n    /* \"#utility.yul\":8887:8888   */\n  dup3\n    /* \"#utility.yul\":8883:8892   */\n  add\n    /* \"#utility.yul\":8876:8892   */\n  swap1\n  pop\n    /* \"#utility.yul\":8911:8914   */\n  dup1\n    /* \"#utility.yul\":8908:8909   */\n  dup3\n    /* \"#utility.yul\":8905:8915   */\n  gt\n    /* \"#utility.yul\":8902:8938   */\n  iszero\n  tag_179\n  jumpi\n    /* \"#utility.yul\":8918:8936   */\n  tag_180\n  tag_66\n  jump\t// in\ntag_180:\n    /* \"#utility.yul\":8902:8938   */\ntag_179:\n    /* \"#utility.yul\":8754:8945   */\n  swap3\n  swap2\n  pop\n  pop\n  jump\t// out\n    /* \"#utility.yul\":8951:9069   */\ntag_70:\n    /* \"#utility.yul\":9038:9062   */\n  tag_182\n    /* \"#utility.yul\":9056:9061   */\n  dup2\n    /* \"#utility.yul\":9038:9062   */\n  tag_51\n  jump\t// in\ntag_182:\n    /* \"#utility.yul\":9033:9036   */\n  dup3\n    /* \"#utility.yul\":9026:9063   */\n  mstore\n    /* \"#utility.yul\":8951:9069   */\n  pop\n  pop\n  jump\t// out\n    /* \"#utility.yul\":9075:9517   */\ntag_38:\n    /* \"#utility.yul\":9224:9228   */\n  0x00\n    /* \"#utility.yul\":9262:9264   */\n  0x60\n    /* \"#utility.yul\":9251:9260   */\n  dup3\n    /* \"#utility.yul\":9247:9265   */\n  add\n    /* \"#utility.yul\":9239:9265   */\n  swap1\n  pop\n    /* \"#utility.yul\":9275:9346   */\n  tag_184\n    /* \"#utility.yul\":9343:9344   */\n  0x00\n    /* \"#utility.yul\":9332:9341   */\n  dup4\n    /* \"#utility.yul\":9328:9345   */\n  add\n    /* \"#utility.yul\":9319:9325   */\n  dup7\n    /* \"#utility.yul\":9275:9346   */\n  tag_65\n  jump\t// in\ntag_184:\n    /* \"#utility.yul\":9356:9428   */\n  tag_185\n    /* \"#utility.yul\":9424:9426   */\n  0x20\n    /* \"#utility.yul\":9413:9422   */\n  dup4\n    /* \"#utility.yul\":9409:9427   */\n  add\n    /* \"#utility.yul\":9400:9406   */\n  dup6\n    /* \"#utility.yul\":9356:9428   */\n  tag_70\n  jump\t// in\ntag_185:\n    /* \"#utility.yul\":9438:9510   */\n  tag_186\n    /* \"#utility.yul\":9506:9508   */\n  0x40\n    /* \"#utility.yul\":9495:9504   */\n  dup4\n    /* \"#utility.yul\":9491:9509   */\n  add\n    /* \"#utility.yul\":9482:9488   */\n  dup5\n    /* \"#utility.yul\":9438:9510   */\n  tag_70\n  jump\t// in\ntag_186:\n    /* \"#utility.yul\":9075:9517   */\n  swap5\n  swap4\n  pop\n  pop\n  pop\n  pop\n  jump\t// out\n    /* \"#utility.yul\":9523:9745   */\ntag_42:\n    /* \"#utility.yul\":9616:9620   */\n  0x00\n    /* \"#utility.yul\":9654:9656   */\n  0x20\n    /* \"#utility.yul\":9643:9652   */\n  dup3\n    /* \"#utility.yul\":9639:9657   */\n  add\n    /* \"#utility.yul\":9631:9657   */\n  swap1\n  pop\n    /* \"#utility.yul\":9667:9738   */\n  tag_188\n    /* \"#utility.yul\":9735:9736   */\n  0x00\n    /* \"#utility.yul\":9724:9733   */\n  dup4\n    /* \"#utility.yul\":9720:9737   */\n  add\n    /* \"#utility.yul\":9711:9717   */\n  dup5\n    /* \"#utility.yul\":9667:9738   */\n  tag_70\n  jump\t// in\ntag_188:\n    /* \"#utility.yul\":9523:9745   */\n  swap3\n  swap2\n  pop\n  pop\n  jump\t// out\n    /* \"contracts/MyToken_flattened.sol\":27588:28975  contract CustomToken is ERC20, Ownable, Pausable {... */\ntag_24:\n  dataSize(sub_0)\n  dup1\n  dataOffset(sub_0)\n  0x00\n  codecopy\n  0x00\n  return\nstop\n\nsub_0: assembly {\n        /* \"contracts/MyToken_flattened.sol\":27588:28975  contract CustomToken is ERC20, Ownable, Pausable {... */\n      mstore(0x40, 0x80)\n      callvalue\n      dup1\n      iszero\n      tag_1\n      jumpi\n      revert(0x00, 0x00)\n    tag_1:\n      pop\n      jumpi(tag_2, lt(calldatasize, 0x04))\n      shr(0xe0, calldataload(0x00))\n      dup1\n      0x70a08231\n      gt\n      tag_21\n      jumpi\n      dup1\n      0x8da5cb5b\n      gt\n      tag_22\n      jumpi\n      dup1\n      0x8da5cb5b\n      eq\n      tag_16\n      jumpi\n      dup1\n      0x95d89b41\n      eq\n      tag_17\n      jumpi\n      dup1\n      0xa9059cbb\n      eq\n      tag_18\n      jumpi\n      dup1\n      0xdd62ed3e\n      eq\n      tag_19\n      jumpi\n      dup1\n      0xf2fde38b\n      eq\n      tag_20\n      jumpi\n      jump(tag_2)\n    tag_22:\n      dup1\n      0x70a08231\n      eq\n      tag_12\n      jumpi\n      dup1\n      0x715018a6\n      eq\n      tag_13\n      jumpi\n      dup1\n      0x79cc6790\n      eq\n      tag_14\n      jumpi\n      dup1\n      0x8456cb59\n      eq\n      tag_15\n      jumpi\n      jump(tag_2)\n    tag_21:\n      dup1\n      0x313ce567\n      gt\n      tag_23\n      jumpi\n      dup1\n      0x313ce567\n      eq\n      tag_7\n      jumpi\n      dup1\n      0x3f4ba83a\n      eq\n      tag_8\n      jumpi\n      dup1\n      0x40c10f19\n      eq\n      tag_9\n      jumpi\n      dup1\n      0x42966c68\n      eq\n      tag_10\n      jumpi\n      dup1\n      0x5c975abb\n      eq\n      tag_11\n      jumpi\n      jump(tag_2)\n    tag_23:\n      dup1\n      0x06fdde03\n      eq\n      tag_3\n      jumpi\n      dup1\n      0x095ea7b3\n      eq\n      tag_4\n      jumpi\n      dup1\n      0x18160ddd\n      eq\n      tag_5\n      jumpi\n      dup1\n      0x23b872dd\n      eq\n      tag_6\n      jumpi\n    tag_2:\n      revert(0x00, 0x00)\n        /* \"contracts/MyToken_flattened.sol\":12705:12794  function name() public view virtual returns (string memory) {... */\n    tag_3:\n      tag_24\n      tag_25\n      jump\t// in\n    tag_24:\n      mload(0x40)\n      tag_26\n      swap2\n      swap1\n      tag_27\n      jump\t// in\n    tag_26:\n      mload(0x40)\n      dup1\n      swap2\n      sub\n      swap1\n      return\n        /* \"contracts/MyToken_flattened.sol\":14924:15110  function approve(address spender, uint256 value) public virtual returns (bool) {... */\n    tag_4:\n      tag_28\n      0x04\n      dup1\n      calldatasize\n      sub\n      dup2\n      add\n      swap1\n      tag_29\n      swap2\n      swap1\n      tag_30\n      jump\t// in\n    tag_29:\n      tag_31\n      jump\t// in\n    tag_28:\n      mload(0x40)\n      tag_32\n      swap2\n      swap1\n      tag_33\n      jump\t// in\n    tag_32:\n      mload(0x40)\n      dup1\n      swap2\n      sub\n      swap1\n      return\n        /* \"contracts/MyToken_flattened.sol\":13775:13872  function totalSupply() public view virtual returns (uint256) {... */\n    tag_5:\n      tag_34\n      tag_35\n      jump\t// in\n    tag_34:\n      mload(0x40)\n      tag_36\n      swap2\n      swap1\n      tag_37\n      jump\t// in\n    tag_36:\n      mload(0x40)\n      dup1\n      swap2\n      sub\n      swap1\n      return\n        /* \"contracts/MyToken_flattened.sol\":15702:15946  function transferFrom(address from, address to, uint256 value) public virtual returns (bool) {... */\n    tag_6:\n      tag_38\n      0x04\n      dup1\n      calldatasize\n      sub\n      dup2\n      add\n      swap1\n      tag_39\n      swap2\n      swap1\n      tag_40\n      jump\t// in\n    tag_39:\n      tag_41\n      jump\t// in\n    tag_38:\n      mload(0x40)\n      tag_42\n      swap2\n      swap1\n      tag_33\n      jump\t// in\n    tag_42:\n      mload(0x40)\n      dup1\n      swap2\n      sub\n      swap1\n      return\n        /* \"contracts/MyToken_flattened.sol\":27910:28008  function decimals() public view virtual override returns (uint8) {... */\n    tag_7:\n      tag_43\n      tag_44\n      jump\t// in\n    tag_43:\n      mload(0x40)\n      tag_45\n      swap2\n      swap1\n      tag_46\n      jump\t// in\n    tag_45:\n      mload(0x40)\n      dup1\n      swap2\n      sub\n      swap1\n      return\n        /* \"contracts/MyToken_flattened.sol\":28910:28973  function unpause() public onlyOwner {... */\n    tag_8:\n      tag_47\n      tag_48\n      jump\t// in\n    tag_47:\n      stop\n        /* \"contracts/MyToken_flattened.sol\":28070:28163  function mint(address to, uint256 amount) public onlyOwner {... */\n    tag_9:\n      tag_49\n      0x04\n      dup1\n      calldatasize\n      sub\n      dup2\n      add\n      swap1\n      tag_50\n      swap2\n      swap1\n      tag_30\n      jump\t// in\n    tag_50:\n      tag_51\n      jump\t// in\n    tag_49:\n      stop\n        /* \"contracts/MyToken_flattened.sol\":28226:28305  function burn(uint256 amount) public {... */\n    tag_10:\n      tag_52\n      0x04\n      dup1\n      calldatasize\n      sub\n      dup2\n      add\n      swap1\n      tag_53\n      swap2\n      swap1\n      tag_54\n      jump\t// in\n    tag_53:\n      tag_55\n      jump\t// in\n    tag_52:\n      stop\n        /* \"contracts/MyToken_flattened.sol\":26510:26594  function paused() public view virtual returns (bool) {... */\n    tag_11:\n      tag_56\n      tag_57\n      jump\t// in\n    tag_56:\n      mload(0x40)\n      tag_58\n      swap2\n      swap1\n      tag_33\n      jump\t// in\n    tag_58:\n      mload(0x40)\n      dup1\n      swap2\n      sub\n      swap1\n      return\n        /* \"contracts/MyToken_flattened.sol\":13930:14046  function balanceOf(address account) public view virtual returns (uint256) {... */\n    tag_12:\n      tag_59\n      0x04\n      dup1\n      calldatasize\n      sub\n      dup2\n      add\n      swap1\n      tag_60\n      swap2\n      swap1\n      tag_61\n      jump\t// in\n    tag_60:\n      tag_62\n      jump\t// in\n    tag_59:\n      mload(0x40)\n      tag_63\n      swap2\n      swap1\n      tag_37\n      jump\t// in\n    tag_63:\n      mload(0x40)\n      dup1\n      swap2\n      sub\n      swap1\n      return\n        /* \"contracts/MyToken_flattened.sol\":24091:24192  function renounceOwnership() public virtual onlyOwner {... */\n    tag_13:\n      tag_64\n      tag_65\n      jump\t// in\n    tag_64:\n      stop\n        /* \"contracts/MyToken_flattened.sol\":28387:28705  function burnFrom(address account, uint256 amount) public onlyOwner {... */\n    tag_14:\n      tag_66\n      0x04\n      dup1\n      calldatasize\n      sub\n      dup2\n      add\n      swap1\n      tag_67\n      swap2\n      swap1\n      tag_30\n      jump\t// in\n    tag_67:\n      tag_68\n      jump\t// in\n    tag_66:\n      stop\n        /* \"contracts/MyToken_flattened.sol\":28777:28836  function pause() public onlyOwner {... */\n    tag_15:\n      tag_69\n      tag_70\n      jump\t// in\n    tag_69:\n      stop\n        /* \"contracts/MyToken_flattened.sol\":23436:23521  function owner() public view virtual returns (address) {... */\n    tag_16:\n      tag_71\n      tag_72\n      jump\t// in\n    tag_71:\n      mload(0x40)\n      tag_73\n      swap2\n      swap1\n      tag_74\n      jump\t// in\n    tag_73:\n      mload(0x40)\n      dup1\n      swap2\n      sub\n      swap1\n      return\n        /* \"contracts/MyToken_flattened.sol\":12907:13000  function symbol() public view virtual returns (string memory) {... */\n    tag_17:\n      tag_75\n      tag_76\n      jump\t// in\n    tag_75:\n      mload(0x40)\n      tag_77\n      swap2\n      swap1\n      tag_27\n      jump\t// in\n    tag_77:\n      mload(0x40)\n      dup1\n      swap2\n      sub\n      swap1\n      return\n        /* \"contracts/MyToken_flattened.sol\":14241:14419  function transfer(address to, uint256 value) public virtual returns (bool) {... */\n    tag_18:\n      tag_78\n      0x04\n      dup1\n      calldatasize\n      sub\n      dup2\n      add\n      swap1\n      tag_79\n      swap2\n      swap1\n      tag_30\n      jump\t// in\n    tag_79:\n      tag_80\n      jump\t// in\n    tag_78:\n      mload(0x40)\n      tag_81\n      swap2\n      swap1\n      tag_33\n      jump\t// in\n    tag_81:\n      mload(0x40)\n      dup1\n      swap2\n      sub\n      swap1\n      return\n        /* \"contracts/MyToken_flattened.sol\":14477:14617  function allowance(address owner, address spender) public view virtual returns (uint256) {... */\n    tag_19:\n      tag_82\n      0x04\n      dup1\n      calldatasize\n      sub\n      dup2\n      add\n      swap1\n      tag_83\n      swap2\n      swap1\n      tag_84\n      jump\t// in\n    tag_83:\n      tag_85\n      jump\t// in\n    tag_82:\n      mload(0x40)\n      tag_86\n      swap2\n      swap1\n      tag_37\n      jump\t// in\n    tag_86:\n      mload(0x40)\n      dup1\n      swap2\n      sub\n      swap1\n      return\n        /* \"contracts/MyToken_flattened.sol\":24341:24556  function transferOwnership(address newOwner) public virtual onlyOwner {... */\n    tag_20:\n      tag_87\n      0x04\n      dup1\n      calldatasize\n      sub\n      dup2\n      add\n      swap1\n      tag_88\n      swap2\n      swap1\n      tag_61\n      jump\t// in\n    tag_88:\n      tag_89\n      jump\t// in\n    tag_87:\n      stop\n        /* \"contracts/MyToken_flattened.sol\":12705:12794  function name() public view virtual returns (string memory) {... */\n    tag_25:\n        /* \"contracts/MyToken_flattened.sol\":12750:12763  string memory */\n      0x60\n        /* \"contracts/MyToken_flattened.sol\":12782:12787  _name */\n      0x03\n        /* \"contracts/MyToken_flattened.sol\":12775:12787  return _name */\n      dup1\n      sload\n      tag_91\n      swap1\n      tag_92\n      jump\t// in\n    tag_91:\n      dup1\n      0x1f\n      add\n      0x20\n      dup1\n      swap2\n      div\n      mul\n      0x20\n      add\n      mload(0x40)\n      swap1\n      dup2\n      add\n      0x40\n      mstore\n      dup1\n      swap3\n      swap2\n      swap1\n      dup2\n      dup2\n      mstore\n      0x20\n      add\n      dup3\n      dup1\n      sload\n      tag_93\n      swap1\n      tag_92\n      jump\t// in\n    tag_93:\n      dup1\n      iszero\n      tag_94\n      jumpi\n      dup1\n      0x1f\n      lt\n      tag_95\n      jumpi\n      0x0100\n      dup1\n      dup4\n      sload\n      div\n      mul\n      dup4\n      mstore\n      swap2\n      0x20\n      add\n      swap2\n      jump(tag_94)\n    tag_95:\n      dup3\n      add\n      swap2\n      swap1\n      0x00\n      mstore\n      keccak256(0x00, 0x20)\n      swap1\n    tag_96:\n      dup2\n      sload\n      dup2\n      mstore\n      swap1\n      0x01\n      add\n      swap1\n      0x20\n      add\n      dup1\n      dup4\n      gt\n      tag_96\n      jumpi\n      dup3\n      swap1\n      sub\n      0x1f\n      and\n      dup3\n      add\n      swap2\n    tag_94:\n      pop\n      pop\n      pop\n      pop\n      pop\n      swap1\n      pop\n        /* \"contracts/MyToken_flattened.sol\":12705:12794  function name() public view virtual returns (string memory) {... */\n      swap1\n      jump\t// out\n        /* \"contracts/MyToken_flattened.sol\":14924:15110  function approve(address spender, uint256 value) public virtual returns (bool) {... */\n    tag_31:\n        /* \"contracts/MyToken_flattened.sol\":14997:15001  bool */\n      0x00\n        /* \"contracts/MyToken_flattened.sol\":15013:15026  address owner */\n      0x00\n        /* \"contracts/MyToken_flattened.sol\":15029:15041  _msgSender() */\n      tag_98\n        /* \"contracts/MyToken_flattened.sol\":15029:15039  _msgSender */\n      tag_99\n        /* \"contracts/MyToken_flattened.sol\":15029:15041  _msgSender() */\n      jump\t// in\n    tag_98:\n        /* \"contracts/MyToken_flattened.sol\":15013:15041  address owner = _msgSender() */\n      swap1\n      pop\n        /* \"contracts/MyToken_flattened.sol\":15051:15082  _approve(owner, spender, value) */\n      tag_100\n        /* \"contracts/MyToken_flattened.sol\":15060:15065  owner */\n      dup2\n        /* \"contracts/MyToken_flattened.sol\":15067:15074  spender */\n      dup6\n        /* \"contracts/MyToken_flattened.sol\":15076:15081  value */\n      dup6\n        /* \"contracts/MyToken_flattened.sol\":15051:15059  _approve */\n      tag_101\n        /* \"contracts/MyToken_flattened.sol\":15051:15082  _approve(owner, spender, value) */\n      jump\t// in\n    tag_100:\n        /* \"contracts/MyToken_flattened.sol\":15099:15103  true */\n      0x01\n        /* \"contracts/MyToken_flattened.sol\":15092:15103  return true */\n      swap2\n      pop\n      pop\n        /* \"contracts/MyToken_flattened.sol\":14924:15110  function approve(address spender, uint256 value) public virtual returns (bool) {... */\n      swap3\n      swap2\n      pop\n      pop\n      jump\t// out\n        /* \"contracts/MyToken_flattened.sol\":13775:13872  function totalSupply() public view virtual returns (uint256) {... */\n    tag_35:\n        /* \"contracts/MyToken_flattened.sol\":13827:13834  uint256 */\n      0x00\n        /* \"contracts/MyToken_flattened.sol\":13853:13865  _totalSupply */\n      sload(0x02)\n        /* \"contracts/MyToken_flattened.sol\":13846:13865  return _totalSupply */\n      swap1\n      pop\n        /* \"contracts/MyToken_flattened.sol\":13775:13872  function totalSupply() public view virtual returns (uint256) {... */\n      swap1\n      jump\t// out\n        /* \"contracts/MyToken_flattened.sol\":15702:15946  function transferFrom(address from, address to, uint256 value) public virtual returns (bool) {... */\n    tag_41:\n        /* \"contracts/MyToken_flattened.sol\":15789:15793  bool */\n      0x00\n        /* \"contracts/MyToken_flattened.sol\":15805:15820  address spender */\n      0x00\n        /* \"contracts/MyToken_flattened.sol\":15823:15835  _msgSender() */\n      tag_104\n        /* \"contracts/MyToken_flattened.sol\":15823:15833  _msgSender */\n      tag_99\n        /* \"contracts/MyToken_flattened.sol\":15823:15835  _msgSender() */\n      jump\t// in\n    tag_104:\n        /* \"contracts/MyToken_flattened.sol\":15805:15835  address spender = _msgSender() */\n      swap1\n      pop\n        /* \"contracts/MyToken_flattened.sol\":15845:15882  _spendAllowance(from, spender, value) */\n      tag_105\n        /* \"contracts/MyToken_flattened.sol\":15861:15865  from */\n      dup6\n        /* \"contracts/MyToken_flattened.sol\":15867:15874  spender */\n      dup3\n        /* \"contracts/MyToken_flattened.sol\":15876:15881  value */\n      dup6\n        /* \"contracts/MyToken_flattened.sol\":15845:15860  _spendAllowance */\n      tag_106\n        /* \"contracts/MyToken_flattened.sol\":15845:15882  _spendAllowance(from, spender, value) */\n      jump\t// in\n    tag_105:\n        /* \"contracts/MyToken_flattened.sol\":15892:15918  _transfer(from, to, value) */\n      tag_107\n        /* \"contracts/MyToken_flattened.sol\":15902:15906  from */\n      dup6\n        /* \"contracts/MyToken_flattened.sol\":15908:15910  to */\n      dup6\n        /* \"contracts/MyToken_flattened.sol\":15912:15917  value */\n      dup6\n        /* \"contracts/MyToken_flattened.sol\":15892:15901  _transfer */\n      tag_108\n        /* \"contracts/MyToken_flattened.sol\":15892:15918  _transfer(from, to, value) */\n      jump\t// in\n    tag_107:\n        /* \"contracts/MyToken_flattened.sol\":15935:15939  true */\n      0x01\n        /* \"contracts/MyToken_flattened.sol\":15928:15939  return true */\n      swap2\n      pop\n      pop\n        /* \"contracts/MyToken_flattened.sol\":15702:15946  function transferFrom(address from, address to, uint256 value) public virtual returns (bool) {... */\n      swap4\n      swap3\n      pop\n      pop\n      pop\n      jump\t// out\n        /* \"contracts/MyToken_flattened.sol\":27910:28008  function decimals() public view virtual override returns (uint8) {... */\n    tag_44:\n        /* \"contracts/MyToken_flattened.sol\":27968:27973  uint8 */\n      0x00\n        /* \"contracts/MyToken_flattened.sol\":27992:28001  _decimals */\n      0x05\n      0x15\n      swap1\n      sload\n      swap1\n      0x0100\n      exp\n      swap1\n      div\n      0xff\n      and\n        /* \"contracts/MyToken_flattened.sol\":27985:28001  return _decimals */\n      swap1\n      pop\n        /* \"contracts/MyToken_flattened.sol\":27910:28008  function decimals() public view virtual override returns (uint8) {... */\n      swap1\n      jump\t// out\n        /* \"contracts/MyToken_flattened.sol\":28910:28973  function unpause() public onlyOwner {... */\n    tag_48:\n        /* \"contracts/MyToken_flattened.sol\":23329:23342  _checkOwner() */\n      tag_111\n        /* \"contracts/MyToken_flattened.sol\":23329:23340  _checkOwner */\n      tag_112\n        /* \"contracts/MyToken_flattened.sol\":23329:23342  _checkOwner() */\n      jump\t// in\n    tag_111:\n        /* \"contracts/MyToken_flattened.sol\":28956:28966  _unpause() */\n      tag_114\n        /* \"contracts/MyToken_flattened.sol\":28956:28964  _unpause */\n      tag_115\n        /* \"contracts/MyToken_flattened.sol\":28956:28966  _unpause() */\n      jump\t// in\n    tag_114:\n        /* \"contracts/MyToken_flattened.sol\":28910:28973  function unpause() public onlyOwner {... */\n      jump\t// out\n        /* \"contracts/MyToken_flattened.sol\":28070:28163  function mint(address to, uint256 amount) public onlyOwner {... */\n    tag_51:\n        /* \"contracts/MyToken_flattened.sol\":23329:23342  _checkOwner() */\n      tag_117\n        /* \"contracts/MyToken_flattened.sol\":23329:23340  _checkOwner */\n      tag_112\n        /* \"contracts/MyToken_flattened.sol\":23329:23342  _checkOwner() */\n      jump\t// in\n    tag_117:\n        /* \"contracts/MyToken_flattened.sol\":28139:28156  _mint(to, amount) */\n      tag_119\n        /* \"contracts/MyToken_flattened.sol\":28145:28147  to */\n      dup3\n        /* \"contracts/MyToken_flattened.sol\":28149:28155  amount */\n      dup3\n        /* \"contracts/MyToken_flattened.sol\":28139:28144  _mint */\n      tag_120\n        /* \"contracts/MyToken_flattened.sol\":28139:28156  _mint(to, amount) */\n      jump\t// in\n    tag_119:\n        /* \"contracts/MyToken_flattened.sol\":28070:28163  function mint(address to, uint256 amount) public onlyOwner {... */\n      pop\n      pop\n      jump\t// out\n        /* \"contracts/MyToken_flattened.sol\":28226:28305  function burn(uint256 amount) public {... */\n    tag_55:\n        /* \"contracts/MyToken_flattened.sol\":28273:28298  _burn(msg.sender, amount) */\n      tag_122\n        /* \"contracts/MyToken_flattened.sol\":28279:28289  msg.sender */\n      caller\n        /* \"contracts/MyToken_flattened.sol\":28291:28297  amount */\n      dup3\n        /* \"contracts/MyToken_flattened.sol\":28273:28278  _burn */\n      tag_123\n        /* \"contracts/MyToken_flattened.sol\":28273:28298  _burn(msg.sender, amount) */\n      jump\t// in\n    tag_122:\n        /* \"contracts/MyToken_flattened.sol\":28226:28305  function burn(uint256 amount) public {... */\n      pop\n      jump\t// out\n        /* \"contracts/MyToken_flattened.sol\":26510:26594  function paused() public view virtual returns (bool) {... */\n    tag_57:\n        /* \"contracts/MyToken_flattened.sol\":26557:26561  bool */\n      0x00\n        /* \"contracts/MyToken_flattened.sol\":26580:26587  _paused */\n      0x05\n      0x14\n      swap1\n      sload\n      swap1\n      0x0100\n      exp\n      swap1\n      div\n      0xff\n      and\n        /* \"contracts/MyToken_flattened.sol\":26573:26587  return _paused */\n      swap1\n      pop\n        /* \"contracts/MyToken_flattened.sol\":26510:26594  function paused() public view virtual returns (bool) {... */\n      swap1\n      jump\t// out\n        /* \"contracts/MyToken_flattened.sol\":13930:14046  function balanceOf(address account) public view virtual returns (uint256) {... */\n    tag_62:\n        /* \"contracts/MyToken_flattened.sol\":13995:14002  uint256 */\n      0x00\n        /* \"contracts/MyToken_flattened.sol\":14021:14030  _balances */\n      0x00\n        /* \"contracts/MyToken_flattened.sol\":14021:14039  _balances[account] */\n      0x00\n        /* \"contracts/MyToken_flattened.sol\":14031:14038  account */\n      dup4\n        /* \"contracts/MyToken_flattened.sol\":14021:14039  _balances[account] */\n      0xffffffffffffffffffffffffffffffffffffffff\n      and\n      0xffffffffffffffffffffffffffffffffffffffff\n      and\n      dup2\n      mstore\n      0x20\n      add\n      swap1\n      dup2\n      mstore\n      0x20\n      add\n      0x00\n      keccak256\n      sload\n        /* \"contracts/MyToken_flattened.sol\":14014:14039  return _balances[account] */\n      swap1\n      pop\n        /* \"contracts/MyToken_flattened.sol\":13930:14046  function balanceOf(address account) public view virtual returns (uint256) {... */\n      swap2\n      swap1\n      pop\n      jump\t// out\n        /* \"contracts/MyToken_flattened.sol\":24091:24192  function renounceOwnership() public virtual onlyOwner {... */\n    tag_65:\n        /* \"contracts/MyToken_flattened.sol\":23329:23342  _checkOwner() */\n      tag_127\n        /* \"contracts/MyToken_flattened.sol\":23329:23340  _checkOwner */\n      tag_112\n        /* \"contracts/MyToken_flattened.sol\":23329:23342  _checkOwner() */\n      jump\t// in\n    tag_127:\n        /* \"contracts/MyToken_flattened.sol\":24155:24185  _transferOwnership(address(0)) */\n      tag_129\n        /* \"contracts/MyToken_flattened.sol\":24182:24183  0 */\n      0x00\n        /* \"contracts/MyToken_flattened.sol\":24155:24173  _transferOwnership */\n      tag_130\n        /* \"contracts/MyToken_flattened.sol\":24155:24185  _transferOwnership(address(0)) */\n      jump\t// in\n    tag_129:\n        /* \"contracts/MyToken_flattened.sol\":24091:24192  function renounceOwnership() public virtual onlyOwner {... */\n      jump\t// out\n        /* \"contracts/MyToken_flattened.sol\":28387:28705  function burnFrom(address account, uint256 amount) public onlyOwner {... */\n    tag_68:\n        /* \"contracts/MyToken_flattened.sol\":23329:23342  _checkOwner() */\n      tag_132\n        /* \"contracts/MyToken_flattened.sol\":23329:23340  _checkOwner */\n      tag_112\n        /* \"contracts/MyToken_flattened.sol\":23329:23342  _checkOwner() */\n      jump\t// in\n    tag_132:\n        /* \"contracts/MyToken_flattened.sol\":28465:28489  uint256 currentAllowance */\n      0x00\n        /* \"contracts/MyToken_flattened.sol\":28492:28522  allowance(account, msg.sender) */\n      tag_134\n        /* \"contracts/MyToken_flattened.sol\":28502:28509  account */\n      dup4\n        /* \"contracts/MyToken_flattened.sol\":28511:28521  msg.sender */\n      caller\n        /* \"contracts/MyToken_flattened.sol\":28492:28501  allowance */\n      tag_85\n        /* \"contracts/MyToken_flattened.sol\":28492:28522  allowance(account, msg.sender) */\n      jump\t// in\n    tag_134:\n        /* \"contracts/MyToken_flattened.sol\":28465:28522  uint256 currentAllowance = allowance(account, msg.sender) */\n      swap1\n      pop\n        /* \"contracts/MyToken_flattened.sol\":28560:28566  amount */\n      dup2\n        /* \"contracts/MyToken_flattened.sol\":28540:28556  currentAllowance */\n      dup2\n        /* \"contracts/MyToken_flattened.sol\":28540:28566  currentAllowance >= amount */\n      lt\n      iszero\n        /* \"contracts/MyToken_flattened.sol\":28532:28600  require(currentAllowance >= amount, \"Burn amount exceeds allowance\") */\n      tag_135\n      jumpi\n      mload(0x40)\n      0x08c379a000000000000000000000000000000000000000000000000000000000\n      dup2\n      mstore\n      0x04\n      add\n      tag_136\n      swap1\n      tag_137\n      jump\t// in\n    tag_136:\n      mload(0x40)\n      dup1\n      swap2\n      sub\n      swap1\n      revert\n    tag_135:\n        /* \"contracts/MyToken_flattened.sol\":28610:28666  _approve(account, msg.sender, currentAllowance - amount) */\n      tag_138\n        /* \"contracts/MyToken_flattened.sol\":28619:28626  account */\n      dup4\n        /* \"contracts/MyToken_flattened.sol\":28628:28638  msg.sender */\n      caller\n        /* \"contracts/MyToken_flattened.sol\":28659:28665  amount */\n      dup5\n        /* \"contracts/MyToken_flattened.sol\":28640:28656  currentAllowance */\n      dup5\n        /* \"contracts/MyToken_flattened.sol\":28640:28665  currentAllowance - amount */\n      tag_139\n      swap2\n      swap1\n      tag_140\n      jump\t// in\n    tag_139:\n        /* \"contracts/MyToken_flattened.sol\":28610:28618  _approve */\n      tag_101\n        /* \"contracts/MyToken_flattened.sol\":28610:28666  _approve(account, msg.sender, currentAllowance - amount) */\n      jump\t// in\n    tag_138:\n        /* \"contracts/MyToken_flattened.sol\":28676:28698  _burn(account, amount) */\n      tag_141\n        /* \"contracts/MyToken_flattened.sol\":28682:28689  account */\n      dup4\n        /* \"contracts/MyToken_flattened.sol\":28691:28697  amount */\n      dup4\n        /* \"contracts/MyToken_flattened.sol\":28676:28681  _burn */\n      tag_123\n        /* \"contracts/MyToken_flattened.sol\":28676:28698  _burn(account, amount) */\n      jump\t// in\n    tag_141:\n        /* \"contracts/MyToken_flattened.sol\":28455:28705  {... */\n      pop\n        /* \"contracts/MyToken_flattened.sol\":28387:28705  function burnFrom(address account, uint256 amount) public onlyOwner {... */\n      pop\n      pop\n      jump\t// out\n        /* \"contracts/MyToken_flattened.sol\":28777:28836  function pause() public onlyOwner {... */\n    tag_70:\n        /* \"contracts/MyToken_flattened.sol\":23329:23342  _checkOwner() */\n      tag_143\n        /* \"contracts/MyToken_flattened.sol\":23329:23340  _checkOwner */\n      tag_112\n        /* \"contracts/MyToken_flattened.sol\":23329:23342  _checkOwner() */\n      jump\t// in\n    tag_143:\n        /* \"contracts/MyToken_flattened.sol\":28821:28829  _pause() */\n      tag_145\n        /* \"contracts/MyToken_flattened.sol\":28821:28827  _pause */\n      tag_146\n        /* \"contracts/MyToken_flattened.sol\":28821:28829  _pause() */\n      jump\t// in\n    tag_145:\n        /* \"contracts/MyToken_flattened.sol\":28777:28836  function pause() public onlyOwner {... */\n      jump\t// out\n        /* \"contracts/MyToken_flattened.sol\":23436:23521  function owner() public view virtual returns (address) {... */\n    tag_72:\n        /* \"contracts/MyToken_flattened.sol\":23482:23489  address */\n      0x00\n        /* \"contracts/MyToken_flattened.sol\":23508:23514  _owner */\n      0x05\n      0x00\n      swap1\n      sload\n      swap1\n      0x0100\n      exp\n      swap1\n      div\n      0xffffffffffffffffffffffffffffffffffffffff\n      and\n        /* \"contracts/MyToken_flattened.sol\":23501:23514  return _owner */\n      swap1\n      pop\n        /* \"contracts/MyToken_flattened.sol\":23436:23521  function owner() public view virtual returns (address) {... */\n      swap1\n      jump\t// out\n        /* \"contracts/MyToken_flattened.sol\":12907:13000  function symbol() public view virtual returns (string memory) {... */\n    tag_76:\n        /* \"contracts/MyToken_flattened.sol\":12954:12967  string memory */\n      0x60\n        /* \"contracts/MyToken_flattened.sol\":12986:12993  _symbol */\n      0x04\n        /* \"contracts/MyToken_flattened.sol\":12979:12993  return _symbol */\n      dup1\n      sload\n      tag_149\n      swap1\n      tag_92\n      jump\t// in\n    tag_149:\n      dup1\n      0x1f\n      add\n      0x20\n      dup1\n      swap2\n      div\n      mul\n      0x20\n      add\n      mload(0x40)\n      swap1\n      dup2\n      add\n      0x40\n      mstore\n      dup1\n      swap3\n      swap2\n      swap1\n      dup2\n      dup2\n      mstore\n      0x20\n      add\n      dup3\n      dup1\n      sload\n      tag_150\n      swap1\n      tag_92\n      jump\t// in\n    tag_150:\n      dup1\n      iszero\n      tag_151\n      jumpi\n      dup1\n      0x1f\n      lt\n      tag_152\n      jumpi\n      0x0100\n      dup1\n      dup4\n      sload\n      div\n      mul\n      dup4\n      mstore\n      swap2\n      0x20\n      add\n      swap2\n      jump(tag_151)\n    tag_152:\n      dup3\n      add\n      swap2\n      swap1\n      0x00\n      mstore\n      keccak256(0x00, 0x20)\n      swap1\n    tag_153:\n      dup2\n      sload\n      dup2\n      mstore\n      swap1\n      0x01\n      add\n      swap1\n      0x20\n      add\n      dup1\n      dup4\n      gt\n      tag_153\n      jumpi\n      dup3\n      swap1\n      sub\n      0x1f\n      and\n      dup3\n      add\n      swap2\n    tag_151:\n      pop\n      pop\n      pop\n      pop\n      pop\n      swap1\n      pop\n        /* \"contracts/MyToken_flattened.sol\":12907:13000  function symbol() public view virtual returns (string memory) {... */\n      swap1\n      jump\t// out\n        /* \"contracts/MyToken_flattened.sol\":14241:14419  function transfer(address to, uint256 value) public virtual returns (bool) {... */\n    tag_80:\n        /* \"contracts/MyToken_flattened.sol\":14310:14314  bool */\n      0x00\n        /* \"contracts/MyToken_flattened.sol\":14326:14339  address owner */\n      0x00\n        /* \"contracts/MyToken_flattened.sol\":14342:14354  _msgSender() */\n      tag_155\n        /* \"contracts/MyToken_flattened.sol\":14342:14352  _msgSender */\n      tag_99\n        /* \"contracts/MyToken_flattened.sol\":14342:14354  _msgSender() */\n      jump\t// in\n    tag_155:\n        /* \"contracts/MyToken_flattened.sol\":14326:14354  address owner = _msgSender() */\n      swap1\n      pop\n        /* \"contracts/MyToken_flattened.sol\":14364:14391  _transfer(owner, to, value) */\n      tag_156\n        /* \"contracts/MyToken_flattened.sol\":14374:14379  owner */\n      dup2\n        /* \"contracts/MyToken_flattened.sol\":14381:14383  to */\n      dup6\n        /* \"contracts/MyToken_flattened.sol\":14385:14390  value */\n      dup6\n        /* \"contracts/MyToken_flattened.sol\":14364:14373  _transfer */\n      tag_108\n        /* \"contracts/MyToken_flattened.sol\":14364:14391  _transfer(owner, to, value) */\n      jump\t// in\n    tag_156:\n        /* \"contracts/MyToken_flattened.sol\":14408:14412  true */\n      0x01\n        /* \"contracts/MyToken_flattened.sol\":14401:14412  return true */\n      swap2\n      pop\n      pop\n        /* \"contracts/MyToken_flattened.sol\":14241:14419  function transfer(address to, uint256 value) public virtual returns (bool) {... */\n      swap3\n      swap2\n      pop\n      pop\n      jump\t// out\n        /* \"contracts/MyToken_flattened.sol\":14477:14617  function allowance(address owner, address spender) public view virtual returns (uint256) {... */\n    tag_85:\n        /* \"contracts/MyToken_flattened.sol\":14557:14564  uint256 */\n      0x00\n        /* \"contracts/MyToken_flattened.sol\":14583:14594  _allowances */\n      0x01\n        /* \"contracts/MyToken_flattened.sol\":14583:14601  _allowances[owner] */\n      0x00\n        /* \"contracts/MyToken_flattened.sol\":14595:14600  owner */\n      dup5\n        /* \"contracts/MyToken_flattened.sol\":14583:14601  _allowances[owner] */\n      0xffffffffffffffffffffffffffffffffffffffff\n      and\n      0xffffffffffffffffffffffffffffffffffffffff\n      and\n      dup2\n      mstore\n      0x20\n      add\n      swap1\n      dup2\n      mstore\n      0x20\n      add\n      0x00\n      keccak256\n        /* \"contracts/MyToken_flattened.sol\":14583:14610  _allowances[owner][spender] */\n      0x00\n        /* \"contracts/MyToken_flattened.sol\":14602:14609  spender */\n      dup4\n        /* \"contracts/MyToken_flattened.sol\":14583:14610  _allowances[owner][spender] */\n      0xffffffffffffffffffffffffffffffffffffffff\n      and\n      0xffffffffffffffffffffffffffffffffffffffff\n      and\n      dup2\n      mstore\n      0x20\n      add\n      swap1\n      dup2\n      mstore\n      0x20\n      add\n      0x00\n      keccak256\n      sload\n        /* \"contracts/MyToken_flattened.sol\":14576:14610  return _allowances[owner][spender] */\n      swap1\n      pop\n        /* \"contracts/MyToken_flattened.sol\":14477:14617  function allowance(address owner, address spender) public view virtual returns (uint256) {... */\n      swap3\n      swap2\n      pop\n      pop\n      jump\t// out\n        /* \"contracts/MyToken_flattened.sol\":24341:24556  function transferOwnership(address newOwner) public virtual onlyOwner {... */\n    tag_89:\n        /* \"contracts/MyToken_flattened.sol\":23329:23342  _checkOwner() */\n      tag_159\n        /* \"contracts/MyToken_flattened.sol\":23329:23340  _checkOwner */\n      tag_112\n        /* \"contracts/MyToken_flattened.sol\":23329:23342  _checkOwner() */\n      jump\t// in\n    tag_159:\n        /* \"contracts/MyToken_flattened.sol\":24445:24446  0 */\n      0x00\n        /* \"contracts/MyToken_flattened.sol\":24425:24447  newOwner == address(0) */\n      0xffffffffffffffffffffffffffffffffffffffff\n      and\n        /* \"contracts/MyToken_flattened.sol\":24425:24433  newOwner */\n      dup2\n        /* \"contracts/MyToken_flattened.sol\":24425:24447  newOwner == address(0) */\n      0xffffffffffffffffffffffffffffffffffffffff\n      and\n      sub\n        /* \"contracts/MyToken_flattened.sol\":24421:24512  if (newOwner == address(0)) {... */\n      tag_161\n      jumpi\n        /* \"contracts/MyToken_flattened.sol\":24498:24499  0 */\n      0x00\n        /* \"contracts/MyToken_flattened.sol\":24470:24501  OwnableInvalidOwner(address(0)) */\n      mload(0x40)\n      0x1e4fbdf700000000000000000000000000000000000000000000000000000000\n      dup2\n      mstore\n      0x04\n      add\n      tag_162\n      swap2\n      swap1\n      tag_74\n      jump\t// in\n    tag_162:\n      mload(0x40)\n      dup1\n      swap2\n      sub\n      swap1\n      revert\n        /* \"contracts/MyToken_flattened.sol\":24421:24512  if (newOwner == address(0)) {... */\n    tag_161:\n        /* \"contracts/MyToken_flattened.sol\":24521:24549  _transferOwnership(newOwner) */\n      tag_163\n        /* \"contracts/MyToken_flattened.sol\":24540:24548  newOwner */\n      dup2\n        /* \"contracts/MyToken_flattened.sol\":24521:24539  _transferOwnership */\n      tag_130\n        /* \"contracts/MyToken_flattened.sol\":24521:24549  _transferOwnership(newOwner) */\n      jump\t// in\n    tag_163:\n        /* \"contracts/MyToken_flattened.sol\":24341:24556  function transferOwnership(address newOwner) public virtual onlyOwner {... */\n      pop\n      jump\t// out\n        /* \"contracts/MyToken_flattened.sol\":4234:4330  function _msgSender() internal view virtual returns (address) {... */\n    tag_99:\n        /* \"contracts/MyToken_flattened.sol\":4287:4294  address */\n      0x00\n        /* \"contracts/MyToken_flattened.sol\":4313:4323  msg.sender */\n      caller\n        /* \"contracts/MyToken_flattened.sol\":4306:4323  return msg.sender */\n      swap1\n      pop\n        /* \"contracts/MyToken_flattened.sol\":4234:4330  function _msgSender() internal view virtual returns (address) {... */\n      swap1\n      jump\t// out\n        /* \"contracts/MyToken_flattened.sol\":19652:19780  function _approve(address owner, address spender, uint256 value) internal {... */\n    tag_101:\n        /* \"contracts/MyToken_flattened.sol\":19736:19773  _approve(owner, spender, value, true) */\n      tag_166\n        /* \"contracts/MyToken_flattened.sol\":19745:19750  owner */\n      dup4\n        /* \"contracts/MyToken_flattened.sol\":19752:19759  spender */\n      dup4\n        /* \"contracts/MyToken_flattened.sol\":19761:19766  value */\n      dup4\n        /* \"contracts/MyToken_flattened.sol\":19768:19772  true */\n      0x01\n        /* \"contracts/MyToken_flattened.sol\":19736:19744  _approve */\n      tag_167\n        /* \"contracts/MyToken_flattened.sol\":19736:19773  _approve(owner, spender, value, true) */\n      jump\t// in\n    tag_166:\n        /* \"contracts/MyToken_flattened.sol\":19652:19780  function _approve(address owner, address spender, uint256 value) internal {... */\n      pop\n      pop\n      pop\n      jump\t// out\n        /* \"contracts/MyToken_flattened.sol\":21341:21818  function _spendAllowance(address owner, address spender, uint256 value) internal virtual {... */\n    tag_106:\n        /* \"contracts/MyToken_flattened.sol\":21440:21464  uint256 currentAllowance */\n      0x00\n        /* \"contracts/MyToken_flattened.sol\":21467:21492  allowance(owner, spender) */\n      tag_169\n        /* \"contracts/MyToken_flattened.sol\":21477:21482  owner */\n      dup5\n        /* \"contracts/MyToken_flattened.sol\":21484:21491  spender */\n      dup5\n        /* \"contracts/MyToken_flattened.sol\":21467:21476  allowance */\n      tag_85\n        /* \"contracts/MyToken_flattened.sol\":21467:21492  allowance(owner, spender) */\n      jump\t// in\n    tag_169:\n        /* \"contracts/MyToken_flattened.sol\":21440:21492  uint256 currentAllowance = allowance(owner, spender) */\n      swap1\n      pop\n        /* \"contracts/MyToken_flattened.sol\":21526:21543  type(uint256).max */\n      0xffffffffffffffffffffffffffffffffffffffffffffffffffffffffffffffff\n        /* \"contracts/MyToken_flattened.sol\":21506:21522  currentAllowance */\n      dup2\n        /* \"contracts/MyToken_flattened.sol\":21506:21543  currentAllowance != type(uint256).max */\n      eq\n        /* \"contracts/MyToken_flattened.sol\":21502:21812  if (currentAllowance != type(uint256).max) {... */\n      tag_170\n      jumpi\n        /* \"contracts/MyToken_flattened.sol\":21582:21587  value */\n      dup2\n        /* \"contracts/MyToken_flattened.sol\":21563:21579  currentAllowance */\n      dup2\n        /* \"contracts/MyToken_flattened.sol\":21563:21587  currentAllowance < value */\n      lt\n        /* \"contracts/MyToken_flattened.sol\":21559:21689  if (currentAllowance < value) {... */\n      iszero\n      tag_171\n      jumpi\n        /* \"contracts/MyToken_flattened.sol\":21641:21648  spender */\n      dup3\n        /* \"contracts/MyToken_flattened.sol\":21650:21666  currentAllowance */\n      dup2\n        /* \"contracts/MyToken_flattened.sol\":21668:21673  value */\n      dup4\n        /* \"contracts/MyToken_flattened.sol\":21614:21674  ERC20InsufficientAllowance(spender, currentAllowance, value) */\n      mload(0x40)\n      0xfb8f41b200000000000000000000000000000000000000000000000000000000\n      dup2\n      mstore\n      0x04\n      add\n      tag_172\n      swap4\n      swap3\n      swap2\n      swap1\n      tag_173\n      jump\t// in\n    tag_172:\n      mload(0x40)\n      dup1\n      swap2\n      sub\n      swap1\n      revert\n        /* \"contracts/MyToken_flattened.sol\":21559:21689  if (currentAllowance < value) {... */\n    tag_171:\n        /* \"contracts/MyToken_flattened.sol\":21730:21787  _approve(owner, spender, currentAllowance - value, false) */\n      tag_174\n        /* \"contracts/MyToken_flattened.sol\":21739:21744  owner */\n      dup5\n        /* \"contracts/MyToken_flattened.sol\":21746:21753  spender */\n      dup5\n        /* \"contracts/MyToken_flattened.sol\":21774:21779  value */\n      dup5\n        /* \"contracts/MyToken_flattened.sol\":21755:21771  currentAllowance */\n      dup5\n        /* \"contracts/MyToken_flattened.sol\":21755:21779  currentAllowance - value */\n      sub\n        /* \"contracts/MyToken_flattened.sol\":21781:21786  false */\n      0x00\n        /* \"contracts/MyToken_flattened.sol\":21730:21738  _approve */\n      tag_167\n        /* \"contracts/MyToken_flattened.sol\":21730:21787  _approve(owner, spender, currentAllowance - value, false) */\n      jump\t// in\n    tag_174:\n        /* \"contracts/MyToken_flattened.sol\":21502:21812  if (currentAllowance != type(uint256).max) {... */\n    tag_170:\n        /* \"contracts/MyToken_flattened.sol\":21430:21818  {... */\n      pop\n        /* \"contracts/MyToken_flattened.sol\":21341:21818  function _spendAllowance(address owner, address spender, uint256 value) internal virtual {... */\n      pop\n      pop\n      pop\n      jump\t// out\n        /* \"contracts/MyToken_flattened.sol\":16319:16619  function _transfer(address from, address to, uint256 value) internal {... */\n    tag_108:\n        /* \"contracts/MyToken_flattened.sol\":16418:16419  0 */\n      0x00\n        /* \"contracts/MyToken_flattened.sol\":16402:16420  from == address(0) */\n      0xffffffffffffffffffffffffffffffffffffffff\n      and\n        /* \"contracts/MyToken_flattened.sol\":16402:16406  from */\n      dup4\n        /* \"contracts/MyToken_flattened.sol\":16402:16420  from == address(0) */\n      0xffffffffffffffffffffffffffffffffffffffff\n      and\n      sub\n        /* \"contracts/MyToken_flattened.sol\":16398:16484  if (from == address(0)) {... */\n      tag_176\n      jumpi\n        /* \"contracts/MyToken_flattened.sol\":16470:16471  0 */\n      0x00\n        /* \"contracts/MyToken_flattened.sol\":16443:16473  ERC20InvalidSender(address(0)) */\n      mload(0x40)\n      0x96c6fd1e00000000000000000000000000000000000000000000000000000000\n      dup2\n      mstore\n      0x04\n      add\n      tag_177\n      swap2\n      swap1\n      tag_74\n      jump\t// in\n    tag_177:\n      mload(0x40)\n      dup1\n      swap2\n      sub\n      swap1\n      revert\n        /* \"contracts/MyToken_flattened.sol\":16398:16484  if (from == address(0)) {... */\n    tag_176:\n        /* \"contracts/MyToken_flattened.sol\":16511:16512  0 */\n      0x00\n        /* \"contracts/MyToken_flattened.sol\":16497:16513  to == address(0) */\n      0xffffffffffffffffffffffffffffffffffffffff\n      and\n        /* \"contracts/MyToken_flattened.sol\":16497:16499  to */\n      dup3\n        /* \"contracts/MyToken_flattened.sol\":16497:16513  to == address(0) */\n      0xffffffffffffffffffffffffffffffffffffffff\n      and\n      sub\n        /* \"contracts/MyToken_flattened.sol\":16493:16579  if (to == address(0)) {... */\n      tag_178\n      jumpi\n        /* \"contracts/MyToken_flattened.sol\":16565:16566  0 */\n      0x00\n        /* \"contracts/MyToken_flattened.sol\":16536:16568  ERC20InvalidReceiver(address(0)) */\n      mload(0x40)\n      0xec442f0500000000000000000000000000000000000000000000000000000000\n      dup2\n      mstore\n      0x04\n      add\n      tag_179\n      swap2\n      swap1\n      tag_74\n      jump\t// in\n    tag_179:\n      mload(0x40)\n      dup1\n      swap2\n      sub\n      swap1\n      revert\n        /* \"contracts/MyToken_flattened.sol\":16493:16579  if (to == address(0)) {... */\n    tag_178:\n        /* \"contracts/MyToken_flattened.sol\":16588:16612  _update(from, to, value) */\n      tag_180\n        /* \"contracts/MyToken_flattened.sol\":16596:16600  from */\n      dup4\n        /* \"contracts/MyToken_flattened.sol\":16602:16604  to */\n      dup4\n        /* \"contracts/MyToken_flattened.sol\":16606:16611  value */\n      dup4\n        /* \"contracts/MyToken_flattened.sol\":16588:16595  _update */\n      tag_181\n        /* \"contracts/MyToken_flattened.sol\":16588:16612  _update(from, to, value) */\n      jump\t// in\n    tag_180:\n        /* \"contracts/MyToken_flattened.sol\":16319:16619  function _transfer(address from, address to, uint256 value) internal {... */\n      pop\n      pop\n      pop\n      jump\t// out\n        /* \"contracts/MyToken_flattened.sol\":23594:23756  function _checkOwner() internal view virtual {... */\n    tag_112:\n        /* \"contracts/MyToken_flattened.sol\":23664:23676  _msgSender() */\n      tag_183\n        /* \"contracts/MyToken_flattened.sol\":23664:23674  _msgSender */\n      tag_99\n        /* \"contracts/MyToken_flattened.sol\":23664:23676  _msgSender() */\n      jump\t// in\n    tag_183:\n        /* \"contracts/MyToken_flattened.sol\":23653:23676  owner() != _msgSender() */\n      0xffffffffffffffffffffffffffffffffffffffff\n      and\n        /* \"contracts/MyToken_flattened.sol\":23653:23660  owner() */\n      tag_184\n        /* \"contracts/MyToken_flattened.sol\":23653:23658  owner */\n      tag_72\n        /* \"contracts/MyToken_flattened.sol\":23653:23660  owner() */\n      jump\t// in\n    tag_184:\n        /* \"contracts/MyToken_flattened.sol\":23653:23676  owner() != _msgSender() */\n      0xffffffffffffffffffffffffffffffffffffffff\n      and\n      eq\n        /* \"contracts/MyToken_flattened.sol\":23649:23750  if (owner() != _msgSender()) {... */\n      tag_185\n      jumpi\n        /* \"contracts/MyToken_flattened.sol\":23726:23738  _msgSender() */\n      tag_186\n        /* \"contracts/MyToken_flattened.sol\":23726:23736  _msgSender */\n      tag_99\n        /* \"contracts/MyToken_flattened.sol\":23726:23738  _msgSender() */\n      jump\t// in\n    tag_186:\n        /* \"contracts/MyToken_flattened.sol\":23699:23739  OwnableUnauthorizedAccount(_msgSender()) */\n      mload(0x40)\n      0x118cdaa700000000000000000000000000000000000000000000000000000000\n      dup2\n      mstore\n      0x04\n      add\n      tag_187\n      swap2\n      swap1\n      tag_74\n      jump\t// in\n    tag_187:\n      mload(0x40)\n      dup1\n      swap2\n      sub\n      swap1\n      revert\n        /* \"contracts/MyToken_flattened.sol\":23649:23750  if (owner() != _msgSender()) {... */\n    tag_185:\n        /* \"contracts/MyToken_flattened.sol\":23594:23756  function _checkOwner() internal view virtual {... */\n      jump\t// out\n        /* \"contracts/MyToken_flattened.sol\":27328:27445  function _unpause() internal virtual whenPaused {... */\n    tag_115:\n        /* \"contracts/MyToken_flattened.sol\":26381:26397  _requirePaused() */\n      tag_189\n        /* \"contracts/MyToken_flattened.sol\":26381:26395  _requirePaused */\n      tag_190\n        /* \"contracts/MyToken_flattened.sol\":26381:26397  _requirePaused() */\n      jump\t// in\n    tag_189:\n        /* \"contracts/MyToken_flattened.sol\":27396:27401  false */\n      0x00\n        /* \"contracts/MyToken_flattened.sol\":27386:27393  _paused */\n      0x05\n      0x14\n        /* \"contracts/MyToken_flattened.sol\":27386:27401  _paused = false */\n      0x0100\n      exp\n      dup2\n      sload\n      dup2\n      0xff\n      mul\n      not\n      and\n      swap1\n      dup4\n      iszero\n      iszero\n      mul\n      or\n      swap1\n      sstore\n      pop\n        /* \"contracts/MyToken_flattened.sol\":27416:27438  Unpaused(_msgSender()) */\n      0x5db9ee0a495bf2e6ff9c91a7834c1ba4fdd244a5e8aa4e537bd38aeae4b073aa\n        /* \"contracts/MyToken_flattened.sol\":27425:27437  _msgSender() */\n      tag_192\n        /* \"contracts/MyToken_flattened.sol\":27425:27435  _msgSender */\n      tag_99\n        /* \"contracts/MyToken_flattened.sol\":27425:27437  _msgSender() */\n      jump\t// in\n    tag_192:\n        /* \"contracts/MyToken_flattened.sol\":27416:27438  Unpaused(_msgSender()) */\n      mload(0x40)\n      tag_193\n      swap2\n      swap1\n      tag_74\n      jump\t// in\n    tag_193:\n      mload(0x40)\n      dup1\n      swap2\n      sub\n      swap1\n      log1\n        /* \"contracts/MyToken_flattened.sol\":27328:27445  function _unpause() internal virtual whenPaused {... */\n      jump\t// out\n        /* \"contracts/MyToken_flattened.sol\":18384:18592  function _mint(address account, uint256 value) internal {... */\n    tag_120:\n        /* \"contracts/MyToken_flattened.sol\":18473:18474  0 */\n      0x00\n        /* \"contracts/MyToken_flattened.sol\":18454:18475  account == address(0) */\n      0xffffffffffffffffffffffffffffffffffffffff\n      and\n        /* \"contracts/MyToken_flattened.sol\":18454:18461  account */\n      dup3\n        /* \"contracts/MyToken_flattened.sol\":18454:18475  account == address(0) */\n      0xffffffffffffffffffffffffffffffffffffffff\n      and\n      sub\n        /* \"contracts/MyToken_flattened.sol\":18450:18541  if (account == address(0)) {... */\n      tag_195\n      jumpi\n        /* \"contracts/MyToken_flattened.sol\":18527:18528  0 */\n      0x00\n        /* \"contracts/MyToken_flattened.sol\":18498:18530  ERC20InvalidReceiver(address(0)) */\n      mload(0x40)\n      0xec442f0500000000000000000000000000000000000000000000000000000000\n      dup2\n      mstore\n      0x04\n      add\n      tag_196\n      swap2\n      swap1\n      tag_74\n      jump\t// in\n    tag_196:\n      mload(0x40)\n      dup1\n      swap2\n      sub\n      swap1\n      revert\n        /* \"contracts/MyToken_flattened.sol\":18450:18541  if (account == address(0)) {... */\n    tag_195:\n        /* \"contracts/MyToken_flattened.sol\":18550:18585  _update(address(0), account, value) */\n      tag_197\n        /* \"contracts/MyToken_flattened.sol\":18566:18567  0 */\n      0x00\n        /* \"contracts/MyToken_flattened.sol\":18570:18577  account */\n      dup4\n        /* \"contracts/MyToken_flattened.sol\":18579:18584  value */\n      dup4\n        /* \"contracts/MyToken_flattened.sol\":18550:18557  _update */\n      tag_181\n        /* \"contracts/MyToken_flattened.sol\":18550:18585  _update(address(0), account, value) */\n      jump\t// in\n    tag_197:\n        /* \"contracts/MyToken_flattened.sol\":18384:18592  function _mint(address account, uint256 value) internal {... */\n      pop\n      pop\n      jump\t// out\n        /* \"contracts/MyToken_flattened.sol\":18910:19116  function _burn(address account, uint256 value) internal {... */\n    tag_123:\n        /* \"contracts/MyToken_flattened.sol\":18999:19000  0 */\n      0x00\n        /* \"contracts/MyToken_flattened.sol\":18980:19001  account == address(0) */\n      0xffffffffffffffffffffffffffffffffffffffff\n      and\n        /* \"contracts/MyToken_flattened.sol\":18980:18987  account */\n      dup3\n        /* \"contracts/MyToken_flattened.sol\":18980:19001  account == address(0) */\n      0xffffffffffffffffffffffffffffffffffffffff\n      and\n      sub\n        /* \"contracts/MyToken_flattened.sol\":18976:19065  if (account == address(0)) {... */\n      tag_199\n      jumpi\n        /* \"contracts/MyToken_flattened.sol\":19051:19052  0 */\n      0x00\n        /* \"contracts/MyToken_flattened.sol\":19024:19054  ERC20InvalidSender(address(0)) */\n      mload(0x40)\n      0x96c6fd1e00000000000000000000000000000000000000000000000000000000\n      dup2\n      mstore\n      0x04\n      add\n      tag_200\n      swap2\n      swap1\n      tag_74\n      jump\t// in\n    tag_200:\n      mload(0x40)\n      dup1\n      swap2\n      sub\n      swap1\n      revert\n        /* \"contracts/MyToken_flattened.sol\":18976:19065  if (account == address(0)) {... */\n    tag_199:\n        /* \"contracts/MyToken_flattened.sol\":19074:19109  _update(account, address(0), value) */\n      tag_201\n        /* \"contracts/MyToken_flattened.sol\":19082:19089  account */\n      dup3\n        /* \"contracts/MyToken_flattened.sol\":19099:19100  0 */\n      0x00\n        /* \"contracts/MyToken_flattened.sol\":19103:19108  value */\n      dup4\n        /* \"contracts/MyToken_flattened.sol\":19074:19081  _update */\n      tag_181\n        /* \"contracts/MyToken_flattened.sol\":19074:19109  _update(account, address(0), value) */\n      jump\t// in\n    tag_201:\n        /* \"contracts/MyToken_flattened.sol\":18910:19116  function _burn(address account, uint256 value) internal {... */\n      pop\n      pop\n      jump\t// out\n        /* \"contracts/MyToken_flattened.sol\":24710:24897  function _transferOwnership(address newOwner) internal virtual {... */\n    tag_130:\n        /* \"contracts/MyToken_flattened.sol\":24783:24799  address oldOwner */\n      0x00\n        /* \"contracts/MyToken_flattened.sol\":24802:24808  _owner */\n      0x05\n      0x00\n      swap1\n      sload\n      swap1\n      0x0100\n      exp\n      swap1\n      div\n      0xffffffffffffffffffffffffffffffffffffffff\n      and\n        /* \"contracts/MyToken_flattened.sol\":24783:24808  address oldOwner = _owner */\n      swap1\n      pop\n        /* \"contracts/MyToken_flattened.sol\":24827:24835  newOwner */\n      dup2\n        /* \"contracts/MyToken_flattened.sol\":24818:24824  _owner */\n      0x05\n      0x00\n        /* \"contracts/MyToken_flattened.sol\":24818:24835  _owner = newOwner */\n      0x0100\n      exp\n      dup2\n      sload\n      dup2\n      0xffffffffffffffffffffffffffffffffffffffff\n      mul\n      not\n      and\n      swap1\n      dup4\n      0xffffffffffffffffffffffffffffffffffffffff\n      and\n      mul\n      or\n      swap1\n      sstore\n      pop\n        /* \"contracts/MyToken_flattened.sol\":24881:24889  newOwner */\n      dup2\n        /* \"contracts/MyToken_flattened.sol\":24850:24890  OwnershipTransferred(oldOwner, newOwner) */\n      0xffffffffffffffffffffffffffffffffffffffff\n      and\n        /* \"contracts/MyToken_flattened.sol\":24871:24879  oldOwner */\n      dup2\n        /* \"contracts/MyToken_flattened.sol\":24850:24890  OwnershipTransferred(oldOwner, newOwner) */\n      0xffffffffffffffffffffffffffffffffffffffff\n      and\n      0x8be0079c531659141344cd1fd0a4f28419497f9722a3daafe3b4186f6b6457e0\n      mload(0x40)\n      mload(0x40)\n      dup1\n      swap2\n      sub\n      swap1\n      log3\n        /* \"contracts/MyToken_flattened.sol\":24773:24897  {... */\n      pop\n        /* \"contracts/MyToken_flattened.sol\":24710:24897  function _transferOwnership(address newOwner) internal virtual {... */\n      pop\n      jump\t// out\n        /* \"contracts/MyToken_flattened.sol\":27081:27196  function _pause() internal virtual whenNotPaused {... */\n    tag_146:\n        /* \"contracts/MyToken_flattened.sol\":26134:26153  _requireNotPaused() */\n      tag_204\n        /* \"contracts/MyToken_flattened.sol\":26134:26151  _requireNotPaused */\n      tag_205\n        /* \"contracts/MyToken_flattened.sol\":26134:26153  _requireNotPaused() */\n      jump\t// in\n    tag_204:\n        /* \"contracts/MyToken_flattened.sol\":27150:27154  true */\n      0x01\n        /* \"contracts/MyToken_flattened.sol\":27140:27147  _paused */\n      0x05\n      0x14\n        /* \"contracts/MyToken_flattened.sol\":27140:27154  _paused = true */\n      0x0100\n      exp\n      dup2\n      sload\n      dup2\n      0xff\n      mul\n      not\n      and\n      swap1\n      dup4\n      iszero\n      iszero\n      mul\n      or\n      swap1\n      sstore\n      pop\n        /* \"contracts/MyToken_flattened.sol\":27169:27189  Paused(_msgSender()) */\n      0x62e78cea01bee320cd4e420270b5ea74000d11b0c9f74754ebdbfc544b05a258\n        /* \"contracts/MyToken_flattened.sol\":27176:27188  _msgSender() */\n      tag_207\n        /* \"contracts/MyToken_flattened.sol\":27176:27186  _msgSender */\n      tag_99\n        /* \"contracts/MyToken_flattened.sol\":27176:27188  _msgSender() */\n      jump\t// in\n    tag_207:\n        /* \"contracts/MyToken_flattened.sol\":27169:27189  Paused(_msgSender()) */\n      mload(0x40)\n      tag_208\n      swap2\n      swap1\n      tag_74\n      jump\t// in\n    tag_208:\n      mload(0x40)\n      dup1\n      swap2\n      sub\n      swap1\n      log1\n        /* \"contracts/MyToken_flattened.sol\":27081:27196  function _pause() internal virtual whenNotPaused {... */\n      jump\t// out\n        /* \"contracts/MyToken_flattened.sol\":20627:21059  function _approve(address owner, address spender, uint256 value, bool emitEvent) internal virtual {... */\n    tag_167:\n        /* \"contracts/MyToken_flattened.sol\":20756:20757  0 */\n      0x00\n        /* \"contracts/MyToken_flattened.sol\":20739:20758  owner == address(0) */\n      0xffffffffffffffffffffffffffffffffffffffff\n      and\n        /* \"contracts/MyToken_flattened.sol\":20739:20744  owner */\n      dup5\n        /* \"contracts/MyToken_flattened.sol\":20739:20758  owner == address(0) */\n      0xffffffffffffffffffffffffffffffffffffffff\n      and\n      sub\n        /* \"contracts/MyToken_flattened.sol\":20735:20824  if (owner == address(0)) {... */\n      tag_210\n      jumpi\n        /* \"contracts/MyToken_flattened.sol\":20810:20811  0 */\n      0x00\n        /* \"contracts/MyToken_flattened.sol\":20781:20813  ERC20InvalidApprover(address(0)) */\n      mload(0x40)\n      0xe602df0500000000000000000000000000000000000000000000000000000000\n      dup2\n      mstore\n      0x04\n      add\n      tag_211\n      swap2\n      swap1\n      tag_74\n      jump\t// in\n    tag_211:\n      mload(0x40)\n      dup1\n      swap2\n      sub\n      swap1\n      revert\n        /* \"contracts/MyToken_flattened.sol\":20735:20824  if (owner == address(0)) {... */\n    tag_210:\n        /* \"contracts/MyToken_flattened.sol\":20856:20857  0 */\n      0x00\n        /* \"contracts/MyToken_flattened.sol\":20837:20858  spender == address(0) */\n      0xffffffffffffffffffffffffffffffffffffffff\n      and\n        /* \"contracts/MyToken_flattened.sol\":20837:20844  spender */\n      dup4\n        /* \"contracts/MyToken_flattened.sol\":20837:20858  spender == address(0) */\n      0xffffffffffffffffffffffffffffffffffffffff\n      and\n      sub\n        /* \"contracts/MyToken_flattened.sol\":20833:20923  if (spender == address(0)) {... */\n      tag_212\n      jumpi\n        /* \"contracts/MyToken_flattened.sol\":20909:20910  0 */\n      0x00\n        /* \"contracts/MyToken_flattened.sol\":20881:20912  ERC20InvalidSpender(address(0)) */\n      mload(0x40)\n      0x94280d6200000000000000000000000000000000000000000000000000000000\n      dup2\n      mstore\n      0x04\n      add\n      tag_213\n      swap2\n      swap1\n      tag_74\n      jump\t// in\n    tag_213:\n      mload(0x40)\n      dup1\n      swap2\n      sub\n      swap1\n      revert\n        /* \"contracts/MyToken_flattened.sol\":20833:20923  if (spender == address(0)) {... */\n    tag_212:\n        /* \"contracts/MyToken_flattened.sol\":20962:20967  value */\n      dup2\n        /* \"contracts/MyToken_flattened.sol\":20932:20943  _allowances */\n      0x01\n        /* \"contracts/MyToken_flattened.sol\":20932:20950  _allowances[owner] */\n      0x00\n        /* \"contracts/MyToken_flattened.sol\":20944:20949  owner */\n      dup7\n        /* \"contracts/MyToken_flattened.sol\":20932:20950  _allowances[owner] */\n      0xffffffffffffffffffffffffffffffffffffffff\n      and\n      0xffffffffffffffffffffffffffffffffffffffff\n      and\n      dup2\n      mstore\n      0x20\n      add\n      swap1\n      dup2\n      mstore\n      0x20\n      add\n      0x00\n      keccak256\n        /* \"contracts/MyToken_flattened.sol\":20932:20959  _allowances[owner][spender] */\n      0x00\n        /* \"contracts/MyToken_flattened.sol\":20951:20958  spender */\n      dup6\n        /* \"contracts/MyToken_flattened.sol\":20932:20959  _allowances[owner][spender] */\n      0xffffffffffffffffffffffffffffffffffffffff\n      and\n      0xffffffffffffffffffffffffffffffffffffffff\n      and\n      dup2\n      mstore\n      0x20\n      add\n      swap1\n      dup2\n      mstore\n      0x20\n      add\n      0x00\n      keccak256\n        /* \"contracts/MyToken_flattened.sol\":20932:20967  _allowances[owner][spender] = value */\n      dup2\n      swap1\n      sstore\n      pop\n        /* \"contracts/MyToken_flattened.sol\":20981:20990  emitEvent */\n      dup1\n        /* \"contracts/MyToken_flattened.sol\":20977:21053  if (emitEvent) {... */\n      iszero\n      tag_214\n      jumpi\n        /* \"contracts/MyToken_flattened.sol\":21027:21034  spender */\n      dup3\n        /* \"contracts/MyToken_flattened.sol\":21011:21042  Approval(owner, spender, value) */\n      0xffffffffffffffffffffffffffffffffffffffff\n      and\n        /* \"contracts/MyToken_flattened.sol\":21020:21025  owner */\n      dup5\n        /* \"contracts/MyToken_flattened.sol\":21011:21042  Approval(owner, spender, value) */\n      0xffffffffffffffffffffffffffffffffffffffff\n      and\n      0x8c5be1e5ebec7d5bd14f71427d1e84f3dd0314c0f7b2291e5b200ac8c7c3b925\n        /* \"contracts/MyToken_flattened.sol\":21036:21041  value */\n      dup5\n        /* \"contracts/MyToken_flattened.sol\":21011:21042  Approval(owner, spender, value) */\n      mload(0x40)\n      tag_215\n      swap2\n      swap1\n      tag_37\n      jump\t// in\n    tag_215:\n      mload(0x40)\n      dup1\n      swap2\n      sub\n      swap1\n      log3\n        /* \"contracts/MyToken_flattened.sol\":20977:21053  if (emitEvent) {... */\n    tag_214:\n        /* \"contracts/MyToken_flattened.sol\":20627:21059  function _approve(address owner, address spender, uint256 value, bool emitEvent) internal virtual {... */\n      pop\n      pop\n      pop\n      pop\n      jump\t// out\n        /* \"contracts/MyToken_flattened.sol\":16934:18041  function _update(address from, address to, uint256 value) internal virtual {... */\n    tag_181:\n        /* \"contracts/MyToken_flattened.sol\":17039:17040  0 */\n      0x00\n        /* \"contracts/MyToken_flattened.sol\":17023:17041  from == address(0) */\n      0xffffffffffffffffffffffffffffffffffffffff\n      and\n        /* \"contracts/MyToken_flattened.sol\":17023:17027  from */\n      dup4\n        /* \"contracts/MyToken_flattened.sol\":17023:17041  from == address(0) */\n      0xffffffffffffffffffffffffffffffffffffffff\n      and\n      sub\n        /* \"contracts/MyToken_flattened.sol\":17019:17559  if (from == address(0)) {... */\n      tag_217\n      jumpi\n        /* \"contracts/MyToken_flattened.sol\":17175:17180  value */\n      dup1\n        /* \"contracts/MyToken_flattened.sol\":17159:17171  _totalSupply */\n      0x02\n      0x00\n        /* \"contracts/MyToken_flattened.sol\":17159:17180  _totalSupply += value */\n      dup3\n      dup3\n      sload\n      tag_218\n      swap2\n      swap1\n      tag_219\n      jump\t// in\n    tag_218:\n      swap3\n      pop\n      pop\n      dup2\n      swap1\n      sstore\n      pop\n        /* \"contracts/MyToken_flattened.sol\":17019:17559  if (from == address(0)) {... */\n      jump(tag_220)\n    tag_217:\n        /* \"contracts/MyToken_flattened.sol\":17211:17230  uint256 fromBalance */\n      0x00\n        /* \"contracts/MyToken_flattened.sol\":17233:17242  _balances */\n      0x00\n        /* \"contracts/MyToken_flattened.sol\":17233:17248  _balances[from] */\n      0x00\n        /* \"contracts/MyToken_flattened.sol\":17243:17247  from */\n      dup6\n        /* \"contracts/MyToken_flattened.sol\":17233:17248  _balances[from] */\n      0xffffffffffffffffffffffffffffffffffffffff\n      and\n      0xffffffffffffffffffffffffffffffffffffffff\n      and\n      dup2\n      mstore\n      0x20\n      add\n      swap1\n      dup2\n      mstore\n      0x20\n      add\n      0x00\n      keccak256\n      sload\n        /* \"contracts/MyToken_flattened.sol\":17211:17248  uint256 fromBalance = _balances[from] */\n      swap1\n      pop\n        /* \"contracts/MyToken_flattened.sol\":17280:17285  value */\n      dup2\n        /* \"contracts/MyToken_flattened.sol\":17266:17277  fromBalance */\n      dup2\n        /* \"contracts/MyToken_flattened.sol\":17266:17285  fromBalance < value */\n      lt\n        /* \"contracts/MyToken_flattened.sol\":17262:17377  if (fromBalance < value) {... */\n      iszero\n      tag_221\n      jumpi\n        /* \"contracts/MyToken_flattened.sol\":17337:17341  from */\n      dup4\n        /* \"contracts/MyToken_flattened.sol\":17343:17354  fromBalance */\n      dup2\n        /* \"contracts/MyToken_flattened.sol\":17356:17361  value */\n      dup4\n        /* \"contracts/MyToken_flattened.sol\":17312:17362  ERC20InsufficientBalance(from, fromBalance, value) */\n      mload(0x40)\n      0xe450d38c00000000000000000000000000000000000000000000000000000000\n      dup2\n      mstore\n      0x04\n      add\n      tag_222\n      swap4\n      swap3\n      swap2\n      swap1\n      tag_173\n      jump\t// in\n    tag_222:\n      mload(0x40)\n      dup1\n      swap2\n      sub\n      swap1\n      revert\n        /* \"contracts/MyToken_flattened.sol\":17262:17377  if (fromBalance < value) {... */\n    tag_221:\n        /* \"contracts/MyToken_flattened.sol\":17529:17534  value */\n      dup2\n        /* \"contracts/MyToken_flattened.sol\":17515:17526  fromBalance */\n      dup2\n        /* \"contracts/MyToken_flattened.sol\":17515:17534  fromBalance - value */\n      sub\n        /* \"contracts/MyToken_flattened.sol\":17497:17506  _balances */\n      0x00\n        /* \"contracts/MyToken_flattened.sol\":17497:17512  _balances[from] */\n      0x00\n        /* \"contracts/MyToken_flattened.sol\":17507:17511  from */\n      dup7\n        /* \"contracts/MyToken_flattened.sol\":17497:17512  _balances[from] */\n      0xffffffffffffffffffffffffffffffffffffffff\n      and\n      0xffffffffffffffffffffffffffffffffffffffff\n      and\n      dup2\n      mstore\n      0x20\n      add\n      swap1\n      dup2\n      mstore\n      0x20\n      add\n      0x00\n      keccak256\n        /* \"contracts/MyToken_flattened.sol\":17497:17534  _balances[from] = fromBalance - value */\n      dup2\n      swap1\n      sstore\n      pop\n        /* \"contracts/MyToken_flattened.sol\":17197:17559  {... */\n      pop\n        /* \"contracts/MyToken_flattened.sol\":17019:17559  if (from == address(0)) {... */\n    tag_220:\n        /* \"contracts/MyToken_flattened.sol\":17587:17588  0 */\n      0x00\n        /* \"contracts/MyToken_flattened.sol\":17573:17589  to == address(0) */\n      0xffffffffffffffffffffffffffffffffffffffff\n      and\n        /* \"contracts/MyToken_flattened.sol\":17573:17575  to */\n      dup3\n        /* \"contracts/MyToken_flattened.sol\":17573:17589  to == address(0) */\n      0xffffffffffffffffffffffffffffffffffffffff\n      and\n      sub\n        /* \"contracts/MyToken_flattened.sol\":17569:17994  if (to == address(0)) {... */\n      tag_223\n      jumpi\n        /* \"contracts/MyToken_flattened.sol\":17752:17757  value */\n      dup1\n        /* \"contracts/MyToken_flattened.sol\":17736:17748  _totalSupply */\n      0x02\n      0x00\n        /* \"contracts/MyToken_flattened.sol\":17736:17757  _totalSupply -= value */\n      dup3\n      dup3\n      sload\n      sub\n      swap3\n      pop\n      pop\n      dup2\n      swap1\n      sstore\n      pop\n        /* \"contracts/MyToken_flattened.sol\":17569:17994  if (to == address(0)) {... */\n      jump(tag_224)\n    tag_223:\n        /* \"contracts/MyToken_flattened.sol\":17964:17969  value */\n      dup1\n        /* \"contracts/MyToken_flattened.sol\":17947:17956  _balances */\n      0x00\n        /* \"contracts/MyToken_flattened.sol\":17947:17960  _balances[to] */\n      0x00\n        /* \"contracts/MyToken_flattened.sol\":17957:17959  to */\n      dup5\n        /* \"contracts/MyToken_flattened.sol\":17947:17960  _balances[to] */\n      0xffffffffffffffffffffffffffffffffffffffff\n      and\n      0xffffffffffffffffffffffffffffffffffffffff\n      and\n      dup2\n      mstore\n      0x20\n      add\n      swap1\n      dup2\n      mstore\n      0x20\n      add\n      0x00\n      keccak256\n      0x00\n        /* \"contracts/MyToken_flattened.sol\":17947:17969  _balances[to] += value */\n      dup3\n      dup3\n      sload\n      add\n      swap3\n      pop\n      pop\n      dup2\n      swap1\n      sstore\n      pop\n        /* \"contracts/MyToken_flattened.sol\":17569:17994  if (to == address(0)) {... */\n    tag_224:\n        /* \"contracts/MyToken_flattened.sol\":18024:18026  to */\n      dup2\n        /* \"contracts/MyToken_flattened.sol\":18009:18034  Transfer(from, to, value) */\n      0xffffffffffffffffffffffffffffffffffffffff\n      and\n        /* \"contracts/MyToken_flattened.sol\":18018:18022  from */\n      dup4\n        /* \"contracts/MyToken_flattened.sol\":18009:18034  Transfer(from, to, value) */\n      0xffffffffffffffffffffffffffffffffffffffff\n      and\n      0xddf252ad1be2c89b69c2b068fc378daa952ba7f163c4a11628f55a4df523b3ef\n        /* \"contracts/MyToken_flattened.sol\":18028:18033  value */\n      dup4\n        /* \"contracts/MyToken_flattened.sol\":18009:18034  Transfer(from, to, value) */\n      mload(0x40)\n      tag_225\n      swap2\n      swap1\n      tag_37\n      jump\t// in\n    tag_225:\n      mload(0x40)\n      dup1\n      swap2\n      sub\n      swap1\n      log3\n        /* \"contracts/MyToken_flattened.sol\":16934:18041  function _update(address from, address to, uint256 value) internal virtual {... */\n      pop\n      pop\n      pop\n      jump\t// out\n        /* \"contracts/MyToken_flattened.sol\":26840:26946  function _requirePaused() internal view virtual {... */\n    tag_190:\n        /* \"contracts/MyToken_flattened.sol\":26906:26914  paused() */\n      tag_227\n        /* \"contracts/MyToken_flattened.sol\":26906:26912  paused */\n      tag_57\n        /* \"contracts/MyToken_flattened.sol\":26906:26914  paused() */\n      jump\t// in\n    tag_227:\n        /* \"contracts/MyToken_flattened.sol\":26898:26939  require(paused(), \"Pausable: not paused\") */\n      tag_228\n      jumpi\n      mload(0x40)\n      0x08c379a000000000000000000000000000000000000000000000000000000000\n      dup2\n      mstore\n      0x04\n      add\n      tag_229\n      swap1\n      tag_230\n      jump\t// in\n    tag_229:\n      mload(0x40)\n      dup1\n      swap2\n      sub\n      swap1\n      revert\n    tag_228:\n        /* \"contracts/MyToken_flattened.sol\":26840:26946  function _requirePaused() internal view virtual {... */\n      jump\t// out\n        /* \"contracts/MyToken_flattened.sol\":26662:26768  function _requireNotPaused() internal view virtual {... */\n    tag_205:\n        /* \"contracts/MyToken_flattened.sol\":26732:26740  paused() */\n      tag_232\n        /* \"contracts/MyToken_flattened.sol\":26732:26738  paused */\n      tag_57\n        /* \"contracts/MyToken_flattened.sol\":26732:26740  paused() */\n      jump\t// in\n    tag_232:\n        /* \"contracts/MyToken_flattened.sol\":26731:26740  !paused() */\n      iszero\n        /* \"contracts/MyToken_flattened.sol\":26723:26761  require(!paused(), \"Pausable: paused\") */\n      tag_233\n      jumpi\n      mload(0x40)\n      0x08c379a000000000000000000000000000000000000000000000000000000000\n      dup2\n      mstore\n      0x04\n      add\n      tag_234\n      swap1\n      tag_235\n      jump\t// in\n    tag_234:\n      mload(0x40)\n      dup1\n      swap2\n      sub\n      swap1\n      revert\n    tag_233:\n        /* \"contracts/MyToken_flattened.sol\":26662:26768  function _requireNotPaused() internal view virtual {... */\n      jump\t// out\n        /* \"#utility.yul\":7:106   */\n    tag_236:\n        /* \"#utility.yul\":59:65   */\n      0x00\n        /* \"#utility.yul\":93:98   */\n      dup2\n        /* \"#utility.yul\":87:99   */\n      mload\n        /* \"#utility.yul\":77:99   */\n      swap1\n      pop\n        /* \"#utility.yul\":7:106   */\n      swap2\n      swap1\n      pop\n      jump\t// out\n        /* \"#utility.yul\":112:281   */\n    tag_237:\n        /* \"#utility.yul\":196:207   */\n      0x00\n        /* \"#utility.yul\":230:236   */\n      dup3\n        /* \"#utility.yul\":225:228   */\n      dup3\n        /* \"#utility.yul\":218:237   */\n      mstore\n        /* \"#utility.yul\":270:274   */\n      0x20\n        /* \"#utility.yul\":265:268   */\n      dup3\n        /* \"#utility.yul\":261:275   */\n      add\n        /* \"#utility.yul\":246:275   */\n      swap1\n      pop\n        /* \"#utility.yul\":112:281   */\n      swap3\n      swap2\n      pop\n      pop\n      jump\t// out\n        /* \"#utility.yul\":287:426   */\n    tag_238:\n        /* \"#utility.yul\":376:382   */\n      dup3\n        /* \"#utility.yul\":371:374   */\n      dup2\n        /* \"#utility.yul\":366:369   */\n      dup4\n        /* \"#utility.yul\":360:383   */\n      mcopy\n        /* \"#utility.yul\":417:418   */\n      0x00\n        /* \"#utility.yul\":408:414   */\n      dup4\n        /* \"#utility.yul\":403:406   */\n      dup4\n        /* \"#utility.yul\":399:415   */\n      add\n        /* \"#utility.yul\":392:419   */\n      mstore\n        /* \"#utility.yul\":287:426   */\n      pop\n      pop\n      pop\n      jump\t// out\n        /* \"#utility.yul\":432:534   */\n    tag_239:\n        /* \"#utility.yul\":473:479   */\n      0x00\n        /* \"#utility.yul\":524:526   */\n      0x1f\n        /* \"#utility.yul\":520:527   */\n      not\n        /* \"#utility.yul\":515:517   */\n      0x1f\n        /* \"#utility.yul\":508:513   */\n      dup4\n        /* \"#utility.yul\":504:518   */\n      add\n        /* \"#utility.yul\":500:528   */\n      and\n        /* \"#utility.yul\":490:528   */\n      swap1\n      pop\n        /* \"#utility.yul\":432:534   */\n      swap2\n      swap1\n      pop\n      jump\t// out\n        /* \"#utility.yul\":540:917   */\n    tag_240:\n        /* \"#utility.yul\":628:631   */\n      0x00\n        /* \"#utility.yul\":656:695   */\n      tag_271\n        /* \"#utility.yul\":689:694   */\n      dup3\n        /* \"#utility.yul\":656:695   */\n      tag_236\n      jump\t// in\n    tag_271:\n        /* \"#utility.yul\":711:782   */\n      tag_272\n        /* \"#utility.yul\":775:781   */\n      dup2\n        /* \"#utility.yul\":770:773   */\n      dup6\n        /* \"#utility.yul\":711:782   */\n      tag_237\n      jump\t// in\n    tag_272:\n        /* \"#utility.yul\":704:782   */\n      swap4\n      pop\n        /* \"#utility.yul\":791:856   */\n      tag_273\n        /* \"#utility.yul\":849:855   */\n      dup2\n        /* \"#utility.yul\":844:847   */\n      dup6\n        /* \"#utility.yul\":837:841   */\n      0x20\n        /* \"#utility.yul\":830:835   */\n      dup7\n        /* \"#utility.yul\":826:842   */\n      add\n        /* \"#utility.yul\":791:856   */\n      tag_238\n      jump\t// in\n    tag_273:\n        /* \"#utility.yul\":881:910   */\n      tag_274\n        /* \"#utility.yul\":903:909   */\n      dup2\n        /* \"#utility.yul\":881:910   */\n      tag_239\n      jump\t// in\n    tag_274:\n        /* \"#utility.yul\":876:879   */\n      dup5\n        /* \"#utility.yul\":872:911   */\n      add\n        /* \"#utility.yul\":865:911   */\n      swap2\n      pop\n        /* \"#utility.yul\":632:917   */\n      pop\n        /* \"#utility.yul\":540:917   */\n      swap3\n      swap2\n      pop\n      pop\n      jump\t// out\n        /* \"#utility.yul\":923:1236   */\n    tag_27:\n        /* \"#utility.yul\":1036:1040   */\n      0x00\n        /* \"#utility.yul\":1074:1076   */\n      0x20\n        /* \"#utility.yul\":1063:1072   */\n      dup3\n        /* \"#utility.yul\":1059:1077   */\n      add\n        /* \"#utility.yul\":1051:1077   */\n      swap1\n      pop\n        /* \"#utility.yul\":1123:1132   */\n      dup2\n        /* \"#utility.yul\":1117:1121   */\n      dup2\n        /* \"#utility.yul\":1113:1133   */\n      sub\n        /* \"#utility.yul\":1109:1110   */\n      0x00\n        /* \"#utility.yul\":1098:1107   */\n      dup4\n        /* \"#utility.yul\":1094:1111   */\n      add\n        /* \"#utility.yul\":1087:1134   */\n      mstore\n        /* \"#utility.yul\":1151:1229   */\n      tag_276\n        /* \"#utility.yul\":1224:1228   */\n      dup2\n        /* \"#utility.yul\":1215:1221   */\n      dup5\n        /* \"#utility.yul\":1151:1229   */\n      tag_240\n      jump\t// in\n    tag_276:\n        /* \"#utility.yul\":1143:1229   */\n      swap1\n      pop\n        /* \"#utility.yul\":923:1236   */\n      swap3\n      swap2\n      pop\n      pop\n      jump\t// out\n        /* \"#utility.yul\":1323:1440   */\n    tag_242:\n        /* \"#utility.yul\":1432:1433   */\n      0x00\n        /* \"#utility.yul\":1429:1430   */\n      0x00\n        /* \"#utility.yul\":1422:1434   */\n      revert\n        /* \"#utility.yul\":1569:1695   */\n    tag_244:\n        /* \"#utility.yul\":1606:1613   */\n      0x00\n        /* \"#utility.yul\":1646:1688   */\n      0xffffffffffffffffffffffffffffffffffffffff\n        /* \"#utility.yul\":1639:1644   */\n      dup3\n        /* \"#utility.yul\":1635:1689   */\n      and\n        /* \"#utility.yul\":1624:1689   */\n      swap1\n      pop\n        /* \"#utility.yul\":1569:1695   */\n      swap2\n      swap1\n      pop\n      jump\t// out\n        /* \"#utility.yul\":1701:1797   */\n    tag_245:\n        /* \"#utility.yul\":1738:1745   */\n      0x00\n        /* \"#utility.yul\":1767:1791   */\n      tag_282\n        /* \"#utility.yul\":1785:1790   */\n      dup3\n        /* \"#utility.yul\":1767:1791   */\n      tag_244\n      jump\t// in\n    tag_282:\n        /* \"#utility.yul\":1756:1791   */\n      swap1\n      pop\n        /* \"#utility.yul\":1701:1797   */\n      swap2\n      swap1\n      pop\n      jump\t// out\n        /* \"#utility.yul\":1803:1925   */\n    tag_246:\n        /* \"#utility.yul\":1876:1900   */\n      tag_284\n        /* \"#utility.yul\":1894:1899   */\n      dup2\n        /* \"#utility.yul\":1876:1900   */\n      tag_245\n      jump\t// in\n    tag_284:\n        /* \"#utility.yul\":1869:1874   */\n      dup2\n        /* \"#utility.yul\":1866:1901   */\n      eq\n        /* \"#utility.yul\":1856:1919   */\n      tag_285\n      jumpi\n        /* \"#utility.yul\":1915:1916   */\n      0x00\n        /* \"#utility.yul\":1912:1913   */\n      0x00\n        /* \"#utility.yul\":1905:1917   */\n      revert\n        /* \"#utility.yul\":1856:1919   */\n    tag_285:\n        /* \"#utility.yul\":1803:1925   */\n      pop\n      jump\t// out\n        /* \"#utility.yul\":1931:2070   */\n    tag_247:\n        /* \"#utility.yul\":1977:1982   */\n      0x00\n        /* \"#utility.yul\":2015:2021   */\n      dup2\n        /* \"#utility.yul\":2002:2022   */\n      calldataload\n        /* \"#utility.yul\":1993:2022   */\n      swap1\n      pop\n        /* \"#utility.yul\":2031:2064   */\n      tag_287\n        /* \"#utility.yul\":2058:2063   */\n      dup2\n        /* \"#utility.yul\":2031:2064   */\n      tag_246\n      jump\t// in\n    tag_287:\n        /* \"#utility.yul\":1931:2070   */\n      swap3\n      swap2\n      pop\n      pop\n      jump\t// out\n        /* \"#utility.yul\":2076:2153   */\n    tag_248:\n        /* \"#utility.yul\":2113:2120   */\n      0x00\n        /* \"#utility.yul\":2142:2147   */\n      dup2\n        /* \"#utility.yul\":2131:2147   */\n      swap1\n      pop\n        /* \"#utility.yul\":2076:2153   */\n      swap2\n      swap1\n      pop\n      jump\t// out\n        /* \"#utility.yul\":2159:2281   */\n    tag_249:\n        /* \"#utility.yul\":2232:2256   */\n      tag_290\n        /* \"#utility.yul\":2250:2255   */\n      dup2\n        /* \"#utility.yul\":2232:2256   */\n      tag_248\n      jump\t// in\n    tag_290:\n        /* \"#utility.yul\":2225:2230   */\n      dup2\n        /* \"#utility.yul\":2222:2257   */\n      eq\n        /* \"#utility.yul\":2212:2275   */\n      tag_291\n      jumpi\n        /* \"#utility.yul\":2271:2272   */\n      0x00\n        /* \"#utility.yul\":2268:2269   */\n      0x00\n        /* \"#utility.yul\":2261:2273   */\n      revert\n        /* \"#utility.yul\":2212:2275   */\n    tag_291:\n        /* \"#utility.yul\":2159:2281   */\n      pop\n      jump\t// out\n        /* \"#utility.yul\":2287:2426   */\n    tag_250:\n        /* \"#utility.yul\":2333:2338   */\n      0x00\n        /* \"#utility.yul\":2371:2377   */\n      dup2\n        /* \"#utility.yul\":2358:2378   */\n      calldataload\n        /* \"#utility.yul\":2349:2378   */\n      swap1\n      pop\n        /* \"#utility.yul\":2387:2420   */\n      tag_293\n        /* \"#utility.yul\":2414:2419   */\n      dup2\n        /* \"#utility.yul\":2387:2420   */\n      tag_249\n      jump\t// in\n    tag_293:\n        /* \"#utility.yul\":2287:2426   */\n      swap3\n      swap2\n      pop\n      pop\n      jump\t// out\n        /* \"#utility.yul\":2432:2906   */\n    tag_30:\n        /* \"#utility.yul\":2500:2506   */\n      0x00\n        /* \"#utility.yul\":2508:2514   */\n      0x00\n        /* \"#utility.yul\":2557:2559   */\n      0x40\n        /* \"#utility.yul\":2545:2554   */\n      dup4\n        /* \"#utility.yul\":2536:2543   */\n      dup6\n        /* \"#utility.yul\":2532:2555   */\n      sub\n        /* \"#utility.yul\":2528:2560   */\n      slt\n        /* \"#utility.yul\":2525:2644   */\n      iszero\n      tag_295\n      jumpi\n        /* \"#utility.yul\":2563:2642   */\n      tag_296\n      tag_242\n      jump\t// in\n    tag_296:\n        /* \"#utility.yul\":2525:2644   */\n    tag_295:\n        /* \"#utility.yul\":2683:2684   */\n      0x00\n        /* \"#utility.yul\":2708:2761   */\n      tag_297\n        /* \"#utility.yul\":2753:2760   */\n      dup6\n        /* \"#utility.yul\":2744:2750   */\n      dup3\n        /* \"#utility.yul\":2733:2742   */\n      dup7\n        /* \"#utility.yul\":2729:2751   */\n      add\n        /* \"#utility.yul\":2708:2761   */\n      tag_247\n      jump\t// in\n    tag_297:\n        /* \"#utility.yul\":2698:2761   */\n      swap3\n      pop\n        /* \"#utility.yul\":2654:2771   */\n      pop\n        /* \"#utility.yul\":2810:2812   */\n      0x20\n        /* \"#utility.yul\":2836:2889   */\n      tag_298\n        /* \"#utility.yul\":2881:2888   */\n      dup6\n        /* \"#utility.yul\":2872:2878   */\n      dup3\n        /* \"#utility.yul\":2861:2870   */\n      dup7\n        /* \"#utility.yul\":2857:2879   */\n      add\n        /* \"#utility.yul\":2836:2889   */\n      tag_250\n      jump\t// in\n    tag_298:\n        /* \"#utility.yul\":2826:2889   */\n      swap2\n      pop\n        /* \"#utility.yul\":2781:2899   */\n      pop\n        /* \"#utility.yul\":2432:2906   */\n      swap3\n      pop\n      swap3\n      swap1\n      pop\n      jump\t// out\n        /* \"#utility.yul\":2912:3002   */\n    tag_251:\n        /* \"#utility.yul\":2946:2953   */\n      0x00\n        /* \"#utility.yul\":2989:2994   */\n      dup2\n        /* \"#utility.yul\":2982:2995   */\n      iszero\n        /* \"#utility.yul\":2975:2996   */\n      iszero\n        /* \"#utility.yul\":2964:2996   */\n      swap1\n      pop\n        /* \"#utility.yul\":2912:3002   */\n      swap2\n      swap1\n      pop\n      jump\t// out\n        /* \"#utility.yul\":3008:3117   */\n    tag_252:\n        /* \"#utility.yul\":3089:3110   */\n      tag_301\n        /* \"#utility.yul\":3104:3109   */\n      dup2\n        /* \"#utility.yul\":3089:3110   */\n      tag_251\n      jump\t// in\n    tag_301:\n        /* \"#utility.yul\":3084:3087   */\n      dup3\n        /* \"#utility.yul\":3077:3111   */\n      mstore\n        /* \"#utility.yul\":3008:3117   */\n      pop\n      pop\n      jump\t// out\n        /* \"#utility.yul\":3123:3333   */\n    tag_33:\n        /* \"#utility.yul\":3210:3214   */\n      0x00\n        /* \"#utility.yul\":3248:3250   */\n      0x20\n        /* \"#utility.yul\":3237:3246   */\n      dup3\n        /* \"#utility.yul\":3233:3251   */\n      add\n        /* \"#utility.yul\":3225:3251   */\n      swap1\n      pop\n        /* \"#utility.yul\":3261:3326   */\n      tag_303\n        /* \"#utility.yul\":3323:3324   */\n      0x00\n        /* \"#utility.yul\":3312:3321   */\n      dup4\n        /* \"#utility.yul\":3308:3325   */\n      add\n        /* \"#utility.yul\":3299:3305   */\n      dup5\n        /* \"#utility.yul\":3261:3326   */\n      tag_252\n      jump\t// in\n    tag_303:\n        /* \"#utility.yul\":3123:3333   */\n      swap3\n      swap2\n      pop\n      pop\n      jump\t// out\n        /* \"#utility.yul\":3339:3457   */\n    tag_253:\n        /* \"#utility.yul\":3426:3450   */\n      tag_305\n        /* \"#utility.yul\":3444:3449   */\n      dup2\n        /* \"#utility.yul\":3426:3450   */\n      tag_248\n      jump\t// in\n    tag_305:\n        /* \"#utility.yul\":3421:3424   */\n      dup3\n        /* \"#utility.yul\":3414:3451   */\n      mstore\n        /* \"#utility.yul\":3339:3457   */\n      pop\n      pop\n      jump\t// out\n        /* \"#utility.yul\":3463:3685   */\n    tag_37:\n        /* \"#utility.yul\":3556:3560   */\n      0x00\n        /* \"#utility.yul\":3594:3596   */\n      0x20\n        /* \"#utility.yul\":3583:3592   */\n      dup3\n        /* \"#utility.yul\":3579:3597   */\n      add\n        /* \"#utility.yul\":3571:3597   */\n      swap1\n      pop\n        /* \"#utility.yul\":3607:3678   */\n      tag_307\n        /* \"#utility.yul\":3675:3676   */\n      0x00\n        /* \"#utility.yul\":3664:3673   */\n      dup4\n        /* \"#utility.yul\":3660:3677   */\n      add\n        /* \"#utility.yul\":3651:3657   */\n      dup5\n        /* \"#utility.yul\":3607:3678   */\n      tag_253\n      jump\t// in\n    tag_307:\n        /* \"#utility.yul\":3463:3685   */\n      swap3\n      swap2\n      pop\n      pop\n      jump\t// out\n        /* \"#utility.yul\":3691:4310   */\n    tag_40:\n        /* \"#utility.yul\":3768:3774   */\n      0x00\n        /* \"#utility.yul\":3776:3782   */\n      0x00\n        /* \"#utility.yul\":3784:3790   */\n      0x00\n        /* \"#utility.yul\":3833:3835   */\n      0x60\n        /* \"#utility.yul\":3821:3830   */\n      dup5\n        /* \"#utility.yul\":3812:3819   */\n      dup7\n        /* \"#utility.yul\":3808:3831   */\n      sub\n        /* \"#utility.yul\":3804:3836   */\n      slt\n        /* \"#utility.yul\":3801:3920   */\n      iszero\n      tag_309\n      jumpi\n        /* \"#utility.yul\":3839:3918   */\n      tag_310\n      tag_242\n      jump\t// in\n    tag_310:\n        /* \"#utility.yul\":3801:3920   */\n    tag_309:\n        /* \"#utility.yul\":3959:3960   */\n      0x00\n        /* \"#utility.yul\":3984:4037   */\n      tag_311\n        /* \"#utility.yul\":4029:4036   */\n      dup7\n        /* \"#utility.yul\":4020:4026   */\n      dup3\n        /* \"#utility.yul\":4009:4018   */\n      dup8\n        /* \"#utility.yul\":4005:4027   */\n      add\n        /* \"#utility.yul\":3984:4037   */\n      tag_247\n      jump\t// in\n    tag_311:\n        /* \"#utility.yul\":3974:4037   */\n      swap4\n      pop\n        /* \"#utility.yul\":3930:4047   */\n      pop\n        /* \"#utility.yul\":4086:4088   */\n      0x20\n        /* \"#utility.yul\":4112:4165   */\n      tag_312\n        /* \"#utility.yul\":4157:4164   */\n      dup7\n        /* \"#utility.yul\":4148:4154   */\n      dup3\n        /* \"#utility.yul\":4137:4146   */\n      dup8\n        /* \"#utility.yul\":4133:4155   */\n      add\n        /* \"#utility.yul\":4112:4165   */\n      tag_247\n      jump\t// in\n    tag_312:\n        /* \"#utility.yul\":4102:4165   */\n      swap3\n      pop\n        /* \"#utility.yul\":4057:4175   */\n      pop\n        /* \"#utility.yul\":4214:4216   */\n      0x40\n        /* \"#utility.yul\":4240:4293   */\n      tag_313\n        /* \"#utility.yul\":4285:4292   */\n      dup7\n        /* \"#utility.yul\":4276:4282   */\n      dup3\n        /* \"#utility.yul\":4265:4274   */\n      dup8\n        /* \"#utility.yul\":4261:4283   */\n      add\n        /* \"#utility.yul\":4240:4293   */\n      tag_250\n      jump\t// in\n    tag_313:\n        /* \"#utility.yul\":4230:4293   */\n      swap2\n      pop\n        /* \"#utility.yul\":4185:4303   */\n      pop\n        /* \"#utility.yul\":3691:4310   */\n      swap3\n      pop\n      swap3\n      pop\n      swap3\n      jump\t// out\n        /* \"#utility.yul\":4316:4402   */\n    tag_254:\n        /* \"#utility.yul\":4351:4358   */\n      0x00\n        /* \"#utility.yul\":4391:4395   */\n      0xff\n        /* \"#utility.yul\":4384:4389   */\n      dup3\n        /* \"#utility.yul\":4380:4396   */\n      and\n        /* \"#utility.yul\":4369:4396   */\n      swap1\n      pop\n        /* \"#utility.yul\":4316:4402   */\n      swap2\n      swap1\n      pop\n      jump\t// out\n        /* \"#utility.yul\":4408:4520   */\n    tag_255:\n        /* \"#utility.yul\":4491:4513   */\n      tag_316\n        /* \"#utility.yul\":4507:4512   */\n      dup2\n        /* \"#utility.yul\":4491:4513   */\n      tag_254\n      jump\t// in\n    tag_316:\n        /* \"#utility.yul\":4486:4489   */\n      dup3\n        /* \"#utility.yul\":4479:4514   */\n      mstore\n        /* \"#utility.yul\":4408:4520   */\n      pop\n      pop\n      jump\t// out\n        /* \"#utility.yul\":4526:4740   */\n    tag_46:\n        /* \"#utility.yul\":4615:4619   */\n      0x00\n        /* \"#utility.yul\":4653:4655   */\n      0x20\n        /* \"#utility.yul\":4642:4651   */\n      dup3\n        /* \"#utility.yul\":4638:4656   */\n      add\n        /* \"#utility.yul\":4630:4656   */\n      swap1\n      pop\n        /* \"#utility.yul\":4666:4733   */\n      tag_318\n        /* \"#utility.yul\":4730:4731   */\n      0x00\n        /* \"#utility.yul\":4719:4728   */\n      dup4\n        /* \"#utility.yul\":4715:4732   */\n      add\n        /* \"#utility.yul\":4706:4712   */\n      dup5\n        /* \"#utility.yul\":4666:4733   */\n      tag_255\n      jump\t// in\n    tag_318:\n        /* \"#utility.yul\":4526:4740   */\n      swap3\n      swap2\n      pop\n      pop\n      jump\t// out\n        /* \"#utility.yul\":4746:5075   */\n    tag_54:\n        /* \"#utility.yul\":4805:4811   */\n      0x00\n        /* \"#utility.yul\":4854:4856   */\n      0x20\n        /* \"#utility.yul\":4842:4851   */\n      dup3\n        /* \"#utility.yul\":4833:4840   */\n      dup5\n        /* \"#utility.yul\":4829:4852   */\n      sub\n        /* \"#utility.yul\":4825:4857   */\n      slt\n        /* \"#utility.yul\":4822:4941   */\n      iszero\n      tag_320\n      jumpi\n        /* \"#utility.yul\":4860:4939   */\n      tag_321\n      tag_242\n      jump\t// in\n    tag_321:\n        /* \"#utility.yul\":4822:4941   */\n    tag_320:\n        /* \"#utility.yul\":4980:4981   */\n      0x00\n        /* \"#utility.yul\":5005:5058   */\n      tag_322\n        /* \"#utility.yul\":5050:5057   */\n      dup5\n        /* \"#utility.yul\":5041:5047   */\n      dup3\n        /* \"#utility.yul\":5030:5039   */\n      dup6\n        /* \"#utility.yul\":5026:5048   */\n      add\n        /* \"#utility.yul\":5005:5058   */\n      tag_250\n      jump\t// in\n    tag_322:\n        /* \"#utility.yul\":4995:5058   */\n      swap2\n      pop\n        /* \"#utility.yul\":4951:5068   */\n      pop\n        /* \"#utility.yul\":4746:5075   */\n      swap3\n      swap2\n      pop\n      pop\n      jump\t// out\n        /* \"#utility.yul\":5081:5410   */\n    tag_61:\n        /* \"#utility.yul\":5140:5146   */\n      0x00\n        /* \"#utility.yul\":5189:5191   */\n      0x20\n        /* \"#utility.yul\":5177:5186   */\n      dup3\n        /* \"#utility.yul\":5168:5175   */\n      dup5\n        /* \"#utility.yul\":5164:5187   */\n      sub\n        /* \"#utility.yul\":5160:5192   */\n      slt\n        /* \"#utility.yul\":5157:5276   */\n      iszero\n      tag_324\n      jumpi\n        /* \"#utility.yul\":5195:5274   */\n      tag_325\n      tag_242\n      jump\t// in\n    tag_325:\n        /* \"#utility.yul\":5157:5276   */\n    tag_324:\n        /* \"#utility.yul\":5315:5316   */\n      0x00\n        /* \"#utility.yul\":5340:5393   */\n      tag_326\n        /* \"#utility.yul\":5385:5392   */\n      dup5\n        /* \"#utility.yul\":5376:5382   */\n      dup3\n        /* \"#utility.yul\":5365:5374   */\n      dup6\n        /* \"#utility.yul\":5361:5383   */\n      add\n        /* \"#utility.yul\":5340:5393   */\n      tag_247\n      jump\t// in\n    tag_326:\n        /* \"#utility.yul\":5330:5393   */\n      swap2\n      pop\n        /* \"#utility.yul\":5286:5403   */\n      pop\n        /* \"#utility.yul\":5081:5410   */\n      swap3\n      swap2\n      pop\n      pop\n      jump\t// out\n        /* \"#utility.yul\":5416:5534   */\n    tag_256:\n        /* \"#utility.yul\":5503:5527   */\n      tag_328\n        /* \"#utility.yul\":5521:5526   */\n      dup2\n        /* \"#utility.yul\":5503:5527   */\n      tag_245\n      jump\t// in\n    tag_328:\n        /* \"#utility.yul\":5498:5501   */\n      dup3\n        /* \"#utility.yul\":5491:5528   */\n      mstore\n        /* \"#utility.yul\":5416:5534   */\n      pop\n      pop\n      jump\t// out\n        /* \"#utility.yul\":5540:5762   */\n    tag_74:\n        /* \"#utility.yul\":5633:5637   */\n      0x00\n        /* \"#utility.yul\":5671:5673   */\n      0x20\n        /* \"#utility.yul\":5660:5669   */\n      dup3\n        /* \"#utility.yul\":5656:5674   */\n      add\n        /* \"#utility.yul\":5648:5674   */\n      swap1\n      pop\n        /* \"#utility.yul\":5684:5755   */\n      tag_330\n        /* \"#utility.yul\":5752:5753   */\n      0x00\n        /* \"#utility.yul\":5741:5750   */\n      dup4\n        /* \"#utility.yul\":5737:5754   */\n      add\n        /* \"#utility.yul\":5728:5734   */\n      dup5\n        /* \"#utility.yul\":5684:5755   */\n      tag_256\n      jump\t// in\n    tag_330:\n        /* \"#utility.yul\":5540:5762   */\n      swap3\n      swap2\n      pop\n      pop\n      jump\t// out\n        /* \"#utility.yul\":5768:6242   */\n    tag_84:\n        /* \"#utility.yul\":5836:5842   */\n      0x00\n        /* \"#utility.yul\":5844:5850   */\n      0x00\n        /* \"#utility.yul\":5893:5895   */\n      0x40\n        /* \"#utility.yul\":5881:5890   */\n      dup4\n        /* \"#utility.yul\":5872:5879   */\n      dup6\n        /* \"#utility.yul\":5868:5891   */\n      sub\n        /* \"#utility.yul\":5864:5896   */\n      slt\n        /* \"#utility.yul\":5861:5980   */\n      iszero\n      tag_332\n      jumpi\n        /* \"#utility.yul\":5899:5978   */\n      tag_333\n      tag_242\n      jump\t// in\n    tag_333:\n        /* \"#utility.yul\":5861:5980   */\n    tag_332:\n        /* \"#utility.yul\":6019:6020   */\n      0x00\n        /* \"#utility.yul\":6044:6097   */\n      tag_334\n        /* \"#utility.yul\":6089:6096   */\n      dup6\n        /* \"#utility.yul\":6080:6086   */\n      dup3\n        /* \"#utility.yul\":6069:6078   */\n      dup7\n        /* \"#utility.yul\":6065:6087   */\n      add\n        /* \"#utility.yul\":6044:6097   */\n      tag_247\n      jump\t// in\n    tag_334:\n        /* \"#utility.yul\":6034:6097   */\n      swap3\n      pop\n        /* \"#utility.yul\":5990:6107   */\n      pop\n        /* \"#utility.yul\":6146:6148   */\n      0x20\n        /* \"#utility.yul\":6172:6225   */\n      tag_335\n        /* \"#utility.yul\":6217:6224   */\n      dup6\n        /* \"#utility.yul\":6208:6214   */\n      dup3\n        /* \"#utility.yul\":6197:6206   */\n      dup7\n        /* \"#utility.yul\":6193:6215   */\n      add\n        /* \"#utility.yul\":6172:6225   */\n      tag_247\n      jump\t// in\n    tag_335:\n        /* \"#utility.yul\":6162:6225   */\n      swap2\n      pop\n        /* \"#utility.yul\":6117:6235   */\n      pop\n        /* \"#utility.yul\":5768:6242   */\n      swap3\n      pop\n      swap3\n      swap1\n      pop\n      jump\t// out\n        /* \"#utility.yul\":6248:6428   */\n    tag_257:\n        /* \"#utility.yul\":6296:6373   */\n      0x4e487b7100000000000000000000000000000000000000000000000000000000\n        /* \"#utility.yul\":6293:6294   */\n      0x00\n        /* \"#utility.yul\":6286:6374   */\n      mstore\n        /* \"#utility.yul\":6393:6397   */\n      0x22\n        /* \"#utility.yul\":6390:6391   */\n      0x04\n        /* \"#utility.yul\":6383:6398   */\n      mstore\n        /* \"#utility.yul\":6417:6421   */\n      0x24\n        /* \"#utility.yul\":6414:6415   */\n      0x00\n        /* \"#utility.yul\":6407:6422   */\n      revert\n        /* \"#utility.yul\":6434:6754   */\n    tag_92:\n        /* \"#utility.yul\":6478:6484   */\n      0x00\n        /* \"#utility.yul\":6515:6516   */\n      0x02\n        /* \"#utility.yul\":6509:6513   */\n      dup3\n        /* \"#utility.yul\":6505:6517   */\n      div\n        /* \"#utility.yul\":6495:6517   */\n      swap1\n      pop\n        /* \"#utility.yul\":6562:6563   */\n      0x01\n        /* \"#utility.yul\":6556:6560   */\n      dup3\n        /* \"#utility.yul\":6552:6564   */\n      and\n        /* \"#utility.yul\":6583:6601   */\n      dup1\n        /* \"#utility.yul\":6573:6654   */\n      tag_338\n      jumpi\n        /* \"#utility.yul\":6639:6643   */\n      0x7f\n        /* \"#utility.yul\":6631:6637   */\n      dup3\n        /* \"#utility.yul\":6627:6644   */\n      and\n        /* \"#utility.yul\":6617:6644   */\n      swap2\n      pop\n        /* \"#utility.yul\":6573:6654   */\n    tag_338:\n        /* \"#utility.yul\":6701:6703   */\n      0x20\n        /* \"#utility.yul\":6693:6699   */\n      dup3\n        /* \"#utility.yul\":6690:6704   */\n      lt\n        /* \"#utility.yul\":6670:6688   */\n      dup2\n        /* \"#utility.yul\":6667:6705   */\n      sub\n        /* \"#utility.yul\":6664:6748   */\n      tag_339\n      jumpi\n        /* \"#utility.yul\":6720:6738   */\n      tag_340\n      tag_257\n      jump\t// in\n    tag_340:\n        /* \"#utility.yul\":6664:6748   */\n    tag_339:\n        /* \"#utility.yul\":6485:6754   */\n      pop\n        /* \"#utility.yul\":6434:6754   */\n      swap2\n      swap1\n      pop\n      jump\t// out\n        /* \"#utility.yul\":6760:6939   */\n    tag_258:\n        /* \"#utility.yul\":6900:6931   */\n      0x4275726e20616d6f756e74206578636565647320616c6c6f77616e6365000000\n        /* \"#utility.yul\":6896:6897   */\n      0x00\n        /* \"#utility.yul\":6888:6894   */\n      dup3\n        /* \"#utility.yul\":6884:6898   */\n      add\n        /* \"#utility.yul\":6877:6932   */\n      mstore\n        /* \"#utility.yul\":6760:6939   */\n      pop\n      jump\t// out\n        /* \"#utility.yul\":6945:7311   */\n    tag_259:\n        /* \"#utility.yul\":7087:7090   */\n      0x00\n        /* \"#utility.yul\":7108:7175   */\n      tag_343\n        /* \"#utility.yul\":7172:7174   */\n      0x1d\n        /* \"#utility.yul\":7167:7170   */\n      dup4\n        /* \"#utility.yul\":7108:7175   */\n      tag_237\n      jump\t// in\n    tag_343:\n        /* \"#utility.yul\":7101:7175   */\n      swap2\n      pop\n        /* \"#utility.yul\":7184:7277   */\n      tag_344\n        /* \"#utility.yul\":7273:7276   */\n      dup3\n        /* \"#utility.yul\":7184:7277   */\n      tag_258\n      jump\t// in\n    tag_344:\n        /* \"#utility.yul\":7302:7304   */\n      0x20\n        /* \"#utility.yul\":7297:7300   */\n      dup3\n        /* \"#utility.yul\":7293:7305   */\n      add\n        /* \"#utility.yul\":7286:7305   */\n      swap1\n      pop\n        /* \"#utility.yul\":6945:7311   */\n      swap2\n      swap1\n      pop\n      jump\t// out\n        /* \"#utility.yul\":7317:7736   */\n    tag_137:\n        /* \"#utility.yul\":7483:7487   */\n      0x00\n        /* \"#utility.yul\":7521:7523   */\n      0x20\n        /* \"#utility.yul\":7510:7519   */\n      dup3\n        /* \"#utility.yul\":7506:7524   */\n      add\n        /* \"#utility.yul\":7498:7524   */\n      swap1\n      pop\n        /* \"#utility.yul\":7570:7579   */\n      dup2\n        /* \"#utility.yul\":7564:7568   */\n      dup2\n        /* \"#utility.yul\":7560:7580   */\n      sub\n        /* \"#utility.yul\":7556:7557   */\n      0x00\n        /* \"#utility.yul\":7545:7554   */\n      dup4\n        /* \"#utility.yul\":7541:7558   */\n      add\n        /* \"#utility.yul\":7534:7581   */\n      mstore\n        /* \"#utility.yul\":7598:7729   */\n      tag_346\n        /* \"#utility.yul\":7724:7728   */\n      dup2\n        /* \"#utility.yul\":7598:7729   */\n      tag_259\n      jump\t// in\n    tag_346:\n        /* \"#utility.yul\":7590:7729   */\n      swap1\n      pop\n        /* \"#utility.yul\":7317:7736   */\n      swap2\n      swap1\n      pop\n      jump\t// out\n        /* \"#utility.yul\":7742:7922   */\n    tag_260:\n        /* \"#utility.yul\":7790:7867   */\n      0x4e487b7100000000000000000000000000000000000000000000000000000000\n        /* \"#utility.yul\":7787:7788   */\n      0x00\n        /* \"#utility.yul\":7780:7868   */\n      mstore\n        /* \"#utility.yul\":7887:7891   */\n      0x11\n        /* \"#utility.yul\":7884:7885   */\n      0x04\n        /* \"#utility.yul\":7877:7892   */\n      mstore\n        /* \"#utility.yul\":7911:7915   */\n      0x24\n        /* \"#utility.yul\":7908:7909   */\n      0x00\n        /* \"#utility.yul\":7901:7916   */\n      revert\n        /* \"#utility.yul\":7928:8122   */\n    tag_140:\n        /* \"#utility.yul\":7968:7972   */\n      0x00\n        /* \"#utility.yul\":7988:8008   */\n      tag_349\n        /* \"#utility.yul\":8006:8007   */\n      dup3\n        /* \"#utility.yul\":7988:8008   */\n      tag_248\n      jump\t// in\n    tag_349:\n        /* \"#utility.yul\":7983:8008   */\n      swap2\n      pop\n        /* \"#utility.yul\":8022:8042   */\n      tag_350\n        /* \"#utility.yul\":8040:8041   */\n      dup4\n        /* \"#utility.yul\":8022:8042   */\n      tag_248\n      jump\t// in\n    tag_350:\n        /* \"#utility.yul\":8017:8042   */\n      swap3\n      pop\n        /* \"#utility.yul\":8066:8067   */\n      dup3\n        /* \"#utility.yul\":8063:8064   */\n      dup3\n        /* \"#utility.yul\":8059:8068   */\n      sub\n        /* \"#utility.yul\":8051:8068   */\n      swap1\n      pop\n        /* \"#utility.yul\":8090:8091   */\n      dup2\n        /* \"#utility.yul\":8084:8088   */\n      dup2\n        /* \"#utility.yul\":8081:8092   */\n      gt\n        /* \"#utility.yul\":8078:8115   */\n      iszero\n      tag_351\n      jumpi\n        /* \"#utility.yul\":8095:8113   */\n      tag_352\n      tag_260\n      jump\t// in\n    tag_352:\n        /* \"#utility.yul\":8078:8115   */\n    tag_351:\n        /* \"#utility.yul\":7928:8122   */\n      swap3\n      swap2\n      pop\n      pop\n      jump\t// out\n        /* \"#utility.yul\":8128:8570   */\n    tag_173:\n        /* \"#utility.yul\":8277:8281   */\n      0x00\n        /* \"#utility.yul\":8315:8317   */\n      0x60\n        /* \"#utility.yul\":8304:8313   */\n      dup3\n        /* \"#utility.yul\":8300:8318   */\n      add\n        /* \"#utility.yul\":8292:8318   */\n      swap1\n      pop\n        /* \"#utility.yul\":8328:8399   */\n      tag_354\n        /* \"#utility.yul\":8396:8397   */\n      0x00\n        /* \"#utility.yul\":8385:8394   */\n      dup4\n        /* \"#utility.yul\":8381:8398   */\n      add\n        /* \"#utility.yul\":8372:8378   */\n      dup7\n        /* \"#utility.yul\":8328:8399   */\n      tag_256\n      jump\t// in\n    tag_354:\n        /* \"#utility.yul\":8409:8481   */\n      tag_355\n        /* \"#utility.yul\":8477:8479   */\n      0x20\n        /* \"#utility.yul\":8466:8475   */\n      dup4\n        /* \"#utility.yul\":8462:8480   */\n      add\n        /* \"#utility.yul\":8453:8459   */\n      dup6\n        /* \"#utility.yul\":8409:8481   */\n      tag_253\n      jump\t// in\n    tag_355:\n        /* \"#utility.yul\":8491:8563   */\n      tag_356\n        /* \"#utility.yul\":8559:8561   */\n      0x40\n        /* \"#utility.yul\":8548:8557   */\n      dup4\n        /* \"#utility.yul\":8544:8562   */\n      add\n        /* \"#utility.yul\":8535:8541   */\n      dup5\n        /* \"#utility.yul\":8491:8563   */\n      tag_253\n      jump\t// in\n    tag_356:\n        /* \"#utility.yul\":8128:8570   */\n      swap5\n      swap4\n      pop\n      pop\n      pop\n      pop\n      jump\t// out\n        /* \"#utility.yul\":8576:8767   */\n    tag_219:\n        /* \"#utility.yul\":8616:8619   */\n      0x00\n        /* \"#utility.yul\":8635:8655   */\n      tag_358\n        /* \"#utility.yul\":8653:8654   */\n      dup3\n        /* \"#utility.yul\":8635:8655   */\n      tag_248\n      jump\t// in\n    tag_358:\n        /* \"#utility.yul\":8630:8655   */\n      swap2\n      pop\n        /* \"#utility.yul\":8669:8689   */\n      tag_359\n        /* \"#utility.yul\":8687:8688   */\n      dup4\n        /* \"#utility.yul\":8669:8689   */\n      tag_248\n      jump\t// in\n    tag_359:\n        /* \"#utility.yul\":8664:8689   */\n      swap3\n      pop\n        /* \"#utility.yul\":8712:8713   */\n      dup3\n        /* \"#utility.yul\":8709:8710   */\n      dup3\n        /* \"#utility.yul\":8705:8714   */\n      add\n        /* \"#utility.yul\":8698:8714   */\n      swap1\n      pop\n        /* \"#utility.yul\":8733:8736   */\n      dup1\n        /* \"#utility.yul\":8730:8731   */\n      dup3\n        /* \"#utility.yul\":8727:8737   */\n      gt\n        /* \"#utility.yul\":8724:8760   */\n      iszero\n      tag_360\n      jumpi\n        /* \"#utility.yul\":8740:8758   */\n      tag_361\n      tag_260\n      jump\t// in\n    tag_361:\n        /* \"#utility.yul\":8724:8760   */\n    tag_360:\n        /* \"#utility.yul\":8576:8767   */\n      swap3\n      swap2\n      pop\n      pop\n      jump\t// out\n        /* \"#utility.yul\":8773:8943   */\n    tag_261:\n        /* \"#utility.yul\":8913:8935   */\n      0x5061757361626c653a206e6f7420706175736564000000000000000000000000\n        /* \"#utility.yul\":8909:8910   */\n      0x00\n        /* \"#utility.yul\":8901:8907   */\n      dup3\n        /* \"#utility.yul\":8897:8911   */\n      add\n        /* \"#utility.yul\":8890:8936   */\n      mstore\n        /* \"#utility.yul\":8773:8943   */\n      pop\n      jump\t// out\n        /* \"#utility.yul\":8949:9315   */\n    tag_262:\n        /* \"#utility.yul\":9091:9094   */\n      0x00\n        /* \"#utility.yul\":9112:9179   */\n      tag_364\n        /* \"#utility.yul\":9176:9178   */\n      0x14\n        /* \"#utility.yul\":9171:9174   */\n      dup4\n        /* \"#utility.yul\":9112:9179   */\n      tag_237\n      jump\t// in\n    tag_364:\n        /* \"#utility.yul\":9105:9179   */\n      swap2\n      pop\n        /* \"#utility.yul\":9188:9281   */\n      tag_365\n        /* \"#utility.yul\":9277:9280   */\n      dup3\n        /* \"#utility.yul\":9188:9281   */\n      tag_261\n      jump\t// in\n    tag_365:\n        /* \"#utility.yul\":9306:9308   */\n      0x20\n        /* \"#utility.yul\":9301:9304   */\n      dup3\n        /* \"#utility.yul\":9297:9309   */\n      add\n        /* \"#utility.yul\":9290:9309   */\n      swap1\n      pop\n        /* \"#utility.yul\":8949:9315   */\n      swap2\n      swap1\n      pop\n      jump\t// out\n        /* \"#utility.yul\":9321:9740   */\n    tag_230:\n        /* \"#utility.yul\":9487:9491   */\n      0x00\n        /* \"#utility.yul\":9525:9527   */\n      0x20\n        /* \"#utility.yul\":9514:9523   */\n      dup3\n        /* \"#utility.yul\":9510:9528   */\n      add\n        /* \"#utility.yul\":9502:9528   */\n      swap1\n      pop\n        /* \"#utility.yul\":9574:9583   */\n      dup2\n        /* \"#utility.yul\":9568:9572   */\n      dup2\n        /* \"#utility.yul\":9564:9584   */\n      sub\n        /* \"#utility.yul\":9560:9561   */\n      0x00\n        /* \"#utility.yul\":9549:9558   */\n      dup4\n        /* \"#utility.yul\":9545:9562   */\n      add\n        /* \"#utility.yul\":9538:9585   */\n      mstore\n        /* \"#utility.yul\":9602:9733   */\n      tag_367\n        /* \"#utility.yul\":9728:9732   */\n      dup2\n        /* \"#utility.yul\":9602:9733   */\n      tag_262\n      jump\t// in\n    tag_367:\n        /* \"#utility.yul\":9594:9733   */\n      swap1\n      pop\n        /* \"#utility.yul\":9321:9740   */\n      swap2\n      swap1\n      pop\n      jump\t// out\n        /* \"#utility.yul\":9746:9912   */\n    tag_263:\n        /* \"#utility.yul\":9886:9904   */\n      0x5061757361626c653a2070617573656400000000000000000000000000000000\n        /* \"#utility.yul\":9882:9883   */\n      0x00\n        /* \"#utility.yul\":9874:9880   */\n      dup3\n        /* \"#utility.yul\":9870:9884   */\n      add\n        /* \"#utility.yul\":9863:9905   */\n      mstore\n        /* \"#utility.yul\":9746:9912   */\n      pop\n      jump\t// out\n        /* \"#utility.yul\":9918:10284   */\n    tag_264:\n        /* \"#utility.yul\":10060:10063   */\n      0x00\n        /* \"#utility.yul\":10081:10148   */\n      tag_370\n        /* \"#utility.yul\":10145:10147   */\n      0x10\n        /* \"#utility.yul\":10140:10143   */\n      dup4\n        /* \"#utility.yul\":10081:10148   */\n      tag_237\n      jump\t// in\n    tag_370:\n        /* \"#utility.yul\":10074:10148   */\n      swap2\n      pop\n        /* \"#utility.yul\":10157:10250   */\n      tag_371\n        /* \"#utility.yul\":10246:10249   */\n      dup3\n        /* \"#utility.yul\":10157:10250   */\n      tag_263\n      jump\t// in\n    tag_371:\n        /* \"#utility.yul\":10275:10277   */\n      0x20\n        /* \"#utility.yul\":10270:10273   */\n      dup3\n        /* \"#utility.yul\":10266:10278   */\n      add\n        /* \"#utility.yul\":10259:10278   */\n      swap1\n      pop\n        /* \"#utility.yul\":9918:10284   */\n      swap2\n      swap1\n      pop\n      jump\t// out\n        /* \"#utility.yul\":10290:10709   */\n    tag_235:\n        /* \"#utility.yul\":10456:10460   */\n      0x00\n        /* \"#utility.yul\":10494:10496   */\n      0x20\n        /* \"#utility.yul\":10483:10492   */\n      dup3\n        /* \"#utility.yul\":10479:10497   */\n      add\n        /* \"#utility.yul\":10471:10497   */\n      swap1\n      pop\n        /* \"#utility.yul\":10543:10552   */\n      dup2\n        /* \"#utility.yul\":10537:10541   */\n      dup2\n        /* \"#utility.yul\":10533:10553   */\n      sub\n        /* \"#utility.yul\":10529:10530   */\n      0x00\n        /* \"#utility.yul\":10518:10527   */\n      dup4\n        /* \"#utility.yul\":10514:10531   */\n      add\n        /* \"#utility.yul\":10507:10554   */\n      mstore\n        /* \"#utility.yul\":10571:10702   */\n      tag_373\n        /* \"#utility.yul\":10697:10701   */\n      dup2\n        /* \"#utility.yul\":10571:10702   */\n      tag_264\n      jump\t// in\n    tag_373:\n        /* \"#utility.yul\":10563:10702   */\n      swap1\n      pop\n        /* \"#utility.yul\":10290:10709   */\n      swap2\n      swap1\n      pop\n      jump\t// out\n\n    auxdata: 0xa26469706673582212207cf15792ed0ae03ad45f64b1ee9777b64d2f241b10ea0703e20f900fc17b9a8364736f6c634300081c0033\n}\n",
				"bytecode": {
					"linkReferences": {},
					"object": "608060405234801561000f575f5ffd5b50336040518060400160405280600581526020017f446567656e0000000000000000000000000000000000000000000000000000008152506040518060400160405280600381526020017f44474e0000000000000000000000000000000000000000000000000000000000815250816003908161008c9190610732565b50806004908161009c9190610732565b5050505f73ffffffffffffffffffffffffffffffffffffffff168173ffffffffffffffffffffffffffffffffffffffff160361010f575f6040517f1e4fbdf70000000000000000000000000000000000000000000000000000000081526004016101069190610840565b60405180910390fd5b61011e8161019460201b60201c565b505f600560146101000a81548160ff0219169083151502179055506012600560156101000a81548160ff021916908360ff16021790555061018f33600560159054906101000a900460ff1660ff16600a61017891906109b5565b606461018491906109ff565b61025760201b60201c565b610ad0565b5f60055f9054906101000a900473ffffffffffffffffffffffffffffffffffffffff1690508160055f6101000a81548173ffffffffffffffffffffffffffffffffffffffff021916908373ffffffffffffffffffffffffffffffffffffffff1602179055508173ffffffffffffffffffffffffffffffffffffffff168173ffffffffffffffffffffffffffffffffffffffff167f8be0079c531659141344cd1fd0a4f28419497f9722a3daafe3b4186f6b6457e060405160405180910390a35050565b5f73ffffffffffffffffffffffffffffffffffffffff168273ffffffffffffffffffffffffffffffffffffffff16036102c7575f6040517fec442f050000000000000000000000000000000000000000000000000000000081526004016102be9190610840565b60405180910390fd5b6102d85f83836102dc60201b60201c565b5050565b5f73ffffffffffffffffffffffffffffffffffffffff168373ffffffffffffffffffffffffffffffffffffffff160361032c578060025f8282546103209190610a40565b925050819055506103fa565b5f5f5f8573ffffffffffffffffffffffffffffffffffffffff1673ffffffffffffffffffffffffffffffffffffffff1681526020019081526020015f20549050818110156103b5578381836040517fe450d38c0000000000000000000000000000000000000000000000000000000081526004016103ac93929190610a82565b60405180910390fd5b8181035f5f8673ffffffffffffffffffffffffffffffffffffffff1673ffffffffffffffffffffffffffffffffffffffff1681526020019081526020015f2081905550505b5f73ffffffffffffffffffffffffffffffffffffffff168273ffffffffffffffffffffffffffffffffffffffff1603610441578060025f828254039250508190555061048b565b805f5f8473ffffffffffffffffffffffffffffffffffffffff1673ffffffffffffffffffffffffffffffffffffffff1681526020019081526020015f205f82825401925050819055505b8173ffffffffffffffffffffffffffffffffffffffff168373ffffffffffffffffffffffffffffffffffffffff167fddf252ad1be2c89b69c2b068fc378daa952ba7f163c4a11628f55a4df523b3ef836040516104e89190610ab7565b60405180910390a3505050565b5f81519050919050565b7f4e487b71000000000000000000000000000000000000000000000000000000005f52604160045260245ffd5b7f4e487b71000000000000000000000000000000000000000000000000000000005f52602260045260245ffd5b5f600282049050600182168061057057607f821691505b6020821081036105835761058261052c565b5b50919050565b5f819050815f5260205f209050919050565b5f6020601f8301049050919050565b5f82821b905092915050565b5f600883026105e57fffffffffffffffffffffffffffffffffffffffffffffffffffffffffffffffff826105aa565b6105ef86836105aa565b95508019841693508086168417925050509392505050565b5f819050919050565b5f819050919050565b5f61063361062e61062984610607565b610610565b610607565b9050919050565b5f819050919050565b61064c83610619565b6106606106588261063a565b8484546105b6565b825550505050565b5f5f905090565b610677610668565b610682818484610643565b505050565b5b818110156106a55761069a5f8261066f565b600181019050610688565b5050565b601f8211156106ea576106bb81610589565b6106c48461059b565b810160208510156106d3578190505b6106e76106df8561059b565b830182610687565b50505b505050565b5f82821c905092915050565b5f61070a5f19846008026106ef565b1980831691505092915050565b5f61072283836106fb565b9150826002028217905092915050565b61073b826104f5565b67ffffffffffffffff811115610754576107536104ff565b5b61075e8254610559565b6107698282856106a9565b5f60209050601f83116001811461079a575f8415610788578287015190505b6107928582610717565b8655506107f9565b601f1984166107a886610589565b5f5b828110156107cf578489015182556001820191506020850194506020810190506107aa565b868310156107ec57848901516107e8601f8916826106fb565b8355505b6001600288020188555050505b505050505050565b5f73ffffffffffffffffffffffffffffffffffffffff82169050919050565b5f61082a82610801565b9050919050565b61083a81610820565b82525050565b5f6020820190506108535f830184610831565b92915050565b7f4e487b71000000000000000000000000000000000000000000000000000000005f52601160045260245ffd5b5f8160011c9050919050565b5f5f8291508390505b60018511156108db578086048111156108b7576108b6610859565b5b60018516156108c65780820291505b80810290506108d485610886565b945061089b565b94509492505050565b5f826108f357600190506109ae565b81610900575f90506109ae565b816001811461091657600281146109205761094f565b60019150506109ae565b60ff84111561093257610931610859565b5b8360020a91508482111561094957610948610859565b5b506109ae565b5060208310610133831016604e8410600b84101617156109845782820a90508381111561097f5761097e610859565b5b6109ae565b6109918484846001610892565b925090508184048111156109a8576109a7610859565b5b81810290505b9392505050565b5f6109bf82610607565b91506109ca83610607565b92506109f77fffffffffffffffffffffffffffffffffffffffffffffffffffffffffffffffff84846108e4565b905092915050565b5f610a0982610607565b9150610a1483610607565b9250828202610a2281610607565b91508282048414831517610a3957610a38610859565b5b5092915050565b5f610a4a82610607565b9150610a5583610607565b9250828201905080821115610a6d57610a6c610859565b5b92915050565b610a7c81610607565b82525050565b5f606082019050610a955f830186610831565b610aa26020830185610a73565b610aaf6040830184610a73565b949350505050565b5f602082019050610aca5f830184610a73565b92915050565b61160b80610add5f395ff3fe608060405234801561000f575f5ffd5b5060043610610114575f3560e01c806370a08231116100a05780638da5cb5b1161006f5780638da5cb5b1461029257806395d89b41146102b0578063a9059cbb146102ce578063dd62ed3e146102fe578063f2fde38b1461032e57610114565b806370a0823114610232578063715018a61461026257806379cc67901461026c5780638456cb591461028857610114565b8063313ce567116100e7578063313ce567146101b45780633f4ba83a146101d257806340c10f19146101dc57806342966c68146101f85780635c975abb1461021457610114565b806306fdde0314610118578063095ea7b31461013657806318160ddd1461016657806323b872dd14610184575b5f5ffd5b61012061034a565b60405161012d91906110ee565b60405180910390f35b610150600480360381019061014b919061119f565b6103da565b60405161015d91906111f7565b60405180910390f35b61016e6103fc565b60405161017b919061121f565b60405180910390f35b61019e60048036038101906101999190611238565b610405565b6040516101ab91906111f7565b60405180910390f35b6101bc610433565b6040516101c991906112a3565b60405180910390f35b6101da610449565b005b6101f660048036038101906101f1919061119f565b61045b565b005b610212600480360381019061020d91906112bc565b610471565b005b61021c61047e565b60405161022991906111f7565b60405180910390f35b61024c600480360381019061024791906112e7565b610494565b604051610259919061121f565b60405180910390f35b61026a6104d9565b005b6102866004803603810190610281919061119f565b6104ec565b005b610290610569565b005b61029a61057b565b6040516102a79190611321565b60405180910390f35b6102b86105a3565b6040516102c591906110ee565b60405180910390f35b6102e860048036038101906102e3919061119f565b610633565b6040516102f591906111f7565b60405180910390f35b6103186004803603810190610313919061133a565b610655565b604051610325919061121f565b60405180910390f35b610348600480360381019061034391906112e7565b6106d7565b005b606060038054610359906113a5565b80601f0160208091040260200160405190810160405280929190818152602001828054610385906113a5565b80156103d05780601f106103a7576101008083540402835291602001916103d0565b820191905f5260205f20905b8154815290600101906020018083116103b357829003601f168201915b5050505050905090565b5f5f6103e461075b565b90506103f1818585610762565b600191505092915050565b5f600254905090565b5f5f61040f61075b565b905061041c858285610774565b610427858585610806565b60019150509392505050565b5f600560159054906101000a900460ff16905090565b6104516108f6565b61045961097d565b565b6104636108f6565b61046d82826109df565b5050565b61047b3382610a5e565b50565b5f600560149054906101000a900460ff16905090565b5f5f5f8373ffffffffffffffffffffffffffffffffffffffff1673ffffffffffffffffffffffffffffffffffffffff1681526020019081526020015f20549050919050565b6104e16108f6565b6104ea5f610add565b565b6104f46108f6565b5f6104ff8333610655565b905081811015610544576040517f08c379a000000000000000000000000000000000000000000000000000000000815260040161053b9061141f565b60405180910390fd5b61055a83338484610555919061146a565b610762565b6105648383610a5e565b505050565b6105716108f6565b610579610ba0565b565b5f60055f9054906101000a900473ffffffffffffffffffffffffffffffffffffffff16905090565b6060600480546105b2906113a5565b80601f01602080910402602001604051908101604052809291908181526020018280546105de906113a5565b80156106295780601f1061060057610100808354040283529160200191610629565b820191905f5260205f20905b81548152906001019060200180831161060c57829003601f168201915b5050505050905090565b5f5f61063d61075b565b905061064a818585610806565b600191505092915050565b5f60015f8473ffffffffffffffffffffffffffffffffffffffff1673ffffffffffffffffffffffffffffffffffffffff1681526020019081526020015f205f8373ffffffffffffffffffffffffffffffffffffffff1673ffffffffffffffffffffffffffffffffffffffff1681526020019081526020015f2054905092915050565b6106df6108f6565b5f73ffffffffffffffffffffffffffffffffffffffff168173ffffffffffffffffffffffffffffffffffffffff160361074f575f6040517f1e4fbdf70000000000000000000000000000000000000000000000000000000081526004016107469190611321565b60405180910390fd5b61075881610add565b50565b5f33905090565b61076f8383836001610c03565b505050565b5f61077f8484610655565b90507fffffffffffffffffffffffffffffffffffffffffffffffffffffffffffffffff811461080057818110156107f1578281836040517ffb8f41b20000000000000000000000000000000000000000000000000000000081526004016107e89392919061149d565b60405180910390fd5b6107ff84848484035f610c03565b5b50505050565b5f73ffffffffffffffffffffffffffffffffffffffff168373ffffffffffffffffffffffffffffffffffffffff1603610876575f6040517f96c6fd1e00000000000000000000000000000000000000000000000000000000815260040161086d9190611321565b60405180910390fd5b5f73ffffffffffffffffffffffffffffffffffffffff168273ffffffffffffffffffffffffffffffffffffffff16036108e6575f6040517fec442f050000000000000000000000000000000000000000000000000000000081526004016108dd9190611321565b60405180910390fd5b6108f1838383610dd2565b505050565b6108fe61075b565b73ffffffffffffffffffffffffffffffffffffffff1661091c61057b565b73ffffffffffffffffffffffffffffffffffffffff161461097b5761093f61075b565b6040517f118cdaa70000000000000000000000000000000000000000000000000000000081526004016109729190611321565b60405180910390fd5b565b610985610feb565b5f600560146101000a81548160ff0219169083151502179055507f5db9ee0a495bf2e6ff9c91a7834c1ba4fdd244a5e8aa4e537bd38aeae4b073aa6109c861075b565b6040516109d59190611321565b60405180910390a1565b5f73ffffffffffffffffffffffffffffffffffffffff168273ffffffffffffffffffffffffffffffffffffffff1603610a4f575f6040517fec442f05000000000000000000000000000000000000000000000000000000008152600401610a469190611321565b60405180910390fd5b610a5a5f8383610dd2565b5050565b5f73ffffffffffffffffffffffffffffffffffffffff168273ffffffffffffffffffffffffffffffffffffffff1603610ace575f6040517f96c6fd1e000000000000000000000000000000000000000000000000000000008152600401610ac59190611321565b60405180910390fd5b610ad9825f83610dd2565b5050565b5f60055f9054906101000a900473ffffffffffffffffffffffffffffffffffffffff1690508160055f6101000a81548173ffffffffffffffffffffffffffffffffffffffff021916908373ffffffffffffffffffffffffffffffffffffffff1602179055508173ffffffffffffffffffffffffffffffffffffffff168173ffffffffffffffffffffffffffffffffffffffff167f8be0079c531659141344cd1fd0a4f28419497f9722a3daafe3b4186f6b6457e060405160405180910390a35050565b610ba8611034565b6001600560146101000a81548160ff0219169083151502179055507f62e78cea01bee320cd4e420270b5ea74000d11b0c9f74754ebdbfc544b05a258610bec61075b565b604051610bf99190611321565b60405180910390a1565b5f73ffffffffffffffffffffffffffffffffffffffff168473ffffffffffffffffffffffffffffffffffffffff1603610c73575f6040517fe602df05000000000000000000000000000000000000000000000000000000008152600401610c6a9190611321565b60405180910390fd5b5f73ffffffffffffffffffffffffffffffffffffffff168373ffffffffffffffffffffffffffffffffffffffff1603610ce3575f6040517f94280d62000000000000000000000000000000000000000000000000000000008152600401610cda9190611321565b60405180910390fd5b8160015f8673ffffffffffffffffffffffffffffffffffffffff1673ffffffffffffffffffffffffffffffffffffffff1681526020019081526020015f205f8573ffffffffffffffffffffffffffffffffffffffff1673ffffffffffffffffffffffffffffffffffffffff1681526020019081526020015f20819055508015610dcc578273ffffffffffffffffffffffffffffffffffffffff168473ffffffffffffffffffffffffffffffffffffffff167f8c5be1e5ebec7d5bd14f71427d1e84f3dd0314c0f7b2291e5b200ac8c7c3b92584604051610dc3919061121f565b60405180910390a35b50505050565b5f73ffffffffffffffffffffffffffffffffffffffff168373ffffffffffffffffffffffffffffffffffffffff1603610e22578060025f828254610e1691906114d2565b92505081905550610ef0565b5f5f5f8573ffffffffffffffffffffffffffffffffffffffff1673ffffffffffffffffffffffffffffffffffffffff1681526020019081526020015f2054905081811015610eab578381836040517fe450d38c000000000000000000000000000000000000000000000000000000008152600401610ea29392919061149d565b60405180910390fd5b8181035f5f8673ffffffffffffffffffffffffffffffffffffffff1673ffffffffffffffffffffffffffffffffffffffff1681526020019081526020015f2081905550505b5f73ffffffffffffffffffffffffffffffffffffffff168273ffffffffffffffffffffffffffffffffffffffff1603610f37578060025f8282540392505081905550610f81565b805f5f8473ffffffffffffffffffffffffffffffffffffffff1673ffffffffffffffffffffffffffffffffffffffff1681526020019081526020015f205f82825401925050819055505b8173ffffffffffffffffffffffffffffffffffffffff168373ffffffffffffffffffffffffffffffffffffffff167fddf252ad1be2c89b69c2b068fc378daa952ba7f163c4a11628f55a4df523b3ef83604051610fde919061121f565b60405180910390a3505050565b610ff361047e565b611032576040517f08c379a00000000000000000000000000000000000000000000000000000000081526004016110299061154f565b60405180910390fd5b565b61103c61047e565b1561107c576040517f08c379a0000000000000000000000000000000000000000000000000000000008152600401611073906115b7565b60405180910390fd5b565b5f81519050919050565b5f82825260208201905092915050565b8281835e5f83830152505050565b5f601f19601f8301169050919050565b5f6110c08261107e565b6110ca8185611088565b93506110da818560208601611098565b6110e3816110a6565b840191505092915050565b5f6020820190508181035f83015261110681846110b6565b905092915050565b5f5ffd5b5f73ffffffffffffffffffffffffffffffffffffffff82169050919050565b5f61113b82611112565b9050919050565b61114b81611131565b8114611155575f5ffd5b50565b5f8135905061116681611142565b92915050565b5f819050919050565b61117e8161116c565b8114611188575f5ffd5b50565b5f8135905061119981611175565b92915050565b5f5f604083850312156111b5576111b461110e565b5b5f6111c285828601611158565b92505060206111d38582860161118b565b9150509250929050565b5f8115159050919050565b6111f1816111dd565b82525050565b5f60208201905061120a5f8301846111e8565b92915050565b6112198161116c565b82525050565b5f6020820190506112325f830184611210565b92915050565b5f5f5f6060848603121561124f5761124e61110e565b5b5f61125c86828701611158565b935050602061126d86828701611158565b925050604061127e8682870161118b565b9150509250925092565b5f60ff82169050919050565b61129d81611288565b82525050565b5f6020820190506112b65f830184611294565b92915050565b5f602082840312156112d1576112d061110e565b5b5f6112de8482850161118b565b91505092915050565b5f602082840312156112fc576112fb61110e565b5b5f61130984828501611158565b91505092915050565b61131b81611131565b82525050565b5f6020820190506113345f830184611312565b92915050565b5f5f604083850312156113505761134f61110e565b5b5f61135d85828601611158565b925050602061136e85828601611158565b9150509250929050565b7f4e487b71000000000000000000000000000000000000000000000000000000005f52602260045260245ffd5b5f60028204905060018216806113bc57607f821691505b6020821081036113cf576113ce611378565b5b50919050565b7f4275726e20616d6f756e74206578636565647320616c6c6f77616e63650000005f82015250565b5f611409601d83611088565b9150611414826113d5565b602082019050919050565b5f6020820190508181035f830152611436816113fd565b9050919050565b7f4e487b71000000000000000000000000000000000000000000000000000000005f52601160045260245ffd5b5f6114748261116c565b915061147f8361116c565b92508282039050818111156114975761149661143d565b5b92915050565b5f6060820190506114b05f830186611312565b6114bd6020830185611210565b6114ca6040830184611210565b949350505050565b5f6114dc8261116c565b91506114e78361116c565b92508282019050808211156114ff576114fe61143d565b5b92915050565b7f5061757361626c653a206e6f74207061757365640000000000000000000000005f82015250565b5f611539601483611088565b915061154482611505565b602082019050919050565b5f6020820190508181035f8301526115668161152d565b9050919050565b7f5061757361626c653a20706175736564000000000000000000000000000000005f82015250565b5f6115a1601083611088565b91506115ac8261156d565b602082019050919050565b5f6020820190508181035f8301526115ce81611595565b905091905056fea26469706673582212207cf15792ed0ae03ad45f64b1ee9777b64d2f241b10ea0703e20f900fc17b9a8364736f6c634300081c0033",
					"opcodes": "PUSH1 0x80 PUSH1 0x40 MSTORE CALLVALUE DUP1 ISZERO PUSH2 0xF JUMPI PUSH0 PUSH0 REVERT JUMPDEST POP CALLER PUSH1 0x40 MLOAD DUP1 PUSH1 0x40 ADD PUSH1 0x40 MSTORE DUP1 PUSH1 0x5 DUP2 MSTORE PUSH1 0x20 ADD PUSH32 0x446567656E000000000000000000000000000000000000000000000000000000 DUP2 MSTORE POP PUSH1 0x40 MLOAD DUP1 PUSH1 0x40 ADD PUSH1 0x40 MSTORE DUP1 PUSH1 0x3 DUP2 MSTORE PUSH1 0x20 ADD PUSH32 0x44474E0000000000000000000000000000000000000000000000000000000000 DUP2 MSTORE POP DUP2 PUSH1 0x3 SWAP1 DUP2 PUSH2 0x8C SWAP2 SWAP1 PUSH2 0x732 JUMP JUMPDEST POP DUP1 PUSH1 0x4 SWAP1 DUP2 PUSH2 0x9C SWAP2 SWAP1 PUSH2 0x732 JUMP JUMPDEST POP POP POP PUSH0 PUSH20 0xFFFFFFFFFFFFFFFFFFFFFFFFFFFFFFFFFFFFFFFF AND DUP2 PUSH20 0xFFFFFFFFFFFFFFFFFFFFFFFFFFFFFFFFFFFFFFFF AND SUB PUSH2 0x10F JUMPI PUSH0 PUSH1 0x40 MLOAD PUSH32 0x1E4FBDF700000000000000000000000000000000000000000000000000000000 DUP2 MSTORE PUSH1 0x4 ADD PUSH2 0x106 SWAP2 SWAP1 PUSH2 0x840 JUMP JUMPDEST PUSH1 0x40 MLOAD DUP1 SWAP2 SUB SWAP1 REVERT JUMPDEST PUSH2 0x11E DUP2 PUSH2 0x194 PUSH1 0x20 SHL PUSH1 0x20 SHR JUMP JUMPDEST POP PUSH0 PUSH1 0x5 PUSH1 0x14 PUSH2 0x100 EXP DUP2 SLOAD DUP2 PUSH1 0xFF MUL NOT AND SWAP1 DUP4 ISZERO ISZERO MUL OR SWAP1 SSTORE POP PUSH1 0x12 PUSH1 0x5 PUSH1 0x15 PUSH2 0x100 EXP DUP2 SLOAD DUP2 PUSH1 0xFF MUL NOT AND SWAP1 DUP4 PUSH1 0xFF AND MUL OR SWAP1 SSTORE POP PUSH2 0x18F CALLER PUSH1 0x5 PUSH1 0x15 SWAP1 SLOAD SWAP1 PUSH2 0x100 EXP SWAP1 DIV PUSH1 0xFF AND PUSH1 0xFF AND PUSH1 0xA PUSH2 0x178 SWAP2 SWAP1 PUSH2 0x9B5 JUMP JUMPDEST PUSH1 0x64 PUSH2 0x184 SWAP2 SWAP1 PUSH2 0x9FF JUMP JUMPDEST PUSH2 0x257 PUSH1 0x20 SHL PUSH1 0x20 SHR JUMP JUMPDEST PUSH2 0xAD0 JUMP JUMPDEST PUSH0 PUSH1 0x5 PUSH0 SWAP1 SLOAD SWAP1 PUSH2 0x100 EXP SWAP1 DIV PUSH20 0xFFFFFFFFFFFFFFFFFFFFFFFFFFFFFFFFFFFFFFFF AND SWAP1 POP DUP2 PUSH1 0x5 PUSH0 PUSH2 0x100 EXP DUP2 SLOAD DUP2 PUSH20 0xFFFFFFFFFFFFFFFFFFFFFFFFFFFFFFFFFFFFFFFF MUL NOT AND SWAP1 DUP4 PUSH20 0xFFFFFFFFFFFFFFFFFFFFFFFFFFFFFFFFFFFFFFFF AND MUL OR SWAP1 SSTORE POP DUP2 PUSH20 0xFFFFFFFFFFFFFFFFFFFFFFFFFFFFFFFFFFFFFFFF AND DUP2 PUSH20 0xFFFFFFFFFFFFFFFFFFFFFFFFFFFFFFFFFFFFFFFF AND PUSH32 0x8BE0079C531659141344CD1FD0A4F28419497F9722A3DAAFE3B4186F6B6457E0 PUSH1 0x40 MLOAD PUSH1 0x40 MLOAD DUP1 SWAP2 SUB SWAP1 LOG3 POP POP JUMP JUMPDEST PUSH0 PUSH20 0xFFFFFFFFFFFFFFFFFFFFFFFFFFFFFFFFFFFFFFFF AND DUP3 PUSH20 0xFFFFFFFFFFFFFFFFFFFFFFFFFFFFFFFFFFFFFFFF AND SUB PUSH2 0x2C7 JUMPI PUSH0 PUSH1 0x40 MLOAD PUSH32 0xEC442F0500000000000000000000000000000000000000000000000000000000 DUP2 MSTORE PUSH1 0x4 ADD PUSH2 0x2BE SWAP2 SWAP1 PUSH2 0x840 JUMP JUMPDEST PUSH1 0x40 MLOAD DUP1 SWAP2 SUB SWAP1 REVERT JUMPDEST PUSH2 0x2D8 PUSH0 DUP4 DUP4 PUSH2 0x2DC PUSH1 0x20 SHL PUSH1 0x20 SHR JUMP JUMPDEST POP POP JUMP JUMPDEST PUSH0 PUSH20 0xFFFFFFFFFFFFFFFFFFFFFFFFFFFFFFFFFFFFFFFF AND DUP4 PUSH20 0xFFFFFFFFFFFFFFFFFFFFFFFFFFFFFFFFFFFFFFFF AND SUB PUSH2 0x32C JUMPI DUP1 PUSH1 0x2 PUSH0 DUP3 DUP3 SLOAD PUSH2 0x320 SWAP2 SWAP1 PUSH2 0xA40 JUMP JUMPDEST SWAP3 POP POP DUP2 SWAP1 SSTORE POP PUSH2 0x3FA JUMP JUMPDEST PUSH0 PUSH0 PUSH0 DUP6 PUSH20 0xFFFFFFFFFFFFFFFFFFFFFFFFFFFFFFFFFFFFFFFF AND PUSH20 0xFFFFFFFFFFFFFFFFFFFFFFFFFFFFFFFFFFFFFFFF AND DUP2 MSTORE PUSH1 0x20 ADD SWAP1 DUP2 MSTORE PUSH1 0x20 ADD PUSH0 KECCAK256 SLOAD SWAP1 POP DUP2 DUP2 LT ISZERO PUSH2 0x3B5 JUMPI DUP4 DUP2 DUP4 PUSH1 0x40 MLOAD PUSH32 0xE450D38C00000000000000000000000000000000000000000000000000000000 DUP2 MSTORE PUSH1 0x4 ADD PUSH2 0x3AC SWAP4 SWAP3 SWAP2 SWAP1 PUSH2 0xA82 JUMP JUMPDEST PUSH1 0x40 MLOAD DUP1 SWAP2 SUB SWAP1 REVERT JUMPDEST DUP2 DUP2 SUB PUSH0 PUSH0 DUP7 PUSH20 0xFFFFFFFFFFFFFFFFFFFFFFFFFFFFFFFFFFFFFFFF AND PUSH20 0xFFFFFFFFFFFFFFFFFFFFFFFFFFFFFFFFFFFFFFFF AND DUP2 MSTORE PUSH1 0x20 ADD SWAP1 DUP2 MSTORE PUSH1 0x20 ADD PUSH0 KECCAK256 DUP2 SWAP1 SSTORE POP POP JUMPDEST PUSH0 PUSH20 0xFFFFFFFFFFFFFFFFFFFFFFFFFFFFFFFFFFFFFFFF AND DUP3 PUSH20 0xFFFFFFFFFFFFFFFFFFFFFFFFFFFFFFFFFFFFFFFF AND SUB PUSH2 0x441 JUMPI DUP1 PUSH1 0x2 PUSH0 DUP3 DUP3 SLOAD SUB SWAP3 POP POP DUP2 SWAP1 SSTORE POP PUSH2 0x48B JUMP JUMPDEST DUP1 PUSH0 PUSH0 DUP5 PUSH20 0xFFFFFFFFFFFFFFFFFFFFFFFFFFFFFFFFFFFFFFFF AND PUSH20 0xFFFFFFFFFFFFFFFFFFFFFFFFFFFFFFFFFFFFFFFF AND DUP2 MSTORE PUSH1 0x20 ADD SWAP1 DUP2 MSTORE PUSH1 0x20 ADD PUSH0 KECCAK256 PUSH0 DUP3 DUP3 SLOAD ADD SWAP3 POP POP DUP2 SWAP1 SSTORE POP JUMPDEST DUP2 PUSH20 0xFFFFFFFFFFFFFFFFFFFFFFFFFFFFFFFFFFFFFFFF AND DUP4 PUSH20 0xFFFFFFFFFFFFFFFFFFFFFFFFFFFFFFFFFFFFFFFF AND PUSH32 0xDDF252AD1BE2C89B69C2B068FC378DAA952BA7F163C4A11628F55A4DF523B3EF DUP4 PUSH1 0x40 MLOAD PUSH2 0x4E8 SWAP2 SWAP1 PUSH2 0xAB7 JUMP JUMPDEST PUSH1 0x40 MLOAD DUP1 SWAP2 SUB SWAP1 LOG3 POP POP POP JUMP JUMPDEST PUSH0 DUP2 MLOAD SWAP1 POP SWAP2 SWAP1 POP JUMP JUMPDEST PUSH32 0x4E487B7100000000000000000000000000000000000000000000000000000000 PUSH0 MSTORE PUSH1 0x41 PUSH1 0x4 MSTORE PUSH1 0x24 PUSH0 REVERT JUMPDEST PUSH32 0x4E487B7100000000000000000000000000000000000000000000000000000000 PUSH0 MSTORE PUSH1 0x22 PUSH1 0x4 MSTORE PUSH1 0x24 PUSH0 REVERT JUMPDEST PUSH0 PUSH1 0x2 DUP3 DIV SWAP1 POP PUSH1 0x1 DUP3 AND DUP1 PUSH2 0x570 JUMPI PUSH1 0x7F DUP3 AND SWAP2 POP JUMPDEST PUSH1 0x20 DUP3 LT DUP2 SUB PUSH2 0x583 JUMPI PUSH2 0x582 PUSH2 0x52C JUMP JUMPDEST JUMPDEST POP SWAP2 SWAP1 POP JUMP JUMPDEST PUSH0 DUP2 SWAP1 POP DUP2 PUSH0 MSTORE PUSH1 0x20 PUSH0 KECCAK256 SWAP1 POP SWAP2 SWAP1 POP JUMP JUMPDEST PUSH0 PUSH1 0x20 PUSH1 0x1F DUP4 ADD DIV SWAP1 POP SWAP2 SWAP1 POP JUMP JUMPDEST PUSH0 DUP3 DUP3 SHL SWAP1 POP SWAP3 SWAP2 POP POP JUMP JUMPDEST PUSH0 PUSH1 0x8 DUP4 MUL PUSH2 0x5E5 PUSH32 0xFFFFFFFFFFFFFFFFFFFFFFFFFFFFFFFFFFFFFFFFFFFFFFFFFFFFFFFFFFFFFFFF DUP3 PUSH2 0x5AA JUMP JUMPDEST PUSH2 0x5EF DUP7 DUP4 PUSH2 0x5AA JUMP JUMPDEST SWAP6 POP DUP1 NOT DUP5 AND SWAP4 POP DUP1 DUP7 AND DUP5 OR SWAP3 POP POP POP SWAP4 SWAP3 POP POP POP JUMP JUMPDEST PUSH0 DUP2 SWAP1 POP SWAP2 SWAP1 POP JUMP JUMPDEST PUSH0 DUP2 SWAP1 POP SWAP2 SWAP1 POP JUMP JUMPDEST PUSH0 PUSH2 0x633 PUSH2 0x62E PUSH2 0x629 DUP5 PUSH2 0x607 JUMP JUMPDEST PUSH2 0x610 JUMP JUMPDEST PUSH2 0x607 JUMP JUMPDEST SWAP1 POP SWAP2 SWAP1 POP JUMP JUMPDEST PUSH0 DUP2 SWAP1 POP SWAP2 SWAP1 POP JUMP JUMPDEST PUSH2 0x64C DUP4 PUSH2 0x619 JUMP JUMPDEST PUSH2 0x660 PUSH2 0x658 DUP3 PUSH2 0x63A JUMP JUMPDEST DUP5 DUP5 SLOAD PUSH2 0x5B6 JUMP JUMPDEST DUP3 SSTORE POP POP POP POP JUMP JUMPDEST PUSH0 PUSH0 SWAP1 POP SWAP1 JUMP JUMPDEST PUSH2 0x677 PUSH2 0x668 JUMP JUMPDEST PUSH2 0x682 DUP2 DUP5 DUP5 PUSH2 0x643 JUMP JUMPDEST POP POP POP JUMP JUMPDEST JUMPDEST DUP2 DUP2 LT ISZERO PUSH2 0x6A5 JUMPI PUSH2 0x69A PUSH0 DUP3 PUSH2 0x66F JUMP JUMPDEST PUSH1 0x1 DUP2 ADD SWAP1 POP PUSH2 0x688 JUMP JUMPDEST POP POP JUMP JUMPDEST PUSH1 0x1F DUP3 GT ISZERO PUSH2 0x6EA JUMPI PUSH2 0x6BB DUP2 PUSH2 0x589 JUMP JUMPDEST PUSH2 0x6C4 DUP5 PUSH2 0x59B JUMP JUMPDEST DUP2 ADD PUSH1 0x20 DUP6 LT ISZERO PUSH2 0x6D3 JUMPI DUP2 SWAP1 POP JUMPDEST PUSH2 0x6E7 PUSH2 0x6DF DUP6 PUSH2 0x59B JUMP JUMPDEST DUP4 ADD DUP3 PUSH2 0x687 JUMP JUMPDEST POP POP JUMPDEST POP POP POP JUMP JUMPDEST PUSH0 DUP3 DUP3 SHR SWAP1 POP SWAP3 SWAP2 POP POP JUMP JUMPDEST PUSH0 PUSH2 0x70A PUSH0 NOT DUP5 PUSH1 0x8 MUL PUSH2 0x6EF JUMP JUMPDEST NOT DUP1 DUP4 AND SWAP2 POP POP SWAP3 SWAP2 POP POP JUMP JUMPDEST PUSH0 PUSH2 0x722 DUP4 DUP4 PUSH2 0x6FB JUMP JUMPDEST SWAP2 POP DUP3 PUSH1 0x2 MUL DUP3 OR SWAP1 POP SWAP3 SWAP2 POP POP JUMP JUMPDEST PUSH2 0x73B DUP3 PUSH2 0x4F5 JUMP JUMPDEST PUSH8 0xFFFFFFFFFFFFFFFF DUP2 GT ISZERO PUSH2 0x754 JUMPI PUSH2 0x753 PUSH2 0x4FF JUMP JUMPDEST JUMPDEST PUSH2 0x75E DUP3 SLOAD PUSH2 0x559 JUMP JUMPDEST PUSH2 0x769 DUP3 DUP3 DUP6 PUSH2 0x6A9 JUMP JUMPDEST PUSH0 PUSH1 0x20 SWAP1 POP PUSH1 0x1F DUP4 GT PUSH1 0x1 DUP2 EQ PUSH2 0x79A JUMPI PUSH0 DUP5 ISZERO PUSH2 0x788 JUMPI DUP3 DUP8 ADD MLOAD SWAP1 POP JUMPDEST PUSH2 0x792 DUP6 DUP3 PUSH2 0x717 JUMP JUMPDEST DUP7 SSTORE POP PUSH2 0x7F9 JUMP JUMPDEST PUSH1 0x1F NOT DUP5 AND PUSH2 0x7A8 DUP7 PUSH2 0x589 JUMP JUMPDEST PUSH0 JUMPDEST DUP3 DUP2 LT ISZERO PUSH2 0x7CF JUMPI DUP5 DUP10 ADD MLOAD DUP3 SSTORE PUSH1 0x1 DUP3 ADD SWAP2 POP PUSH1 0x20 DUP6 ADD SWAP5 POP PUSH1 0x20 DUP2 ADD SWAP1 POP PUSH2 0x7AA JUMP JUMPDEST DUP7 DUP4 LT ISZERO PUSH2 0x7EC JUMPI DUP5 DUP10 ADD MLOAD PUSH2 0x7E8 PUSH1 0x1F DUP10 AND DUP3 PUSH2 0x6FB JUMP JUMPDEST DUP4 SSTORE POP JUMPDEST PUSH1 0x1 PUSH1 0x2 DUP9 MUL ADD DUP9 SSTORE POP POP POP JUMPDEST POP POP POP POP POP POP JUMP JUMPDEST PUSH0 PUSH20 0xFFFFFFFFFFFFFFFFFFFFFFFFFFFFFFFFFFFFFFFF DUP3 AND SWAP1 POP SWAP2 SWAP1 POP JUMP JUMPDEST PUSH0 PUSH2 0x82A DUP3 PUSH2 0x801 JUMP JUMPDEST SWAP1 POP SWAP2 SWAP1 POP JUMP JUMPDEST PUSH2 0x83A DUP2 PUSH2 0x820 JUMP JUMPDEST DUP3 MSTORE POP POP JUMP JUMPDEST PUSH0 PUSH1 0x20 DUP3 ADD SWAP1 POP PUSH2 0x853 PUSH0 DUP4 ADD DUP5 PUSH2 0x831 JUMP JUMPDEST SWAP3 SWAP2 POP POP JUMP JUMPDEST PUSH32 0x4E487B7100000000000000000000000000000000000000000000000000000000 PUSH0 MSTORE PUSH1 0x11 PUSH1 0x4 MSTORE PUSH1 0x24 PUSH0 REVERT JUMPDEST PUSH0 DUP2 PUSH1 0x1 SHR SWAP1 POP SWAP2 SWAP1 POP JUMP JUMPDEST PUSH0 PUSH0 DUP3 SWAP2 POP DUP4 SWAP1 POP JUMPDEST PUSH1 0x1 DUP6 GT ISZERO PUSH2 0x8DB JUMPI DUP1 DUP7 DIV DUP2 GT ISZERO PUSH2 0x8B7 JUMPI PUSH2 0x8B6 PUSH2 0x859 JUMP JUMPDEST JUMPDEST PUSH1 0x1 DUP6 AND ISZERO PUSH2 0x8C6 JUMPI DUP1 DUP3 MUL SWAP2 POP JUMPDEST DUP1 DUP2 MUL SWAP1 POP PUSH2 0x8D4 DUP6 PUSH2 0x886 JUMP JUMPDEST SWAP5 POP PUSH2 0x89B JUMP JUMPDEST SWAP5 POP SWAP5 SWAP3 POP POP POP JUMP JUMPDEST PUSH0 DUP3 PUSH2 0x8F3 JUMPI PUSH1 0x1 SWAP1 POP PUSH2 0x9AE JUMP JUMPDEST DUP2 PUSH2 0x900 JUMPI PUSH0 SWAP1 POP PUSH2 0x9AE JUMP JUMPDEST DUP2 PUSH1 0x1 DUP2 EQ PUSH2 0x916 JUMPI PUSH1 0x2 DUP2 EQ PUSH2 0x920 JUMPI PUSH2 0x94F JUMP JUMPDEST PUSH1 0x1 SWAP2 POP POP PUSH2 0x9AE JUMP JUMPDEST PUSH1 0xFF DUP5 GT ISZERO PUSH2 0x932 JUMPI PUSH2 0x931 PUSH2 0x859 JUMP JUMPDEST JUMPDEST DUP4 PUSH1 0x2 EXP SWAP2 POP DUP5 DUP3 GT ISZERO PUSH2 0x949 JUMPI PUSH2 0x948 PUSH2 0x859 JUMP JUMPDEST JUMPDEST POP PUSH2 0x9AE JUMP JUMPDEST POP PUSH1 0x20 DUP4 LT PUSH2 0x133 DUP4 LT AND PUSH1 0x4E DUP5 LT PUSH1 0xB DUP5 LT AND OR ISZERO PUSH2 0x984 JUMPI DUP3 DUP3 EXP SWAP1 POP DUP4 DUP2 GT ISZERO PUSH2 0x97F JUMPI PUSH2 0x97E PUSH2 0x859 JUMP JUMPDEST JUMPDEST PUSH2 0x9AE JUMP JUMPDEST PUSH2 0x991 DUP5 DUP5 DUP5 PUSH1 0x1 PUSH2 0x892 JUMP JUMPDEST SWAP3 POP SWAP1 POP DUP2 DUP5 DIV DUP2 GT ISZERO PUSH2 0x9A8 JUMPI PUSH2 0x9A7 PUSH2 0x859 JUMP JUMPDEST JUMPDEST DUP2 DUP2 MUL SWAP1 POP JUMPDEST SWAP4 SWAP3 POP POP POP JUMP JUMPDEST PUSH0 PUSH2 0x9BF DUP3 PUSH2 0x607 JUMP JUMPDEST SWAP2 POP PUSH2 0x9CA DUP4 PUSH2 0x607 JUMP JUMPDEST SWAP3 POP PUSH2 0x9F7 PUSH32 0xFFFFFFFFFFFFFFFFFFFFFFFFFFFFFFFFFFFFFFFFFFFFFFFFFFFFFFFFFFFFFFFF DUP5 DUP5 PUSH2 0x8E4 JUMP JUMPDEST SWAP1 POP SWAP3 SWAP2 POP POP JUMP JUMPDEST PUSH0 PUSH2 0xA09 DUP3 PUSH2 0x607 JUMP JUMPDEST SWAP2 POP PUSH2 0xA14 DUP4 PUSH2 0x607 JUMP JUMPDEST SWAP3 POP DUP3 DUP3 MUL PUSH2 0xA22 DUP2 PUSH2 0x607 JUMP JUMPDEST SWAP2 POP DUP3 DUP3 DIV DUP5 EQ DUP4 ISZERO OR PUSH2 0xA39 JUMPI PUSH2 0xA38 PUSH2 0x859 JUMP JUMPDEST JUMPDEST POP SWAP3 SWAP2 POP POP JUMP JUMPDEST PUSH0 PUSH2 0xA4A DUP3 PUSH2 0x607 JUMP JUMPDEST SWAP2 POP PUSH2 0xA55 DUP4 PUSH2 0x607 JUMP JUMPDEST SWAP3 POP DUP3 DUP3 ADD SWAP1 POP DUP1 DUP3 GT ISZERO PUSH2 0xA6D JUMPI PUSH2 0xA6C PUSH2 0x859 JUMP JUMPDEST JUMPDEST SWAP3 SWAP2 POP POP JUMP JUMPDEST PUSH2 0xA7C DUP2 PUSH2 0x607 JUMP JUMPDEST DUP3 MSTORE POP POP JUMP JUMPDEST PUSH0 PUSH1 0x60 DUP3 ADD SWAP1 POP PUSH2 0xA95 PUSH0 DUP4 ADD DUP7 PUSH2 0x831 JUMP JUMPDEST PUSH2 0xAA2 PUSH1 0x20 DUP4 ADD DUP6 PUSH2 0xA73 JUMP JUMPDEST PUSH2 0xAAF PUSH1 0x40 DUP4 ADD DUP5 PUSH2 0xA73 JUMP JUMPDEST SWAP5 SWAP4 POP POP POP POP JUMP JUMPDEST PUSH0 PUSH1 0x20 DUP3 ADD SWAP1 POP PUSH2 0xACA PUSH0 DUP4 ADD DUP5 PUSH2 0xA73 JUMP JUMPDEST SWAP3 SWAP2 POP POP JUMP JUMPDEST PUSH2 0x160B DUP1 PUSH2 0xADD PUSH0 CODECOPY PUSH0 RETURN INVALID PUSH1 0x80 PUSH1 0x40 MSTORE CALLVALUE DUP1 ISZERO PUSH2 0xF JUMPI PUSH0 PUSH0 REVERT JUMPDEST POP PUSH1 0x4 CALLDATASIZE LT PUSH2 0x114 JUMPI PUSH0 CALLDATALOAD PUSH1 0xE0 SHR DUP1 PUSH4 0x70A08231 GT PUSH2 0xA0 JUMPI DUP1 PUSH4 0x8DA5CB5B GT PUSH2 0x6F JUMPI DUP1 PUSH4 0x8DA5CB5B EQ PUSH2 0x292 JUMPI DUP1 PUSH4 0x95D89B41 EQ PUSH2 0x2B0 JUMPI DUP1 PUSH4 0xA9059CBB EQ PUSH2 0x2CE JUMPI DUP1 PUSH4 0xDD62ED3E EQ PUSH2 0x2FE JUMPI DUP1 PUSH4 0xF2FDE38B EQ PUSH2 0x32E JUMPI PUSH2 0x114 JUMP JUMPDEST DUP1 PUSH4 0x70A08231 EQ PUSH2 0x232 JUMPI DUP1 PUSH4 0x715018A6 EQ PUSH2 0x262 JUMPI DUP1 PUSH4 0x79CC6790 EQ PUSH2 0x26C JUMPI DUP1 PUSH4 0x8456CB59 EQ PUSH2 0x288 JUMPI PUSH2 0x114 JUMP JUMPDEST DUP1 PUSH4 0x313CE567 GT PUSH2 0xE7 JUMPI DUP1 PUSH4 0x313CE567 EQ PUSH2 0x1B4 JUMPI DUP1 PUSH4 0x3F4BA83A EQ PUSH2 0x1D2 JUMPI DUP1 PUSH4 0x40C10F19 EQ PUSH2 0x1DC JUMPI DUP1 PUSH4 0x42966C68 EQ PUSH2 0x1F8 JUMPI DUP1 PUSH4 0x5C975ABB EQ PUSH2 0x214 JUMPI PUSH2 0x114 JUMP JUMPDEST DUP1 PUSH4 0x6FDDE03 EQ PUSH2 0x118 JUMPI DUP1 PUSH4 0x95EA7B3 EQ PUSH2 0x136 JUMPI DUP1 PUSH4 0x18160DDD EQ PUSH2 0x166 JUMPI DUP1 PUSH4 0x23B872DD EQ PUSH2 0x184 JUMPI JUMPDEST PUSH0 PUSH0 REVERT JUMPDEST PUSH2 0x120 PUSH2 0x34A JUMP JUMPDEST PUSH1 0x40 MLOAD PUSH2 0x12D SWAP2 SWAP1 PUSH2 0x10EE JUMP JUMPDEST PUSH1 0x40 MLOAD DUP1 SWAP2 SUB SWAP1 RETURN JUMPDEST PUSH2 0x150 PUSH1 0x4 DUP1 CALLDATASIZE SUB DUP2 ADD SWAP1 PUSH2 0x14B SWAP2 SWAP1 PUSH2 0x119F JUMP JUMPDEST PUSH2 0x3DA JUMP JUMPDEST PUSH1 0x40 MLOAD PUSH2 0x15D SWAP2 SWAP1 PUSH2 0x11F7 JUMP JUMPDEST PUSH1 0x40 MLOAD DUP1 SWAP2 SUB SWAP1 RETURN JUMPDEST PUSH2 0x16E PUSH2 0x3FC JUMP JUMPDEST PUSH1 0x40 MLOAD PUSH2 0x17B SWAP2 SWAP1 PUSH2 0x121F JUMP JUMPDEST PUSH1 0x40 MLOAD DUP1 SWAP2 SUB SWAP1 RETURN JUMPDEST PUSH2 0x19E PUSH1 0x4 DUP1 CALLDATASIZE SUB DUP2 ADD SWAP1 PUSH2 0x199 SWAP2 SWAP1 PUSH2 0x1238 JUMP JUMPDEST PUSH2 0x405 JUMP JUMPDEST PUSH1 0x40 MLOAD PUSH2 0x1AB SWAP2 SWAP1 PUSH2 0x11F7 JUMP JUMPDEST PUSH1 0x40 MLOAD DUP1 SWAP2 SUB SWAP1 RETURN JUMPDEST PUSH2 0x1BC PUSH2 0x433 JUMP JUMPDEST PUSH1 0x40 MLOAD PUSH2 0x1C9 SWAP2 SWAP1 PUSH2 0x12A3 JUMP JUMPDEST PUSH1 0x40 MLOAD DUP1 SWAP2 SUB SWAP1 RETURN JUMPDEST PUSH2 0x1DA PUSH2 0x449 JUMP JUMPDEST STOP JUMPDEST PUSH2 0x1F6 PUSH1 0x4 DUP1 CALLDATASIZE SUB DUP2 ADD SWAP1 PUSH2 0x1F1 SWAP2 SWAP1 PUSH2 0x119F JUMP JUMPDEST PUSH2 0x45B JUMP JUMPDEST STOP JUMPDEST PUSH2 0x212 PUSH1 0x4 DUP1 CALLDATASIZE SUB DUP2 ADD SWAP1 PUSH2 0x20D SWAP2 SWAP1 PUSH2 0x12BC JUMP JUMPDEST PUSH2 0x471 JUMP JUMPDEST STOP JUMPDEST PUSH2 0x21C PUSH2 0x47E JUMP JUMPDEST PUSH1 0x40 MLOAD PUSH2 0x229 SWAP2 SWAP1 PUSH2 0x11F7 JUMP JUMPDEST PUSH1 0x40 MLOAD DUP1 SWAP2 SUB SWAP1 RETURN JUMPDEST PUSH2 0x24C PUSH1 0x4 DUP1 CALLDATASIZE SUB DUP2 ADD SWAP1 PUSH2 0x247 SWAP2 SWAP1 PUSH2 0x12E7 JUMP JUMPDEST PUSH2 0x494 JUMP JUMPDEST PUSH1 0x40 MLOAD PUSH2 0x259 SWAP2 SWAP1 PUSH2 0x121F JUMP JUMPDEST PUSH1 0x40 MLOAD DUP1 SWAP2 SUB SWAP1 RETURN JUMPDEST PUSH2 0x26A PUSH2 0x4D9 JUMP JUMPDEST STOP JUMPDEST PUSH2 0x286 PUSH1 0x4 DUP1 CALLDATASIZE SUB DUP2 ADD SWAP1 PUSH2 0x281 SWAP2 SWAP1 PUSH2 0x119F JUMP JUMPDEST PUSH2 0x4EC JUMP JUMPDEST STOP JUMPDEST PUSH2 0x290 PUSH2 0x569 JUMP JUMPDEST STOP JUMPDEST PUSH2 0x29A PUSH2 0x57B JUMP JUMPDEST PUSH1 0x40 MLOAD PUSH2 0x2A7 SWAP2 SWAP1 PUSH2 0x1321 JUMP JUMPDEST PUSH1 0x40 MLOAD DUP1 SWAP2 SUB SWAP1 RETURN JUMPDEST PUSH2 0x2B8 PUSH2 0x5A3 JUMP JUMPDEST PUSH1 0x40 MLOAD PUSH2 0x2C5 SWAP2 SWAP1 PUSH2 0x10EE JUMP JUMPDEST PUSH1 0x40 MLOAD DUP1 SWAP2 SUB SWAP1 RETURN JUMPDEST PUSH2 0x2E8 PUSH1 0x4 DUP1 CALLDATASIZE SUB DUP2 ADD SWAP1 PUSH2 0x2E3 SWAP2 SWAP1 PUSH2 0x119F JUMP JUMPDEST PUSH2 0x633 JUMP JUMPDEST PUSH1 0x40 MLOAD PUSH2 0x2F5 SWAP2 SWAP1 PUSH2 0x11F7 JUMP JUMPDEST PUSH1 0x40 MLOAD DUP1 SWAP2 SUB SWAP1 RETURN JUMPDEST PUSH2 0x318 PUSH1 0x4 DUP1 CALLDATASIZE SUB DUP2 ADD SWAP1 PUSH2 0x313 SWAP2 SWAP1 PUSH2 0x133A JUMP JUMPDEST PUSH2 0x655 JUMP JUMPDEST PUSH1 0x40 MLOAD PUSH2 0x325 SWAP2 SWAP1 PUSH2 0x121F JUMP JUMPDEST PUSH1 0x40 MLOAD DUP1 SWAP2 SUB SWAP1 RETURN JUMPDEST PUSH2 0x348 PUSH1 0x4 DUP1 CALLDATASIZE SUB DUP2 ADD SWAP1 PUSH2 0x343 SWAP2 SWAP1 PUSH2 0x12E7 JUMP JUMPDEST PUSH2 0x6D7 JUMP JUMPDEST STOP JUMPDEST PUSH1 0x60 PUSH1 0x3 DUP1 SLOAD PUSH2 0x359 SWAP1 PUSH2 0x13A5 JUMP JUMPDEST DUP1 PUSH1 0x1F ADD PUSH1 0x20 DUP1 SWAP2 DIV MUL PUSH1 0x20 ADD PUSH1 0x40 MLOAD SWAP1 DUP2 ADD PUSH1 0x40 MSTORE DUP1 SWAP3 SWAP2 SWAP1 DUP2 DUP2 MSTORE PUSH1 0x20 ADD DUP3 DUP1 SLOAD PUSH2 0x385 SWAP1 PUSH2 0x13A5 JUMP JUMPDEST DUP1 ISZERO PUSH2 0x3D0 JUMPI DUP1 PUSH1 0x1F LT PUSH2 0x3A7 JUMPI PUSH2 0x100 DUP1 DUP4 SLOAD DIV MUL DUP4 MSTORE SWAP2 PUSH1 0x20 ADD SWAP2 PUSH2 0x3D0 JUMP JUMPDEST DUP3 ADD SWAP2 SWAP1 PUSH0 MSTORE PUSH1 0x20 PUSH0 KECCAK256 SWAP1 JUMPDEST DUP2 SLOAD DUP2 MSTORE SWAP1 PUSH1 0x1 ADD SWAP1 PUSH1 0x20 ADD DUP1 DUP4 GT PUSH2 0x3B3 JUMPI DUP3 SWAP1 SUB PUSH1 0x1F AND DUP3 ADD SWAP2 JUMPDEST POP POP POP POP POP SWAP1 POP SWAP1 JUMP JUMPDEST PUSH0 PUSH0 PUSH2 0x3E4 PUSH2 0x75B JUMP JUMPDEST SWAP1 POP PUSH2 0x3F1 DUP2 DUP6 DUP6 PUSH2 0x762 JUMP JUMPDEST PUSH1 0x1 SWAP2 POP POP SWAP3 SWAP2 POP POP JUMP JUMPDEST PUSH0 PUSH1 0x2 SLOAD SWAP1 POP SWAP1 JUMP JUMPDEST PUSH0 PUSH0 PUSH2 0x40F PUSH2 0x75B JUMP JUMPDEST SWAP1 POP PUSH2 0x41C DUP6 DUP3 DUP6 PUSH2 0x774 JUMP JUMPDEST PUSH2 0x427 DUP6 DUP6 DUP6 PUSH2 0x806 JUMP JUMPDEST PUSH1 0x1 SWAP2 POP POP SWAP4 SWAP3 POP POP POP JUMP JUMPDEST PUSH0 PUSH1 0x5 PUSH1 0x15 SWAP1 SLOAD SWAP1 PUSH2 0x100 EXP SWAP1 DIV PUSH1 0xFF AND SWAP1 POP SWAP1 JUMP JUMPDEST PUSH2 0x451 PUSH2 0x8F6 JUMP JUMPDEST PUSH2 0x459 PUSH2 0x97D JUMP JUMPDEST JUMP JUMPDEST PUSH2 0x463 PUSH2 0x8F6 JUMP JUMPDEST PUSH2 0x46D DUP3 DUP3 PUSH2 0x9DF JUMP JUMPDEST POP POP JUMP JUMPDEST PUSH2 0x47B CALLER DUP3 PUSH2 0xA5E JUMP JUMPDEST POP JUMP JUMPDEST PUSH0 PUSH1 0x5 PUSH1 0x14 SWAP1 SLOAD SWAP1 PUSH2 0x100 EXP SWAP1 DIV PUSH1 0xFF AND SWAP1 POP SWAP1 JUMP JUMPDEST PUSH0 PUSH0 PUSH0 DUP4 PUSH20 0xFFFFFFFFFFFFFFFFFFFFFFFFFFFFFFFFFFFFFFFF AND PUSH20 0xFFFFFFFFFFFFFFFFFFFFFFFFFFFFFFFFFFFFFFFF AND DUP2 MSTORE PUSH1 0x20 ADD SWAP1 DUP2 MSTORE PUSH1 0x20 ADD PUSH0 KECCAK256 SLOAD SWAP1 POP SWAP2 SWAP1 POP JUMP JUMPDEST PUSH2 0x4E1 PUSH2 0x8F6 JUMP JUMPDEST PUSH2 0x4EA PUSH0 PUSH2 0xADD JUMP JUMPDEST JUMP JUMPDEST PUSH2 0x4F4 PUSH2 0x8F6 JUMP JUMPDEST PUSH0 PUSH2 0x4FF DUP4 CALLER PUSH2 0x655 JUMP JUMPDEST SWAP1 POP DUP2 DUP2 LT ISZERO PUSH2 0x544 JUMPI PUSH1 0x40 MLOAD PUSH32 0x8C379A000000000000000000000000000000000000000000000000000000000 DUP2 MSTORE PUSH1 0x4 ADD PUSH2 0x53B SWAP1 PUSH2 0x141F JUMP JUMPDEST PUSH1 0x40 MLOAD DUP1 SWAP2 SUB SWAP1 REVERT JUMPDEST PUSH2 0x55A DUP4 CALLER DUP5 DUP5 PUSH2 0x555 SWAP2 SWAP1 PUSH2 0x146A JUMP JUMPDEST PUSH2 0x762 JUMP JUMPDEST PUSH2 0x564 DUP4 DUP4 PUSH2 0xA5E JUMP JUMPDEST POP POP POP JUMP JUMPDEST PUSH2 0x571 PUSH2 0x8F6 JUMP JUMPDEST PUSH2 0x579 PUSH2 0xBA0 JUMP JUMPDEST JUMP JUMPDEST PUSH0 PUSH1 0x5 PUSH0 SWAP1 SLOAD SWAP1 PUSH2 0x100 EXP SWAP1 DIV PUSH20 0xFFFFFFFFFFFFFFFFFFFFFFFFFFFFFFFFFFFFFFFF AND SWAP1 POP SWAP1 JUMP JUMPDEST PUSH1 0x60 PUSH1 0x4 DUP1 SLOAD PUSH2 0x5B2 SWAP1 PUSH2 0x13A5 JUMP JUMPDEST DUP1 PUSH1 0x1F ADD PUSH1 0x20 DUP1 SWAP2 DIV MUL PUSH1 0x20 ADD PUSH1 0x40 MLOAD SWAP1 DUP2 ADD PUSH1 0x40 MSTORE DUP1 SWAP3 SWAP2 SWAP1 DUP2 DUP2 MSTORE PUSH1 0x20 ADD DUP3 DUP1 SLOAD PUSH2 0x5DE SWAP1 PUSH2 0x13A5 JUMP JUMPDEST DUP1 ISZERO PUSH2 0x629 JUMPI DUP1 PUSH1 0x1F LT PUSH2 0x600 JUMPI PUSH2 0x100 DUP1 DUP4 SLOAD DIV MUL DUP4 MSTORE SWAP2 PUSH1 0x20 ADD SWAP2 PUSH2 0x629 JUMP JUMPDEST DUP3 ADD SWAP2 SWAP1 PUSH0 MSTORE PUSH1 0x20 PUSH0 KECCAK256 SWAP1 JUMPDEST DUP2 SLOAD DUP2 MSTORE SWAP1 PUSH1 0x1 ADD SWAP1 PUSH1 0x20 ADD DUP1 DUP4 GT PUSH2 0x60C JUMPI DUP3 SWAP1 SUB PUSH1 0x1F AND DUP3 ADD SWAP2 JUMPDEST POP POP POP POP POP SWAP1 POP SWAP1 JUMP JUMPDEST PUSH0 PUSH0 PUSH2 0x63D PUSH2 0x75B JUMP JUMPDEST SWAP1 POP PUSH2 0x64A DUP2 DUP6 DUP6 PUSH2 0x806 JUMP JUMPDEST PUSH1 0x1 SWAP2 POP POP SWAP3 SWAP2 POP POP JUMP JUMPDEST PUSH0 PUSH1 0x1 PUSH0 DUP5 PUSH20 0xFFFFFFFFFFFFFFFFFFFFFFFFFFFFFFFFFFFFFFFF AND PUSH20 0xFFFFFFFFFFFFFFFFFFFFFFFFFFFFFFFFFFFFFFFF AND DUP2 MSTORE PUSH1 0x20 ADD SWAP1 DUP2 MSTORE PUSH1 0x20 ADD PUSH0 KECCAK256 PUSH0 DUP4 PUSH20 0xFFFFFFFFFFFFFFFFFFFFFFFFFFFFFFFFFFFFFFFF AND PUSH20 0xFFFFFFFFFFFFFFFFFFFFFFFFFFFFFFFFFFFFFFFF AND DUP2 MSTORE PUSH1 0x20 ADD SWAP1 DUP2 MSTORE PUSH1 0x20 ADD PUSH0 KECCAK256 SLOAD SWAP1 POP SWAP3 SWAP2 POP POP JUMP JUMPDEST PUSH2 0x6DF PUSH2 0x8F6 JUMP JUMPDEST PUSH0 PUSH20 0xFFFFFFFFFFFFFFFFFFFFFFFFFFFFFFFFFFFFFFFF AND DUP2 PUSH20 0xFFFFFFFFFFFFFFFFFFFFFFFFFFFFFFFFFFFFFFFF AND SUB PUSH2 0x74F JUMPI PUSH0 PUSH1 0x40 MLOAD PUSH32 0x1E4FBDF700000000000000000000000000000000000000000000000000000000 DUP2 MSTORE PUSH1 0x4 ADD PUSH2 0x746 SWAP2 SWAP1 PUSH2 0x1321 JUMP JUMPDEST PUSH1 0x40 MLOAD DUP1 SWAP2 SUB SWAP1 REVERT JUMPDEST PUSH2 0x758 DUP2 PUSH2 0xADD JUMP JUMPDEST POP JUMP JUMPDEST PUSH0 CALLER SWAP1 POP SWAP1 JUMP JUMPDEST PUSH2 0x76F DUP4 DUP4 DUP4 PUSH1 0x1 PUSH2 0xC03 JUMP JUMPDEST POP POP POP JUMP JUMPDEST PUSH0 PUSH2 0x77F DUP5 DUP5 PUSH2 0x655 JUMP JUMPDEST SWAP1 POP PUSH32 0xFFFFFFFFFFFFFFFFFFFFFFFFFFFFFFFFFFFFFFFFFFFFFFFFFFFFFFFFFFFFFFFF DUP2 EQ PUSH2 0x800 JUMPI DUP2 DUP2 LT ISZERO PUSH2 0x7F1 JUMPI DUP3 DUP2 DUP4 PUSH1 0x40 MLOAD PUSH32 0xFB8F41B200000000000000000000000000000000000000000000000000000000 DUP2 MSTORE PUSH1 0x4 ADD PUSH2 0x7E8 SWAP4 SWAP3 SWAP2 SWAP1 PUSH2 0x149D JUMP JUMPDEST PUSH1 0x40 MLOAD DUP1 SWAP2 SUB SWAP1 REVERT JUMPDEST PUSH2 0x7FF DUP5 DUP5 DUP5 DUP5 SUB PUSH0 PUSH2 0xC03 JUMP JUMPDEST JUMPDEST POP POP POP POP JUMP JUMPDEST PUSH0 PUSH20 0xFFFFFFFFFFFFFFFFFFFFFFFFFFFFFFFFFFFFFFFF AND DUP4 PUSH20 0xFFFFFFFFFFFFFFFFFFFFFFFFFFFFFFFFFFFFFFFF AND SUB PUSH2 0x876 JUMPI PUSH0 PUSH1 0x40 MLOAD PUSH32 0x96C6FD1E00000000000000000000000000000000000000000000000000000000 DUP2 MSTORE PUSH1 0x4 ADD PUSH2 0x86D SWAP2 SWAP1 PUSH2 0x1321 JUMP JUMPDEST PUSH1 0x40 MLOAD DUP1 SWAP2 SUB SWAP1 REVERT JUMPDEST PUSH0 PUSH20 0xFFFFFFFFFFFFFFFFFFFFFFFFFFFFFFFFFFFFFFFF AND DUP3 PUSH20 0xFFFFFFFFFFFFFFFFFFFFFFFFFFFFFFFFFFFFFFFF AND SUB PUSH2 0x8E6 JUMPI PUSH0 PUSH1 0x40 MLOAD PUSH32 0xEC442F0500000000000000000000000000000000000000000000000000000000 DUP2 MSTORE PUSH1 0x4 ADD PUSH2 0x8DD SWAP2 SWAP1 PUSH2 0x1321 JUMP JUMPDEST PUSH1 0x40 MLOAD DUP1 SWAP2 SUB SWAP1 REVERT JUMPDEST PUSH2 0x8F1 DUP4 DUP4 DUP4 PUSH2 0xDD2 JUMP JUMPDEST POP POP POP JUMP JUMPDEST PUSH2 0x8FE PUSH2 0x75B JUMP JUMPDEST PUSH20 0xFFFFFFFFFFFFFFFFFFFFFFFFFFFFFFFFFFFFFFFF AND PUSH2 0x91C PUSH2 0x57B JUMP JUMPDEST PUSH20 0xFFFFFFFFFFFFFFFFFFFFFFFFFFFFFFFFFFFFFFFF AND EQ PUSH2 0x97B JUMPI PUSH2 0x93F PUSH2 0x75B JUMP JUMPDEST PUSH1 0x40 MLOAD PUSH32 0x118CDAA700000000000000000000000000000000000000000000000000000000 DUP2 MSTORE PUSH1 0x4 ADD PUSH2 0x972 SWAP2 SWAP1 PUSH2 0x1321 JUMP JUMPDEST PUSH1 0x40 MLOAD DUP1 SWAP2 SUB SWAP1 REVERT JUMPDEST JUMP JUMPDEST PUSH2 0x985 PUSH2 0xFEB JUMP JUMPDEST PUSH0 PUSH1 0x5 PUSH1 0x14 PUSH2 0x100 EXP DUP2 SLOAD DUP2 PUSH1 0xFF MUL NOT AND SWAP1 DUP4 ISZERO ISZERO MUL OR SWAP1 SSTORE POP PUSH32 0x5DB9EE0A495BF2E6FF9C91A7834C1BA4FDD244A5E8AA4E537BD38AEAE4B073AA PUSH2 0x9C8 PUSH2 0x75B JUMP JUMPDEST PUSH1 0x40 MLOAD PUSH2 0x9D5 SWAP2 SWAP1 PUSH2 0x1321 JUMP JUMPDEST PUSH1 0x40 MLOAD DUP1 SWAP2 SUB SWAP1 LOG1 JUMP JUMPDEST PUSH0 PUSH20 0xFFFFFFFFFFFFFFFFFFFFFFFFFFFFFFFFFFFFFFFF AND DUP3 PUSH20 0xFFFFFFFFFFFFFFFFFFFFFFFFFFFFFFFFFFFFFFFF AND SUB PUSH2 0xA4F JUMPI PUSH0 PUSH1 0x40 MLOAD PUSH32 0xEC442F0500000000000000000000000000000000000000000000000000000000 DUP2 MSTORE PUSH1 0x4 ADD PUSH2 0xA46 SWAP2 SWAP1 PUSH2 0x1321 JUMP JUMPDEST PUSH1 0x40 MLOAD DUP1 SWAP2 SUB SWAP1 REVERT JUMPDEST PUSH2 0xA5A PUSH0 DUP4 DUP4 PUSH2 0xDD2 JUMP JUMPDEST POP POP JUMP JUMPDEST PUSH0 PUSH20 0xFFFFFFFFFFFFFFFFFFFFFFFFFFFFFFFFFFFFFFFF AND DUP3 PUSH20 0xFFFFFFFFFFFFFFFFFFFFFFFFFFFFFFFFFFFFFFFF AND SUB PUSH2 0xACE JUMPI PUSH0 PUSH1 0x40 MLOAD PUSH32 0x96C6FD1E00000000000000000000000000000000000000000000000000000000 DUP2 MSTORE PUSH1 0x4 ADD PUSH2 0xAC5 SWAP2 SWAP1 PUSH2 0x1321 JUMP JUMPDEST PUSH1 0x40 MLOAD DUP1 SWAP2 SUB SWAP1 REVERT JUMPDEST PUSH2 0xAD9 DUP3 PUSH0 DUP4 PUSH2 0xDD2 JUMP JUMPDEST POP POP JUMP JUMPDEST PUSH0 PUSH1 0x5 PUSH0 SWAP1 SLOAD SWAP1 PUSH2 0x100 EXP SWAP1 DIV PUSH20 0xFFFFFFFFFFFFFFFFFFFFFFFFFFFFFFFFFFFFFFFF AND SWAP1 POP DUP2 PUSH1 0x5 PUSH0 PUSH2 0x100 EXP DUP2 SLOAD DUP2 PUSH20 0xFFFFFFFFFFFFFFFFFFFFFFFFFFFFFFFFFFFFFFFF MUL NOT AND SWAP1 DUP4 PUSH20 0xFFFFFFFFFFFFFFFFFFFFFFFFFFFFFFFFFFFFFFFF AND MUL OR SWAP1 SSTORE POP DUP2 PUSH20 0xFFFFFFFFFFFFFFFFFFFFFFFFFFFFFFFFFFFFFFFF AND DUP2 PUSH20 0xFFFFFFFFFFFFFFFFFFFFFFFFFFFFFFFFFFFFFFFF AND PUSH32 0x8BE0079C531659141344CD1FD0A4F28419497F9722A3DAAFE3B4186F6B6457E0 PUSH1 0x40 MLOAD PUSH1 0x40 MLOAD DUP1 SWAP2 SUB SWAP1 LOG3 POP POP JUMP JUMPDEST PUSH2 0xBA8 PUSH2 0x1034 JUMP JUMPDEST PUSH1 0x1 PUSH1 0x5 PUSH1 0x14 PUSH2 0x100 EXP DUP2 SLOAD DUP2 PUSH1 0xFF MUL NOT AND SWAP1 DUP4 ISZERO ISZERO MUL OR SWAP1 SSTORE POP PUSH32 0x62E78CEA01BEE320CD4E420270B5EA74000D11B0C9F74754EBDBFC544B05A258 PUSH2 0xBEC PUSH2 0x75B JUMP JUMPDEST PUSH1 0x40 MLOAD PUSH2 0xBF9 SWAP2 SWAP1 PUSH2 0x1321 JUMP JUMPDEST PUSH1 0x40 MLOAD DUP1 SWAP2 SUB SWAP1 LOG1 JUMP JUMPDEST PUSH0 PUSH20 0xFFFFFFFFFFFFFFFFFFFFFFFFFFFFFFFFFFFFFFFF AND DUP5 PUSH20 0xFFFFFFFFFFFFFFFFFFFFFFFFFFFFFFFFFFFFFFFF AND SUB PUSH2 0xC73 JUMPI PUSH0 PUSH1 0x40 MLOAD PUSH32 0xE602DF0500000000000000000000000000000000000000000000000000000000 DUP2 MSTORE PUSH1 0x4 ADD PUSH2 0xC6A SWAP2 SWAP1 PUSH2 0x1321 JUMP JUMPDEST PUSH1 0x40 MLOAD DUP1 SWAP2 SUB SWAP1 REVERT JUMPDEST PUSH0 PUSH20 0xFFFFFFFFFFFFFFFFFFFFFFFFFFFFFFFFFFFFFFFF AND DUP4 PUSH20 0xFFFFFFFFFFFFFFFFFFFFFFFFFFFFFFFFFFFFFFFF AND SUB PUSH2 0xCE3 JUMPI PUSH0 PUSH1 0x40 MLOAD PUSH32 0x94280D6200000000000000000000000000000000000000000000000000000000 DUP2 MSTORE PUSH1 0x4 ADD PUSH2 0xCDA SWAP2 SWAP1 PUSH2 0x1321 JUMP JUMPDEST PUSH1 0x40 MLOAD DUP1 SWAP2 SUB SWAP1 REVERT JUMPDEST DUP2 PUSH1 0x1 PUSH0 DUP7 PUSH20 0xFFFFFFFFFFFFFFFFFFFFFFFFFFFFFFFFFFFFFFFF AND PUSH20 0xFFFFFFFFFFFFFFFFFFFFFFFFFFFFFFFFFFFFFFFF AND DUP2 MSTORE PUSH1 0x20 ADD SWAP1 DUP2 MSTORE PUSH1 0x20 ADD PUSH0 KECCAK256 PUSH0 DUP6 PUSH20 0xFFFFFFFFFFFFFFFFFFFFFFFFFFFFFFFFFFFFFFFF AND PUSH20 0xFFFFFFFFFFFFFFFFFFFFFFFFFFFFFFFFFFFFFFFF AND DUP2 MSTORE PUSH1 0x20 ADD SWAP1 DUP2 MSTORE PUSH1 0x20 ADD PUSH0 KECCAK256 DUP2 SWAP1 SSTORE POP DUP1 ISZERO PUSH2 0xDCC JUMPI DUP3 PUSH20 0xFFFFFFFFFFFFFFFFFFFFFFFFFFFFFFFFFFFFFFFF AND DUP5 PUSH20 0xFFFFFFFFFFFFFFFFFFFFFFFFFFFFFFFFFFFFFFFF AND PUSH32 0x8C5BE1E5EBEC7D5BD14F71427D1E84F3DD0314C0F7B2291E5B200AC8C7C3B925 DUP5 PUSH1 0x40 MLOAD PUSH2 0xDC3 SWAP2 SWAP1 PUSH2 0x121F JUMP JUMPDEST PUSH1 0x40 MLOAD DUP1 SWAP2 SUB SWAP1 LOG3 JUMPDEST POP POP POP POP JUMP JUMPDEST PUSH0 PUSH20 0xFFFFFFFFFFFFFFFFFFFFFFFFFFFFFFFFFFFFFFFF AND DUP4 PUSH20 0xFFFFFFFFFFFFFFFFFFFFFFFFFFFFFFFFFFFFFFFF AND SUB PUSH2 0xE22 JUMPI DUP1 PUSH1 0x2 PUSH0 DUP3 DUP3 SLOAD PUSH2 0xE16 SWAP2 SWAP1 PUSH2 0x14D2 JUMP JUMPDEST SWAP3 POP POP DUP2 SWAP1 SSTORE POP PUSH2 0xEF0 JUMP JUMPDEST PUSH0 PUSH0 PUSH0 DUP6 PUSH20 0xFFFFFFFFFFFFFFFFFFFFFFFFFFFFFFFFFFFFFFFF AND PUSH20 0xFFFFFFFFFFFFFFFFFFFFFFFFFFFFFFFFFFFFFFFF AND DUP2 MSTORE PUSH1 0x20 ADD SWAP1 DUP2 MSTORE PUSH1 0x20 ADD PUSH0 KECCAK256 SLOAD SWAP1 POP DUP2 DUP2 LT ISZERO PUSH2 0xEAB JUMPI DUP4 DUP2 DUP4 PUSH1 0x40 MLOAD PUSH32 0xE450D38C00000000000000000000000000000000000000000000000000000000 DUP2 MSTORE PUSH1 0x4 ADD PUSH2 0xEA2 SWAP4 SWAP3 SWAP2 SWAP1 PUSH2 0x149D JUMP JUMPDEST PUSH1 0x40 MLOAD DUP1 SWAP2 SUB SWAP1 REVERT JUMPDEST DUP2 DUP2 SUB PUSH0 PUSH0 DUP7 PUSH20 0xFFFFFFFFFFFFFFFFFFFFFFFFFFFFFFFFFFFFFFFF AND PUSH20 0xFFFFFFFFFFFFFFFFFFFFFFFFFFFFFFFFFFFFFFFF AND DUP2 MSTORE PUSH1 0x20 ADD SWAP1 DUP2 MSTORE PUSH1 0x20 ADD PUSH0 KECCAK256 DUP2 SWAP1 SSTORE POP POP JUMPDEST PUSH0 PUSH20 0xFFFFFFFFFFFFFFFFFFFFFFFFFFFFFFFFFFFFFFFF AND DUP3 PUSH20 0xFFFFFFFFFFFFFFFFFFFFFFFFFFFFFFFFFFFFFFFF AND SUB PUSH2 0xF37 JUMPI DUP1 PUSH1 0x2 PUSH0 DUP3 DUP3 SLOAD SUB SWAP3 POP POP DUP2 SWAP1 SSTORE POP PUSH2 0xF81 JUMP JUMPDEST DUP1 PUSH0 PUSH0 DUP5 PUSH20 0xFFFFFFFFFFFFFFFFFFFFFFFFFFFFFFFFFFFFFFFF AND PUSH20 0xFFFFFFFFFFFFFFFFFFFFFFFFFFFFFFFFFFFFFFFF AND DUP2 MSTORE PUSH1 0x20 ADD SWAP1 DUP2 MSTORE PUSH1 0x20 ADD PUSH0 KECCAK256 PUSH0 DUP3 DUP3 SLOAD ADD SWAP3 POP POP DUP2 SWAP1 SSTORE POP JUMPDEST DUP2 PUSH20 0xFFFFFFFFFFFFFFFFFFFFFFFFFFFFFFFFFFFFFFFF AND DUP4 PUSH20 0xFFFFFFFFFFFFFFFFFFFFFFFFFFFFFFFFFFFFFFFF AND PUSH32 0xDDF252AD1BE2C89B69C2B068FC378DAA952BA7F163C4A11628F55A4DF523B3EF DUP4 PUSH1 0x40 MLOAD PUSH2 0xFDE SWAP2 SWAP1 PUSH2 0x121F JUMP JUMPDEST PUSH1 0x40 MLOAD DUP1 SWAP2 SUB SWAP1 LOG3 POP POP POP JUMP JUMPDEST PUSH2 0xFF3 PUSH2 0x47E JUMP JUMPDEST PUSH2 0x1032 JUMPI PUSH1 0x40 MLOAD PUSH32 0x8C379A000000000000000000000000000000000000000000000000000000000 DUP2 MSTORE PUSH1 0x4 ADD PUSH2 0x1029 SWAP1 PUSH2 0x154F JUMP JUMPDEST PUSH1 0x40 MLOAD DUP1 SWAP2 SUB SWAP1 REVERT JUMPDEST JUMP JUMPDEST PUSH2 0x103C PUSH2 0x47E JUMP JUMPDEST ISZERO PUSH2 0x107C JUMPI PUSH1 0x40 MLOAD PUSH32 0x8C379A000000000000000000000000000000000000000000000000000000000 DUP2 MSTORE PUSH1 0x4 ADD PUSH2 0x1073 SWAP1 PUSH2 0x15B7 JUMP JUMPDEST PUSH1 0x40 MLOAD DUP1 SWAP2 SUB SWAP1 REVERT JUMPDEST JUMP JUMPDEST PUSH0 DUP2 MLOAD SWAP1 POP SWAP2 SWAP1 POP JUMP JUMPDEST PUSH0 DUP3 DUP3 MSTORE PUSH1 0x20 DUP3 ADD SWAP1 POP SWAP3 SWAP2 POP POP JUMP JUMPDEST DUP3 DUP2 DUP4 MCOPY PUSH0 DUP4 DUP4 ADD MSTORE POP POP POP JUMP JUMPDEST PUSH0 PUSH1 0x1F NOT PUSH1 0x1F DUP4 ADD AND SWAP1 POP SWAP2 SWAP1 POP JUMP JUMPDEST PUSH0 PUSH2 0x10C0 DUP3 PUSH2 0x107E JUMP JUMPDEST PUSH2 0x10CA DUP2 DUP6 PUSH2 0x1088 JUMP JUMPDEST SWAP4 POP PUSH2 0x10DA DUP2 DUP6 PUSH1 0x20 DUP7 ADD PUSH2 0x1098 JUMP JUMPDEST PUSH2 0x10E3 DUP2 PUSH2 0x10A6 JUMP JUMPDEST DUP5 ADD SWAP2 POP POP SWAP3 SWAP2 POP POP JUMP JUMPDEST PUSH0 PUSH1 0x20 DUP3 ADD SWAP1 POP DUP2 DUP2 SUB PUSH0 DUP4 ADD MSTORE PUSH2 0x1106 DUP2 DUP5 PUSH2 0x10B6 JUMP JUMPDEST SWAP1 POP SWAP3 SWAP2 POP POP JUMP JUMPDEST PUSH0 PUSH0 REVERT JUMPDEST PUSH0 PUSH20 0xFFFFFFFFFFFFFFFFFFFFFFFFFFFFFFFFFFFFFFFF DUP3 AND SWAP1 POP SWAP2 SWAP1 POP JUMP JUMPDEST PUSH0 PUSH2 0x113B DUP3 PUSH2 0x1112 JUMP JUMPDEST SWAP1 POP SWAP2 SWAP1 POP JUMP JUMPDEST PUSH2 0x114B DUP2 PUSH2 0x1131 JUMP JUMPDEST DUP2 EQ PUSH2 0x1155 JUMPI PUSH0 PUSH0 REVERT JUMPDEST POP JUMP JUMPDEST PUSH0 DUP2 CALLDATALOAD SWAP1 POP PUSH2 0x1166 DUP2 PUSH2 0x1142 JUMP JUMPDEST SWAP3 SWAP2 POP POP JUMP JUMPDEST PUSH0 DUP2 SWAP1 POP SWAP2 SWAP1 POP JUMP JUMPDEST PUSH2 0x117E DUP2 PUSH2 0x116C JUMP JUMPDEST DUP2 EQ PUSH2 0x1188 JUMPI PUSH0 PUSH0 REVERT JUMPDEST POP JUMP JUMPDEST PUSH0 DUP2 CALLDATALOAD SWAP1 POP PUSH2 0x1199 DUP2 PUSH2 0x1175 JUMP JUMPDEST SWAP3 SWAP2 POP POP JUMP JUMPDEST PUSH0 PUSH0 PUSH1 0x40 DUP4 DUP6 SUB SLT ISZERO PUSH2 0x11B5 JUMPI PUSH2 0x11B4 PUSH2 0x110E JUMP JUMPDEST JUMPDEST PUSH0 PUSH2 0x11C2 DUP6 DUP3 DUP7 ADD PUSH2 0x1158 JUMP JUMPDEST SWAP3 POP POP PUSH1 0x20 PUSH2 0x11D3 DUP6 DUP3 DUP7 ADD PUSH2 0x118B JUMP JUMPDEST SWAP2 POP POP SWAP3 POP SWAP3 SWAP1 POP JUMP JUMPDEST PUSH0 DUP2 ISZERO ISZERO SWAP1 POP SWAP2 SWAP1 POP JUMP JUMPDEST PUSH2 0x11F1 DUP2 PUSH2 0x11DD JUMP JUMPDEST DUP3 MSTORE POP POP JUMP JUMPDEST PUSH0 PUSH1 0x20 DUP3 ADD SWAP1 POP PUSH2 0x120A PUSH0 DUP4 ADD DUP5 PUSH2 0x11E8 JUMP JUMPDEST SWAP3 SWAP2 POP POP JUMP JUMPDEST PUSH2 0x1219 DUP2 PUSH2 0x116C JUMP JUMPDEST DUP3 MSTORE POP POP JUMP JUMPDEST PUSH0 PUSH1 0x20 DUP3 ADD SWAP1 POP PUSH2 0x1232 PUSH0 DUP4 ADD DUP5 PUSH2 0x1210 JUMP JUMPDEST SWAP3 SWAP2 POP POP JUMP JUMPDEST PUSH0 PUSH0 PUSH0 PUSH1 0x60 DUP5 DUP7 SUB SLT ISZERO PUSH2 0x124F JUMPI PUSH2 0x124E PUSH2 0x110E JUMP JUMPDEST JUMPDEST PUSH0 PUSH2 0x125C DUP7 DUP3 DUP8 ADD PUSH2 0x1158 JUMP JUMPDEST SWAP4 POP POP PUSH1 0x20 PUSH2 0x126D DUP7 DUP3 DUP8 ADD PUSH2 0x1158 JUMP JUMPDEST SWAP3 POP POP PUSH1 0x40 PUSH2 0x127E DUP7 DUP3 DUP8 ADD PUSH2 0x118B JUMP JUMPDEST SWAP2 POP POP SWAP3 POP SWAP3 POP SWAP3 JUMP JUMPDEST PUSH0 PUSH1 0xFF DUP3 AND SWAP1 POP SWAP2 SWAP1 POP JUMP JUMPDEST PUSH2 0x129D DUP2 PUSH2 0x1288 JUMP JUMPDEST DUP3 MSTORE POP POP JUMP JUMPDEST PUSH0 PUSH1 0x20 DUP3 ADD SWAP1 POP PUSH2 0x12B6 PUSH0 DUP4 ADD DUP5 PUSH2 0x1294 JUMP JUMPDEST SWAP3 SWAP2 POP POP JUMP JUMPDEST PUSH0 PUSH1 0x20 DUP3 DUP5 SUB SLT ISZERO PUSH2 0x12D1 JUMPI PUSH2 0x12D0 PUSH2 0x110E JUMP JUMPDEST JUMPDEST PUSH0 PUSH2 0x12DE DUP5 DUP3 DUP6 ADD PUSH2 0x118B JUMP JUMPDEST SWAP2 POP POP SWAP3 SWAP2 POP POP JUMP JUMPDEST PUSH0 PUSH1 0x20 DUP3 DUP5 SUB SLT ISZERO PUSH2 0x12FC JUMPI PUSH2 0x12FB PUSH2 0x110E JUMP JUMPDEST JUMPDEST PUSH0 PUSH2 0x1309 DUP5 DUP3 DUP6 ADD PUSH2 0x1158 JUMP JUMPDEST SWAP2 POP POP SWAP3 SWAP2 POP POP JUMP JUMPDEST PUSH2 0x131B DUP2 PUSH2 0x1131 JUMP JUMPDEST DUP3 MSTORE POP POP JUMP JUMPDEST PUSH0 PUSH1 0x20 DUP3 ADD SWAP1 POP PUSH2 0x1334 PUSH0 DUP4 ADD DUP5 PUSH2 0x1312 JUMP JUMPDEST SWAP3 SWAP2 POP POP JUMP JUMPDEST PUSH0 PUSH0 PUSH1 0x40 DUP4 DUP6 SUB SLT ISZERO PUSH2 0x1350 JUMPI PUSH2 0x134F PUSH2 0x110E JUMP JUMPDEST JUMPDEST PUSH0 PUSH2 0x135D DUP6 DUP3 DUP7 ADD PUSH2 0x1158 JUMP JUMPDEST SWAP3 POP POP PUSH1 0x20 PUSH2 0x136E DUP6 DUP3 DUP7 ADD PUSH2 0x1158 JUMP JUMPDEST SWAP2 POP POP SWAP3 POP SWAP3 SWAP1 POP JUMP JUMPDEST PUSH32 0x4E487B7100000000000000000000000000000000000000000000000000000000 PUSH0 MSTORE PUSH1 0x22 PUSH1 0x4 MSTORE PUSH1 0x24 PUSH0 REVERT JUMPDEST PUSH0 PUSH1 0x2 DUP3 DIV SWAP1 POP PUSH1 0x1 DUP3 AND DUP1 PUSH2 0x13BC JUMPI PUSH1 0x7F DUP3 AND SWAP2 POP JUMPDEST PUSH1 0x20 DUP3 LT DUP2 SUB PUSH2 0x13CF JUMPI PUSH2 0x13CE PUSH2 0x1378 JUMP JUMPDEST JUMPDEST POP SWAP2 SWAP1 POP JUMP JUMPDEST PUSH32 0x4275726E20616D6F756E74206578636565647320616C6C6F77616E6365000000 PUSH0 DUP3 ADD MSTORE POP JUMP JUMPDEST PUSH0 PUSH2 0x1409 PUSH1 0x1D DUP4 PUSH2 0x1088 JUMP JUMPDEST SWAP2 POP PUSH2 0x1414 DUP3 PUSH2 0x13D5 JUMP JUMPDEST PUSH1 0x20 DUP3 ADD SWAP1 POP SWAP2 SWAP1 POP JUMP JUMPDEST PUSH0 PUSH1 0x20 DUP3 ADD SWAP1 POP DUP2 DUP2 SUB PUSH0 DUP4 ADD MSTORE PUSH2 0x1436 DUP2 PUSH2 0x13FD JUMP JUMPDEST SWAP1 POP SWAP2 SWAP1 POP JUMP JUMPDEST PUSH32 0x4E487B7100000000000000000000000000000000000000000000000000000000 PUSH0 MSTORE PUSH1 0x11 PUSH1 0x4 MSTORE PUSH1 0x24 PUSH0 REVERT JUMPDEST PUSH0 PUSH2 0x1474 DUP3 PUSH2 0x116C JUMP JUMPDEST SWAP2 POP PUSH2 0x147F DUP4 PUSH2 0x116C JUMP JUMPDEST SWAP3 POP DUP3 DUP3 SUB SWAP1 POP DUP2 DUP2 GT ISZERO PUSH2 0x1497 JUMPI PUSH2 0x1496 PUSH2 0x143D JUMP JUMPDEST JUMPDEST SWAP3 SWAP2 POP POP JUMP JUMPDEST PUSH0 PUSH1 0x60 DUP3 ADD SWAP1 POP PUSH2 0x14B0 PUSH0 DUP4 ADD DUP7 PUSH2 0x1312 JUMP JUMPDEST PUSH2 0x14BD PUSH1 0x20 DUP4 ADD DUP6 PUSH2 0x1210 JUMP JUMPDEST PUSH2 0x14CA PUSH1 0x40 DUP4 ADD DUP5 PUSH2 0x1210 JUMP JUMPDEST SWAP5 SWAP4 POP POP POP POP JUMP JUMPDEST PUSH0 PUSH2 0x14DC DUP3 PUSH2 0x116C JUMP JUMPDEST SWAP2 POP PUSH2 0x14E7 DUP4 PUSH2 0x116C JUMP JUMPDEST SWAP3 POP DUP3 DUP3 ADD SWAP1 POP DUP1 DUP3 GT ISZERO PUSH2 0x14FF JUMPI PUSH2 0x14FE PUSH2 0x143D JUMP JUMPDEST JUMPDEST SWAP3 SWAP2 POP POP JUMP JUMPDEST PUSH32 0x5061757361626C653A206E6F7420706175736564000000000000000000000000 PUSH0 DUP3 ADD MSTORE POP JUMP JUMPDEST PUSH0 PUSH2 0x1539 PUSH1 0x14 DUP4 PUSH2 0x1088 JUMP JUMPDEST SWAP2 POP PUSH2 0x1544 DUP3 PUSH2 0x1505 JUMP JUMPDEST PUSH1 0x20 DUP3 ADD SWAP1 POP SWAP2 SWAP1 POP JUMP JUMPDEST PUSH0 PUSH1 0x20 DUP3 ADD SWAP1 POP DUP2 DUP2 SUB PUSH0 DUP4 ADD MSTORE PUSH2 0x1566 DUP2 PUSH2 0x152D JUMP JUMPDEST SWAP1 POP SWAP2 SWAP1 POP JUMP JUMPDEST PUSH32 0x5061757361626C653A2070617573656400000000000000000000000000000000 PUSH0 DUP3 ADD MSTORE POP JUMP JUMPDEST PUSH0 PUSH2 0x15A1 PUSH1 0x10 DUP4 PUSH2 0x1088 JUMP JUMPDEST SWAP2 POP PUSH2 0x15AC DUP3 PUSH2 0x156D JUMP JUMPDEST PUSH1 0x20 DUP3 ADD SWAP1 POP SWAP2 SWAP1 POP JUMP JUMPDEST PUSH0 PUSH1 0x20 DUP3 ADD SWAP1 POP DUP2 DUP2 SUB PUSH0 DUP4 ADD MSTORE PUSH2 0x15CE DUP2 PUSH2 0x1595 JUMP JUMPDEST SWAP1 POP SWAP2 SWAP1 POP JUMP INVALID LOG2 PUSH5 0x6970667358 0x22 SLT KECCAK256 PUSH29 0xF15792ED0AE03AD45F64B1EE9777B64D2F241B10EA0703E20F900FC17B SWAP11 DUP4 PUSH5 0x736F6C6343 STOP ADDMOD SHR STOP CALLER "
				},
				"gasEstimates": {
					"creation": {
						"codeDepositCost": "1128600",
						"executionCost": "infinite",
						"totalCost": "infinite"
					},
					"external": {
						"allowance(address,address)": "infinite",
						"approve(address,uint256)": "infinite",
						"balanceOf(address)": "2851",
						"burn(uint256)": "infinite",
						"burnFrom(address,uint256)": "infinite",
						"decimals()": "2547",
						"mint(address,uint256)": "infinite",
						"name()": "infinite",
						"owner()": "2537",
						"pause()": "infinite",
						"paused()": "2635",
						"renounceOwnership()": "infinite",
						"symbol()": "infinite",
						"totalSupply()": "2500",
						"transfer(address,uint256)": "infinite",
						"transferFrom(address,address,uint256)": "infinite",
						"transferOwnership(address)": "infinite",
						"unpause()": "infinite"
					}
				},
				"methodIdentifiers": {
					"allowance(address,address)": "dd62ed3e",
					"approve(address,uint256)": "095ea7b3",
					"balanceOf(address)": "70a08231",
					"burn(uint256)": "42966c68",
					"burnFrom(address,uint256)": "79cc6790",
					"decimals()": "313ce567",
					"mint(address,uint256)": "40c10f19",
					"name()": "06fdde03",
					"owner()": "8da5cb5b",
					"pause()": "8456cb59",
					"paused()": "5c975abb",
					"renounceOwnership()": "715018a6",
					"symbol()": "95d89b41",
					"totalSupply()": "18160ddd",
					"transfer(address,uint256)": "a9059cbb",
					"transferFrom(address,address,uint256)": "23b872dd",
					"transferOwnership(address)": "f2fde38b",
					"unpause()": "3f4ba83a"
				}
			},
			"storageLayout": {
				"storage": [
					{
						"astId": 280,
						"contract": "contracts/MyToken_flattened.sol:CustomToken",
						"label": "_balances",
						"offset": 0,
						"slot": "0",
						"type": "t_mapping(t_address,t_uint256)"
					},
					{
						"astId": 286,
						"contract": "contracts/MyToken_flattened.sol:CustomToken",
						"label": "_allowances",
						"offset": 0,
						"slot": "1",
						"type": "t_mapping(t_address,t_mapping(t_address,t_uint256))"
					},
					{
						"astId": 288,
						"contract": "contracts/MyToken_flattened.sol:CustomToken",
						"label": "_totalSupply",
						"offset": 0,
						"slot": "2",
						"type": "t_uint256"
					},
					{
						"astId": 290,
						"contract": "contracts/MyToken_flattened.sol:CustomToken",
						"label": "_name",
						"offset": 0,
						"slot": "3",
						"type": "t_string_storage"
					},
					{
						"astId": 292,
						"contract": "contracts/MyToken_flattened.sol:CustomToken",
						"label": "_symbol",
						"offset": 0,
						"slot": "4",
						"type": "t_string_storage"
					},
					{
						"astId": 778,
						"contract": "contracts/MyToken_flattened.sol:CustomToken",
						"label": "_owner",
						"offset": 0,
						"slot": "5",
						"type": "t_address"
					},
					{
						"astId": 933,
						"contract": "contracts/MyToken_flattened.sol:CustomToken",
						"label": "_paused",
						"offset": 20,
						"slot": "5",
						"type": "t_bool"
					},
					{
						"astId": 1032,
						"contract": "contracts/MyToken_flattened.sol:CustomToken",
						"label": "_decimals",
						"offset": 21,
						"slot": "5",
						"type": "t_uint8"
					}
				],
				"types": {
					"t_address": {
						"encoding": "inplace",
						"label": "address",
						"numberOfBytes": "20"
					},
					"t_bool": {
						"encoding": "inplace",
						"label": "bool",
						"numberOfBytes": "1"
					},
					"t_mapping(t_address,t_mapping(t_address,t_uint256))": {
						"encoding": "mapping",
						"key": "t_address",
						"label": "mapping(address => mapping(address => uint256))",
						"numberOfBytes": "32",
						"value": "t_mapping(t_address,t_uint256)"
					},
					"t_mapping(t_address,t_uint256)": {
						"encoding": "mapping",
						"key": "t_address",
						"label": "mapping(address => uint256)",
						"numberOfBytes": "32",
						"value": "t_uint256"
					},
					"t_string_storage": {
						"encoding": "bytes",
						"label": "string",
						"numberOfBytes": "32"
					},
					"t_uint256": {
						"encoding": "inplace",
						"label": "uint256",
						"numberOfBytes": "32"
					},
					"t_uint8": {
						"encoding": "inplace",
						"label": "uint8",
						"numberOfBytes": "1"
					}
				}
			},
			"userdoc": {
				"kind": "user",
				"methods": {},
				"version": 1
			}
		}
	}
}